{"abi":[{"type":"function","name":"createEscrowContract","inputs":[{"name":"_marketplace","type":"address","internalType":"address"},{"name":"_projectId","type":"uint256","internalType":"uint256"},{"name":"_buyer","type":"address","internalType":"address"},{"name":"_provider","type":"address","internalType":"address"},{"name":"_paymentToken","type":"address","internalType":"address"},{"name":"_projectFee","type":"uint256","internalType":"uint256"},{"name":"_providerStake","type":"uint256","internalType":"uint256"},{"name":"_mediationService","type":"address","internalType":"address"},{"name":"_detailsURI","type":"string","internalType":"string"}],"outputs":[{"name":"","type":"address","internalType":"address"}],"stateMutability":"nonpayable"}],"bytecode":{"object":"0x608060405234801561001057600080fd5b506122b3806100206000396000f3fe608060405234801561001057600080fd5b506004361061002b5760003560e01c80632492ca0e14610030575b600080fd5b61004361003e3660046103e0565b61005f565b6040516001600160a01b03909116815260200160405180910390f35b6000808983604051602001610075929190610526565b604051602081830303815290604052805190602001209050600061014b82604051806020016100a3906103a1565b6020820181038252601f19601f820116604052508e8e8e8e8e8e8e8e6040516020016101179897969594939291906001600160a01b039889168152602081019790975294871660408701529286166060860152908516608085015260a084015260c083015290911660e08201526101000190565b60408051601f1981840301815290829052610135929160200161054c565b604051602081830303815290604052600061015b565b9c9b505050505050505050505050565b6000806040518060400160405280601081526020016f67363d3d37363d34f03d5260086018f360801b81525090506000858251602084016000f590506001600160a01b0381166101e65760405162461bcd60e51b81526020600482015260116024820152701111541313d65351539517d19052531151607a1b60448201526064015b60405180910390fd5b6101ef866102b6565b92506000816001600160a01b0316858760405161020c919061057b565b60006040518083038185875af1925050503d8060008114610249576040519150601f19603f3d011682016040523d82523d6000602084013e61024e565b606091505b5050905080801561026857506001600160a01b0384163b15155b6102ac5760405162461bcd60e51b815260206004820152601560248201527412539255125053125690551253d397d19052531151605a1b60448201526064016101dd565b5050509392505050565b604080518082018252601081526f67363d3d37363d34f03d5260086018f360801b60209182015290516001600160f81b0319918101919091526bffffffffffffffffffffffff193060601b166021820152603581018290527f21c35dbe1b344a2488cf3321d6ce542f8e9f305544ff09e4993a62319a497c1f6055820152600090819061035a906075015b6040516020818303038152906040528051906020012090565b6040516135a560f21b60208201526bffffffffffffffffffffffff19606083901b166022820152600160f81b603682015290915061039a90603701610341565b9392505050565b611ce68061059883390190565b80356001600160a01b03811681146103c557600080fd5b919050565b634e487b7160e01b600052604160045260246000fd5b60008060008060008060008060006101208a8c0312156103ff57600080fd5b6104088a6103ae565b985060208a0135975061041d60408b016103ae565b965061042b60608b016103ae565b955061043960808b016103ae565b945060a08a0135935060c08a0135925061045560e08b016103ae565b91506101008a013567ffffffffffffffff8082111561047357600080fd5b818c0191508c601f83011261048757600080fd5b813581811115610499576104996103ca565b604051601f8201601f19908116603f011681019083821181831017156104c1576104c16103ca565b816040528281528f60208487010111156104da57600080fd5b8260208601602083013760006020848301015280955050505050509295985092959850929598565b60005b8381101561051d578181015183820152602001610505565b50506000910152565b8281526000825161053e816020850160208701610502565b919091016020019392505050565b6000835161055e818460208801610502565b835190830190610572818360208801610502565b01949350505050565b6000825161058d818460208701610502565b919091019291505056fe6101806040526000805462ffffff191690553480156200001e57600080fd5b5060405162001ce638038062001ce6833981016040819052620000419162000097565b6001600160a01b0397881660805260a09690965293861660c05291851660e0528416610100526101205261014052166101605262000124565b80516001600160a01b03811681146200009257600080fd5b919050565b600080600080600080600080610100898b031215620000b557600080fd5b620000c0896200007a565b975060208901519650620000d760408a016200007a565b9550620000e760608a016200007a565b9450620000f760808a016200007a565b935060a0890151925060c089015191506200011560e08a016200007a565b90509295985092959890939650565b60805160a05160c05160e05161010051610120516101405161016051611a06620002e0600039600081816102a8015261122301526000818161014f01528181610bdf01528181610cc201528181610f1e015281816110f00152818161138d015261142c0152600081816101a801528181610c0001528181610ce301528181610e3d01528181610ef601528181610f430152818161106c015281816112e8015281816114040152611451015260008181610240015281816104d10152818161058b015281816106540152818161076301528181610bad0152610c3901526000818160fe015281816103b60152818161062c0152818161099f01528181610eba015281816110a30152818161131f01526113c8015260008181610274015281816103820152818161047f0152818161094a01528181610dfa0152818161102501526112a10152600081816101dc01528181610803015281816108a401528181610a0a01528181610d3701528181610fa10152611163015260008181610355015281816106840152818161073101528181610830015281816108de01528181610a3d01528181610b6d01528181610d66015261118c0152611a066000f3fe6080604052600436106100e05760003560e01c8063a8fa29871161007f578063cbaaabdc11610059578063cbaaabdc146102df578063cc567e68146102f4578063fe9bfe0214610329578063ffef3cf01461034357600080fd5b8063a8fa298714610262578063aa42f72614610296578063ad9bdebb146102ca57600080fd5b806348d44bd1116100bb57806348d44bd11461019657806356539f39146101ca5780635e2c19db146101fe578063877c86fb1461022e57600080fd5b8062d34411146100ec5780630c6ad8ea1461013d5780633ccfd60b1461017f57600080fd5b366100e757005b600080fd5b3480156100f857600080fd5b506101207f000000000000000000000000000000000000000000000000000000000000000081565b6040516001600160a01b0390911681526020015b60405180910390f35b34801561014957600080fd5b506101717f000000000000000000000000000000000000000000000000000000000000000081565b604051908152602001610134565b34801561018b57600080fd5b50610194610377565b005b3480156101a257600080fd5b506101717f000000000000000000000000000000000000000000000000000000000000000081565b3480156101d657600080fd5b506101717f000000000000000000000000000000000000000000000000000000000000000081565b34801561020a57600080fd5b5061021e6102193660046114cd565b610946565b6040519015158152602001610134565b34801561023a57600080fd5b506101207f000000000000000000000000000000000000000000000000000000000000000081565b34801561026e57600080fd5b506101207f000000000000000000000000000000000000000000000000000000000000000081565b3480156102a257600080fd5b506101207f000000000000000000000000000000000000000000000000000000000000000081565b3480156102d657600080fd5b5061021e6109fb565b3480156102eb57600080fd5b5061021e610b60565b34801561030057600080fd5b5061031461030f3660046114cd565b610d28565b60408051928352602083019190915201610134565b34801561033557600080fd5b5060005461021e9060ff1681565b34801561034f57600080fd5b506101207f000000000000000000000000000000000000000000000000000000000000000081565b336001600160a01b037f000000000000000000000000000000000000000000000000000000000000000016148015906103d95750336001600160a01b037f00000000000000000000000000000000000000000000000000000000000000001614155b156103f757604051632484a2cf60e01b815260040160405180910390fd5b6103ff6109fb565b61041c57604051636f6d5d4d60e01b815260040160405180910390fd5b61042533610946565b1561044357604051633cfe0ca160e11b815260040160405180910390fd5b60008061044f33610d28565b9150915081600003610474576040516304836a8f60e51b815260040160405180910390fd5b336001600160a01b037f000000000000000000000000000000000000000000000000000000000000000016146104bc576000805462ff000019166201000017905560016104ce565b6000805461ff00191661010017905560015b507f00000000000000000000000000000000000000000000000000000000000000006001600160a01b031661056c57604051600090339084908381818185875af1925050503d806000811461053f576040519150601f19603f3d011682016040523d82523d6000602084013e610544565b606091505b505090508061056657604051630fbb62e760e21b815260040160405180910390fd5b50610622565b60405163a9059cbb60e01b8152336004820152602481018390526000907f00000000000000000000000000000000000000000000000000000000000000006001600160a01b03169063a9059cbb906044016020604051808303816000875af11580156105dc573d6000803e3d6000fd5b505050506040513d601f19601f820116820180604052508101906106009190611506565b90508061062057604051630fbb62e760e21b815260040160405180910390fd5b505b6001600160a01b037f0000000000000000000000000000000000000000000000000000000000000000163303610895577f00000000000000000000000000000000000000000000000000000000000000006001600160a01b031661071a5760007f00000000000000000000000000000000000000000000000000000000000000006001600160a01b03168260405160006040518083038185875af1925050503d80600081146106ed576040519150601f19603f3d011682016040523d82523d6000602084013e6106f2565b606091505b50509050806107145760405163046a2de360e01b815260040160405180910390fd5b506107f4565b60405163a9059cbb60e01b81526001600160a01b037f000000000000000000000000000000000000000000000000000000000000000081166004830152602482018390526000917f00000000000000000000000000000000000000000000000000000000000000009091169063a9059cbb906044016020604051808303816000875af11580156107ae573d6000803e3d6000fd5b505050506040513d601f19601f820116820180604052508101906107d29190611506565b9050806107f25760405163046a2de360e01b815260040160405180910390fd5b505b60405163d7d3a7f560e01b81527f00000000000000000000000000000000000000000000000000000000000000006004820152602481018290527f00000000000000000000000000000000000000000000000000000000000000006001600160a01b03169063d7d3a7f590604401600060405180830381600087803b15801561087c57600080fd5b505af1158015610890573d6000803e3d6000fd5b505050505b604051630e01129f60e01b81527f0000000000000000000000000000000000000000000000000000000000000000600482015233602482015260448101839052606481018290527f00000000000000000000000000000000000000000000000000000000000000006001600160a01b031690630e01129f90608401600060405180830381600087803b15801561092a57600080fd5b505af115801561093e573d6000803e3d6000fd5b505050505050565b60007f00000000000000000000000000000000000000000000000000000000000000006001600160a01b0316826001600160a01b03161480156109905750600054610100900460ff165b1561099d57506001919050565b7f00000000000000000000000000000000000000000000000000000000000000006001600160a01b0316826001600160a01b03161480156109e6575060005462010000900460ff165b156109f357506001919050565b506000919050565b604051639675c00960e01b81527f0000000000000000000000000000000000000000000000000000000000000000600482015260009081906001600160a01b037f00000000000000000000000000000000000000000000000000000000000000001690639675c00990602401602060405180830381865afa158015610a84573d6000803e3d6000fd5b505050506040513d601f19601f82011682018060405250810190610aa89190611521565b9050600181600c811115610abe57610abe611542565b1480610adb5750600581600c811115610ad957610ad9611542565b145b80610af75750600981600c811115610af557610af5611542565b145b80610b135750600a81600c811115610b1157610b11611542565b145b80610b2f5750600b81600c811115610b2d57610b2d611542565b145b80610b4b5750600c81600c811115610b4957610b49611542565b145b15610b5857600191505090565b600091505090565b6000336001600160a01b037f00000000000000000000000000000000000000000000000000000000000000001614610bab5760405163878a1fe360e01b815260040160405180910390fd5b7f00000000000000000000000000000000000000000000000000000000000000006001600160a01b031615610cbd57610c247f00000000000000000000000000000000000000000000000000000000000000007f000000000000000000000000000000000000000000000000000000000000000061156e565b6040516370a0823160e01b81523060048201527f00000000000000000000000000000000000000000000000000000000000000006001600160a01b0316906370a0823190602401602060405180830381865afa158015610c88573d6000803e3d6000fd5b505050506040513d601f19601f82011682018060405250810190610cac9190611581565b1015610cb85750600090565b610d14565b610d077f00000000000000000000000000000000000000000000000000000000000000007f000000000000000000000000000000000000000000000000000000000000000061156e565b471015610d145750600090565b506000805460ff1916600190811790915590565b604051639675c00960e01b81527f000000000000000000000000000000000000000000000000000000000000000060048201526000908190819081907f00000000000000000000000000000000000000000000000000000000000000009082906001600160a01b03831690639675c00990602401602060405180830381865afa158015610db9573d6000803e3d6000fd5b505050506040513d601f19601f82011682018060405250810190610ddd9190611521565b9050600181600c811115610df357610df3611542565b03610e66577f00000000000000000000000000000000000000000000000000000000000000006001600160a01b0316876001600160a01b031614610e3b576000935083610e60565b7f00000000000000000000000000000000000000000000000000000000000000009350835b50611485565b600581600c811115610e7a57610e7a611542565b1480610e975750600b81600c811115610e9557610e95611542565b145b80610eb35750600c81600c811115610eb157610eb1611542565b145b15610f79577f00000000000000000000000000000000000000000000000000000000000000006001600160a01b0316876001600160a01b031603610f7457610f1a7f0000000000000000000000000000000000000000000000000000000000000000611491565b92507f0000000000000000000000000000000000000000000000000000000000000000610f67847f000000000000000000000000000000000000000000000000000000000000000061159a565b610f71919061156e565b93505b611485565b600981600c811115610f8d57610f8d611542565b0361113b57604051637646a1ad60e11b81527f000000000000000000000000000000000000000000000000000000000000000060048201526000906001600160a01b0384169063ec8d435a90602401600060405180830381865afa158015610ff9573d6000803e3d6000fd5b505050506040513d6000823e601f3d908101601f1916820160405261102191908101906116d2565b90507f00000000000000000000000000000000000000000000000000000000000000006001600160a01b0316886001600160a01b0316036110a15760a08101516080820151611090907f000000000000000000000000000000000000000000000000000000000000000061159a565b61109a919061156e565b9450610e60565b7f00000000000000000000000000000000000000000000000000000000000000006001600160a01b0316886001600160a01b031603610e60576110e78160800151611491565b93508060a001517f0000000000000000000000000000000000000000000000000000000000000000611119919061159a565b848260800151611129919061159a565b611133919061156e565b945050611485565b600a81600c81111561114f5761114f611542565b0361148557604051636a53da7760e01b81527f000000000000000000000000000000000000000000000000000000000000000060048201526000907f00000000000000000000000000000000000000000000000000000000000000006001600160a01b031690636a53da7790602401602060405180830381865afa1580156111db573d6000803e3d6000fd5b505050506040513d601f19601f820116820180604052508101906111ff9190611581565b60405163e3a96cbd60e01b8152600481018290529091506000906001600160a01b037f0000000000000000000000000000000000000000000000000000000000000000169063e3a96cbd90602401600060405180830381865afa15801561126a573d6000803e3d6000fd5b505050506040513d6000823e601f3d908101601f191682016040526112929190810190611869565b9050806101e00151156113c6577f00000000000000000000000000000000000000000000000000000000000000006001600160a01b0316896001600160a01b03160361131d576060810151604082015161130c907f000000000000000000000000000000000000000000000000000000000000000061159a565b611316919061156e565b9550611482565b7f00000000000000000000000000000000000000000000000000000000000000006001600160a01b0316896001600160a01b0316036113c15760008160600151826040015161136c919061159a565b11156113825761137f8160400151611491565b94505b60608101516113b1907f000000000000000000000000000000000000000000000000000000000000000061159a565b85826040015161130c919061159a565b611482565b7f00000000000000000000000000000000000000000000000000000000000000006001600160a01b0316896001600160a01b031603611482576114287f0000000000000000000000000000000000000000000000000000000000000000611491565b94507f0000000000000000000000000000000000000000000000000000000000000000611475867f000000000000000000000000000000000000000000000000000000000000000061159a565b61147f919061156e565b95505b50505b50919590945092505050565b600060648210156114a457506000919050565b6114af6064836119ae565b92915050565b6001600160a01b03811681146114ca57600080fd5b50565b6000602082840312156114df57600080fd5b81356114ea816114b5565b9392505050565b8051801515811461150157600080fd5b919050565b60006020828403121561151857600080fd5b6114ea826114f1565b60006020828403121561153357600080fd5b8151600d81106114ea57600080fd5b634e487b7160e01b600052602160045260246000fd5b634e487b7160e01b600052601160045260246000fd5b808201808211156114af576114af611558565b60006020828403121561159357600080fd5b5051919050565b818103818111156114af576114af611558565b634e487b7160e01b600052604160045260246000fd5b604051610140810167ffffffffffffffff811182821017156115e7576115e76115ad565b60405290565b604051610240810167ffffffffffffffff811182821017156115e7576115e76115ad565b604051601f8201601f1916810167ffffffffffffffff8111828210171561163a5761163a6115ad565b604052919050565b8051611501816114b5565b600082601f83011261165e57600080fd5b815167ffffffffffffffff811115611678576116786115ad565b602061168c601f8301601f19168201611611565b82815285828487010111156116a057600080fd5b60005b838110156116be5785810183015182820184015282016116a3565b506000928101909101919091529392505050565b6000602082840312156116e457600080fd5b815167ffffffffffffffff808211156116fc57600080fd5b90830190610140828603121561171157600080fd5b6117196115c3565b82518152602083015160208201526040830151604082015261173d60608401611642565b60608201526080830151608082015260a083015160a082015261176260c084016114f1565b60c082015261177360e084016114f1565b60e08201526101006117868185016114f1565b90820152610120838101518381111561179e57600080fd5b6117aa8882870161164d565b918301919091525095945050505050565b80516008811061150157600080fd5b600082601f8301126117db57600080fd5b8151602067ffffffffffffffff808311156117f8576117f86115ad565b8260051b611807838201611611565b938452858101830193838101908886111561182157600080fd5b84880192505b8583101561185d5782518481111561183f5760008081fd5b61184d8a87838c010161164d565b8352509184019190840190611827565b98975050505050505050565b60006020828403121561187b57600080fd5b815167ffffffffffffffff8082111561189357600080fd5b9083019061024082860312156118a857600080fd5b6118b06115ed565b825181526020830151602082015260408301516040820152606083015160608201526118de60808401611642565b60808201526118ef60a08401611642565b60a082015260c083015160c082015261190a60e084016114f1565b60e082015261010061191d8185016114f1565b9082015261012083810151908201526101408084015190820152610160808401519082015261018080840151908201526101a080840151908201526101c06119668185016114f1565b908201526101e06119788482016114f1565b9082015261020061198a8482016117bb565b9082015261022083810151838111156119a257600080fd5b6117aa888287016117ca565b6000826119cb57634e487b7160e01b600052601260045260246000fd5b50049056fea264697066735822122021da869894fb7b55dea45831711fc3e40febe63254123e4ade6c7033fbbf707264736f6c63430008170033a2646970667358221220d3886934dab0627c6578affe018da9aeda1323c94bbfcabd7207a223f3b3e85e64736f6c63430008170033","linkReferences":{}},"methodIdentifiers":{"createEscrowContract(address,uint256,address,address,address,uint256,uint256,address,string)":"2492ca0e"},"id":30}