{"abi":[{"type":"constructor","inputs":[{"name":"_admins","type":"address[]","internalType":"address[]"},{"name":"_sigsRequired","type":"uint256","internalType":"uint256"}],"stateMutability":"nonpayable"},{"type":"fallback","stateMutability":"payable"},{"type":"receive","stateMutability":"payable"},{"type":"function","name":"addAdmin","inputs":[{"name":"_newAdmin","type":"address","internalType":"address"}],"outputs":[],"stateMutability":"nonpayable"},{"type":"function","name":"adminHasSigned","inputs":[{"name":"txIndex","type":"uint256","internalType":"uint256"},{"name":"admin","type":"address","internalType":"address"}],"outputs":[{"name":"","type":"bool","internalType":"bool"}],"stateMutability":"view"},{"type":"function","name":"admins","inputs":[{"name":"","type":"uint256","internalType":"uint256"}],"outputs":[{"name":"","type":"address","internalType":"address"}],"stateMutability":"view"},{"type":"function","name":"cancelTransaction","inputs":[{"name":"_txIndex","type":"uint256","internalType":"uint256"}],"outputs":[],"stateMutability":"nonpayable"},{"type":"function","name":"changeSignaturesRequired","inputs":[{"name":"_newSigsRequired","type":"uint256","internalType":"uint256"}],"outputs":[],"stateMutability":"nonpayable"},{"type":"function","name":"executeTransaction","inputs":[{"name":"_txIndex","type":"uint256","internalType":"uint256"}],"outputs":[],"stateMutability":"nonpayable"},{"type":"function","name":"getAdmins","inputs":[],"outputs":[{"name":"","type":"address[]","internalType":"address[]"}],"stateMutability":"view"},{"type":"function","name":"getAllTransactions","inputs":[],"outputs":[{"name":"","type":"tuple[]","internalType":"struct Governor.Transaction[]","components":[{"name":"to","type":"address","internalType":"address"},{"name":"value","type":"uint256","internalType":"uint256"},{"name":"data","type":"bytes","internalType":"bytes"},{"name":"proposedBy","type":"address","internalType":"address"},{"name":"active","type":"bool","internalType":"bool"},{"name":"executed","type":"bool","internalType":"bool"},{"name":"numSignatures","type":"uint8","internalType":"uint8"}]}],"stateMutability":"view"},{"type":"function","name":"getNumTransactions","inputs":[],"outputs":[{"name":"","type":"uint256","internalType":"uint256"}],"stateMutability":"view"},{"type":"function","name":"getTransaction","inputs":[{"name":"txIndex","type":"uint256","internalType":"uint256"}],"outputs":[{"name":"","type":"tuple","internalType":"struct Governor.Transaction","components":[{"name":"to","type":"address","internalType":"address"},{"name":"value","type":"uint256","internalType":"uint256"},{"name":"data","type":"bytes","internalType":"bytes"},{"name":"proposedBy","type":"address","internalType":"address"},{"name":"active","type":"bool","internalType":"bool"},{"name":"executed","type":"bool","internalType":"bool"},{"name":"numSignatures","type":"uint8","internalType":"uint8"}]}],"stateMutability":"view"},{"type":"function","name":"isAdmin","inputs":[{"name":"","type":"address","internalType":"address"}],"outputs":[{"name":"","type":"bool","internalType":"bool"}],"stateMutability":"view"},{"type":"function","name":"proposeTransaction","inputs":[{"name":"_to","type":"address","internalType":"address"},{"name":"_value","type":"uint256","internalType":"uint256"},{"name":"_data","type":"bytes","internalType":"bytes"}],"outputs":[{"name":"","type":"uint256","internalType":"uint256"}],"stateMutability":"nonpayable"},{"type":"function","name":"removeAdmin","inputs":[{"name":"_toRemove","type":"address","internalType":"address"}],"outputs":[],"stateMutability":"nonpayable"},{"type":"function","name":"revokeSignature","inputs":[{"name":"_txIndex","type":"uint256","internalType":"uint256"}],"outputs":[],"stateMutability":"nonpayable"},{"type":"function","name":"signTransaction","inputs":[{"name":"_txIndex","type":"uint256","internalType":"uint256"}],"outputs":[],"stateMutability":"nonpayable"},{"type":"function","name":"signaturesRequired","inputs":[],"outputs":[{"name":"","type":"uint256","internalType":"uint256"}],"stateMutability":"view"},{"type":"event","name":"AdminAdded","inputs":[{"name":"newAdmin","type":"address","indexed":false,"internalType":"address"}],"anonymous":false},{"type":"event","name":"AdminRemoved","inputs":[{"name":"adminRemoved","type":"address","indexed":false,"internalType":"address"}],"anonymous":false},{"type":"event","name":"SignatureRevoked","inputs":[{"name":"txIndex","type":"uint256","indexed":false,"internalType":"uint256"},{"name":"admin","type":"address","indexed":false,"internalType":"address"},{"name":"numSignatures","type":"uint256","indexed":false,"internalType":"uint256"}],"anonymous":false},{"type":"event","name":"SignaturesRequiredChanged","inputs":[{"name":"signaturesRequired","type":"uint256","indexed":false,"internalType":"uint256"}],"anonymous":false},{"type":"event","name":"TransactionCancelled","inputs":[{"name":"txIndex","type":"uint256","indexed":false,"internalType":"uint256"}],"anonymous":false},{"type":"event","name":"TransactionExecuted","inputs":[{"name":"txIndex","type":"uint256","indexed":false,"internalType":"uint256"},{"name":"to","type":"address","indexed":false,"internalType":"address"},{"name":"value","type":"uint256","indexed":false,"internalType":"uint256"},{"name":"data","type":"bytes","indexed":false,"internalType":"bytes"}],"anonymous":false},{"type":"event","name":"TransactionProposed","inputs":[{"name":"txIndex","type":"uint256","indexed":false,"internalType":"uint256"},{"name":"to","type":"address","indexed":false,"internalType":"address"},{"name":"value","type":"uint256","indexed":false,"internalType":"uint256"},{"name":"data","type":"bytes","indexed":false,"internalType":"bytes"},{"name":"proposedBy","type":"address","indexed":false,"internalType":"address"}],"anonymous":false},{"type":"event","name":"TransactionSigned","inputs":[{"name":"txIndex","type":"uint256","indexed":false,"internalType":"uint256"},{"name":"admin","type":"address","indexed":false,"internalType":"address"},{"name":"numSignatures","type":"uint256","indexed":false,"internalType":"uint256"}],"anonymous":false},{"type":"error","name":"Governor__AddressIsNotAdmin","inputs":[]},{"type":"error","name":"Governor__DuplicateAdminAddress","inputs":[]},{"type":"error","name":"Governor__DuplicateSignature","inputs":[]},{"type":"error","name":"Governor__InsufficientSignatures","inputs":[]},{"type":"error","name":"Governor__OnlyAdmin","inputs":[]},{"type":"error","name":"Governor__OnlyGovernor","inputs":[]},{"type":"error","name":"Governor__OnlyProposerCanCancel","inputs":[]},{"type":"error","name":"Governor__TooFewSignaturesRequired","inputs":[]},{"type":"error","name":"Governor__TooManySignaturesRequired","inputs":[]},{"type":"error","name":"Governor__TransactionFailed","inputs":[]},{"type":"error","name":"Governor__TransactionNotActive","inputs":[]},{"type":"error","name":"Governor__TwoAdminMinimum","inputs":[]},{"type":"error","name":"Governor__UserHasNotSigned","inputs":[]},{"type":"error","name":"Governor__ZeroAddress","inputs":[]}],"bytecode":{"object":"0x60806040523480156200001157600080fd5b5060405162001c6e38038062001c6e8339810160408190526200003491620001e6565b60005b825181101562000077576200006e8382815181106200005a576200005a620002c0565b60200260200101516200009c60201b60201c565b60010162000037565b506001546200008890829062000163565b6200009257600080fd5b60005550620002d6565b6001600160a01b03811660009081526002602052604090205460ff1615620000d757604051632ea44c2360e11b815260040160405180910390fd5b6001600160a01b038116620000ff576040516357588ba560e11b815260040160405180910390fd5b6001805480820182557fb10e2d527612073b26eecdfd717e6a320cf44b4afac2b0732d9fcbe2b7fa0cf60180546001600160a01b039093166001600160a01b031990931683179055600091825260026020526040909120805460ff19169091179055565b60008183111562000187576040516350fd467560e11b815260040160405180910390fd5b6002831015620001aa576040516304faeb2360e51b815260040160405180910390fd5b50600192915050565b634e487b7160e01b600052604160045260246000fd5b80516001600160a01b0381168114620001e157600080fd5b919050565b60008060408385031215620001fa57600080fd5b82516001600160401b03808211156200021257600080fd5b818501915085601f8301126200022757600080fd5b81516020828211156200023e576200023e620001b3565b8160051b604051601f19603f83011681018181108682111715620002665762000266620001b3565b6040529283528183019350848101820192898411156200028557600080fd5b948201945b83861015620002ae576200029e86620001c9565b855294820194938201936200028a565b97909101519698969750505050505050565b634e487b7160e01b600052603260045260246000fd5b61198880620002e66000396000f3fe6080604052600436106100eb5760003560e01c80633da1f79a11610084578063704802751161005657806370480275146102c15780639c037c3c146102e1578063ce757d2914610301578063ee22610b1461031757005b80633da1f79a146102425780634cf32de3146102625780635d9ec210146102815780635e90852d146102a157005b8063297b4c2c116100bd578063297b4c2c146101b357806331ae450b146101d35780633380c0d8146101f557806333ea3dc81461021557005b806314bfd6d0146100f45780631785f53c1461013157806324d7806c1461015157806327506f531461019157005b366100f257005b005b34801561010057600080fd5b5061011461010f366004611356565b610337565b6040516001600160a01b0390911681526020015b60405180910390f35b34801561013d57600080fd5b506100f261014c36600461138b565b610361565b34801561015d57600080fd5b5061018161016c36600461138b565b60026020526000908152604090205460ff1681565b6040519015158152602001610128565b34801561019d57600080fd5b506101a66105a7565b6040516101289190611477565b3480156101bf57600080fd5b506100f26101ce366004611356565b610708565b3480156101df57600080fd5b506101e8610774565b60405161012891906114db565b34801561020157600080fd5b506100f2610210366004611356565b6107d6565b34801561022157600080fd5b50610235610230366004611356565b6108f3565b6040516101289190611528565b34801561024e57600080fd5b506100f261025d366004611356565b610a70565b34801561026e57600080fd5b506003545b604051908152602001610128565b34801561028d57600080fd5b506100f261029c366004611356565b610bf9565b3480156102ad57600080fd5b506102736102bc36600461153b565b610dae565b3480156102cd57600080fd5b506100f26102dc36600461138b565b610fe2565b3480156102ed57600080fd5b506101816102fc3660046115c2565b611044565b34801561030d57600080fd5b5061027360005481565b34801561032357600080fd5b506100f2610332366004611356565b611071565b6001818154811061034757600080fd5b6000918252602090912001546001600160a01b0316905081565b3330146103815760405163b6a915b760e01b815260040160405180910390fd5b6001600160a01b03811660009081526002602052604090205460ff166103ba57604051633e43c45560e01b815260040160405180910390fd5b600180546002916103ca91611604565b10156103e957604051630e79522560e41b815260040160405180910390fd5b6001600160a01b0381166000908152600260205260408120805460ff191690555b60015481101561055357816001600160a01b03166001828154811061043157610431611617565b6000918252602090912001546001600160a01b03160361054b57600180546000919061045e908290611604565b8154811061046e5761046e611617565b600091825260209091200154600180546001600160a01b03909216925082918490811061049d5761049d611617565b600091825260209091200180546001600160a01b0319166001600160a01b0392909216919091179055600180548491906104d8908290611604565b815481106104e8576104e8611617565b9060005260206000200160006101000a8154816001600160a01b0302191690836001600160a01b0316021790555060018054806105275761052761162d565b600082815260209020810160001990810180546001600160a01b0319169055019055505b60010161040a565b506001546000541115610567576001546000555b6040516001600160a01b03821681527fa3b62bc36326052d97ea62d63c3d60308ed4c3ea8ac079dd8499f1e9c4f80c0f906020015b60405180910390a150565b60606003805480602002602001604051908101604052809291908181526020016000905b828210156106ff5760008481526020908190206040805160e0810182526004860290920180546001600160a01b031683526001810154938301939093526002830180549293929184019161061e90611643565b80601f016020809104026020016040519081016040528092919081815260200182805461064a90611643565b80156106975780601f1061066c57610100808354040283529160200191610697565b820191906000526020600020905b81548152906001019060200180831161067a57829003601f168201915b5050509183525050600391909101546001600160a01b03811660208084019190915260ff600160a01b8304811615156040850152600160a81b8304811615156060850152600160b01b90920490911660809092019190915290825260019290920191016105cb565b50505050905090565b3330146107285760405163b6a915b760e01b815260040160405180910390fd5b600154610736908290611243565b61073f57600080fd5b60008190556040518181527f6e78f9709a40d80cb630566b78e588dc218d3e1f648faf3ef910f7d11fa527139060200161059c565b606060018054806020026020016040519081016040528092919081815260200182805480156107cc57602002820191906000526020600020905b81546001600160a01b031681526001909101906020018083116107ae575b5050505050905090565b3360009081526002602052604090205460ff166108065760405163710946cb60e11b815260040160405180910390fd5b806003818154811061081a5761081a611617565b906000526020600020906004020160030160149054906101000a900460ff166108565760405163c43a8a9160e01b815260040160405180910390fd5b60006003838154811061086b5761086b611617565b6000918252602090912060049091020160038101549091506001600160a01b031633146108ab5760405163e49eb56160e01b815260040160405180910390fd5b60038101805460ff60a01b191690556040518381527f956fb32199d8b882b2039a14e1be35ab14f7a80b9089fc223f14b43937173e60906020015b60405180910390a1505050565b6040805160e08101825260008082526020820181905260609282018390529181018290526080810182905260a0810182905260c08101919091526003828154811061094057610940611617565b90600052602060002090600402016040518060e00160405290816000820160009054906101000a90046001600160a01b03166001600160a01b03166001600160a01b03168152602001600182015481526020016002820180546109a290611643565b80601f01602080910402602001604051908101604052809291908181526020018280546109ce90611643565b8015610a1b5780601f106109f057610100808354040283529160200191610a1b565b820191906000526020600020905b8154815290600101906020018083116109fe57829003601f168201915b5050509183525050600391909101546001600160a01b038116602083015260ff600160a01b8204811615156040840152600160a81b8204811615156060840152600160b01b9091041660809091015292915050565b3360009081526002602052604090205460ff16610aa05760405163710946cb60e11b815260040160405180910390fd5b8060038181548110610ab457610ab4611617565b906000526020600020906004020160030160149054906101000a900460ff16610af05760405163c43a8a9160e01b815260040160405180910390fd5b600082815260046020908152604080832033845290915290205460ff16610b2a576040516334ec4fe360e21b815260040160405180910390fd5b600060038381548110610b3f57610b3f611617565b9060005260206000209060040201905060018160030160168282829054906101000a900460ff16610b70919061167d565b82546101009290920a60ff81810219909316918316021790915560008581526004602090815260408083203380855290835292819020805460ff191690556003860154815189815292830193909352600160b01b909204909216908201527ffbbda019ddace25510873f2cf5073cc1895af4dace5fa94e134007a4a329c52091506060016108e6565b3360009081526002602052604090205460ff16610c295760405163710946cb60e11b815260040160405180910390fd5b8060038181548110610c3d57610c3d611617565b906000526020600020906004020160030160149054906101000a900460ff16610c795760405163c43a8a9160e01b815260040160405180910390fd5b600082815260046020908152604080832033845290915290205460ff1615610cb4576040516301a7f72d60e11b815260040160405180910390fd5b600060038381548110610cc957610cc9611617565b9060005260206000209060040201905060018160030160168282829054906101000a900460ff16610cfa9190611696565b82546101009290920a60ff81810219909316918316021790915560008581526004602090815260408083203380855290835292819020805460ff191660011790556003860154815189815292830193909352600160b01b909204909216908201527fb95f07364e4e3a5387406f8a67472b438bab34160ed31971d0bf57bd119fa58b915060600160405180910390a16000546003820154600160b01b900460ff1610610da957610da983611071565b505050565b3360009081526002602052604081205460ff16610dde5760405163710946cb60e11b815260040160405180910390fd5b6003546040805160e081018252606081830181905260009082018190526080820181905260a0820181905260c08201526001600160a01b038816815260208082018890528251601f8701829004820281018201909352858352909190869086908190840183828082843760009201829052506040860194855233606087015260016080870181905260038054918201815590915285517fc2575a0e9e593c00f959f8c92f12db2869c3395a3b0502d05e2516446f71f85b600490920291820180546001600160a01b0319166001600160a01b0390921691909117815560208701517fc2575a0e9e593c00f959f8c92f12db2869c3395a3b0502d05e2516446f71f85c8301559451869594507fc2575a0e9e593c00f959f8c92f12db2869c3395a3b0502d05e2516446f71f85d9091019250610f1a915082611715565b50606082015160039091018054608084015160a085015160c09095015160ff16600160b01b0260ff60b01b19951515600160a81b029590951661ffff60a81b19911515600160a01b026001600160a81b03199093166001600160a01b03909516949094179190911716919091179190911790556040517fea4cdd707cb86aeeedc1ff98b5ff3ea7bb0f679aba24ae60449cf09452c2c64d90610fc79084908a908a908a908a9033906117d5565b60405180910390a1610fd882610bf9565b5095945050505050565b3330146110025760405163b6a915b760e01b815260040160405180910390fd5b61100b81611291565b6040516001600160a01b03821681527f44d6d25963f097ad14f29f06854a01f575648a1ef82f30e562ccd3889717e3399060200161059c565b60008281526004602090815260408083206001600160a01b038516845290915290205460ff165b92915050565b3360009081526002602052604090205460ff166110a15760405163710946cb60e11b815260040160405180910390fd5b80600381815481106110b5576110b5611617565b906000526020600020906004020160030160149054906101000a900460ff166110f15760405163c43a8a9160e01b815260040160405180910390fd5b60006003838154811061110657611106611617565b906000526020600020906004020190506000548160030160169054906101000a900460ff1660ff16101561114d57604051631262f37360e31b815260040160405180910390fd5b60038101805461ffff60a01b1916600160a81b179055805460018201546040516000926001600160a01b0316919061118990600286019061182e565b60006040518083038185875af1925050503d80600081146111c6576040519150601f19603f3d011682016040523d82523d6000602084013e6111cb565b606091505b50509050806111ed57604051634bbd053b60e11b815260040160405180910390fd5b815460018301546040517f45c6e1a61292af28e0360dcf7b4c16a9143c6a4e968a38ecd0fd26cac72e06ca926112359288926001600160a01b039092169160028801906118a4565b60405180910390a150505050565b600081831115611266576040516350fd467560e11b815260040160405180910390fd5b6002831015611288576040516304faeb2360e51b815260040160405180910390fd5b50600192915050565b6001600160a01b03811660009081526002602052604090205460ff16156112cb57604051632ea44c2360e11b815260040160405180910390fd5b6001600160a01b0381166112f2576040516357588ba560e11b815260040160405180910390fd5b6001805480820182557fb10e2d527612073b26eecdfd717e6a320cf44b4afac2b0732d9fcbe2b7fa0cf60180546001600160a01b039093166001600160a01b031990931683179055600091825260026020526040909120805460ff19169091179055565b60006020828403121561136857600080fd5b5035919050565b80356001600160a01b038116811461138657600080fd5b919050565b60006020828403121561139d57600080fd5b6113a68261136f565b9392505050565b60018060a01b03815116825260006020808301516020850152604083015160e0604086015280518060e087015260005b818110156113fa57828101840151878201610100015283016113dd565b50610100925060008382880101526060850151915061142460608701836001600160a01b03169052565b60808501519150611439608087018315159052565b60a0850151915061144e60a087018315159052565b60c0850151915061146460c087018360ff169052565b601f01601f191694909401019392505050565b600060208083016020845280855180835260408601915060408160051b87010192506020870160005b828110156114ce57603f198886030184526114bc8583516113ad565b945092850192908501906001016114a0565b5092979650505050505050565b6020808252825182820181905260009190848201906040850190845b8181101561151c5783516001600160a01b0316835292840192918401916001016114f7565b50909695505050505050565b6020815260006113a660208301846113ad565b6000806000806060858703121561155157600080fd5b61155a8561136f565b935060208501359250604085013567ffffffffffffffff8082111561157e57600080fd5b818701915087601f83011261159257600080fd5b8135818111156115a157600080fd5b8860208285010111156115b357600080fd5b95989497505060200194505050565b600080604083850312156115d557600080fd5b823591506115e56020840161136f565b90509250929050565b634e487b7160e01b600052601160045260246000fd5b8181038181111561106b5761106b6115ee565b634e487b7160e01b600052603260045260246000fd5b634e487b7160e01b600052603160045260246000fd5b600181811c9082168061165757607f821691505b60208210810361167757634e487b7160e01b600052602260045260246000fd5b50919050565b60ff828116828216039081111561106b5761106b6115ee565b60ff818116838216019081111561106b5761106b6115ee565b634e487b7160e01b600052604160045260246000fd5b601f821115610da9576000816000526020600020601f850160051c810160208610156116ee5750805b601f850160051c820191505b8181101561170d578281556001016116fa565b505050505050565b815167ffffffffffffffff81111561172f5761172f6116af565b6117438161173d8454611643565b846116c5565b602080601f83116001811461177857600084156117605750858301515b600019600386901b1c1916600185901b17855561170d565b600085815260208120601f198616915b828110156117a757888601518255948401946001909101908401611788565b50858210156117c55787850151600019600388901b60f8161c191681555b5050505050600190811b01905550565b868152600060018060a01b03808816602084015286604084015260a060608401528460a0840152848660c0850137600083860160c0908101919091529316608083015250601f909201601f191690910101949350505050565b600080835461183c81611643565b60018281168015611854576001811461186957611898565b60ff1984168752821515830287019450611898565b8760005260208060002060005b8581101561188f5781548a820152908401908201611876565b50505082870194505b50929695505050505050565b8481526000602060018060a01b038616602084015284604084015260806060840152600084546118d381611643565b80608087015260a06001808416600081146118f5576001811461191157611941565b60ff19851660a08a015260a084151560051b8a01019550611941565b89600052602060002060005b858110156119385781548b820186015290830190880161191d565b8a0160a0019650505b50939b9a505050505050505050505056fea2646970667358221220566fa656879131c5f406b55f361516aeaa2d10f9005b3fcd4d2930ec7cc08ff764736f6c63430008170033","linkReferences":{}},"methodIdentifiers":{"addAdmin(address)":"70480275","adminHasSigned(uint256,address)":"9c037c3c","admins(uint256)":"14bfd6d0","cancelTransaction(uint256)":"3380c0d8","changeSignaturesRequired(uint256)":"297b4c2c","executeTransaction(uint256)":"ee22610b","getAdmins()":"31ae450b","getAllTransactions()":"27506f53","getNumTransactions()":"4cf32de3","getTransaction(uint256)":"33ea3dc8","isAdmin(address)":"24d7806c","proposeTransaction(address,uint256,bytes)":"5e90852d","removeAdmin(address)":"1785f53c","revokeSignature(uint256)":"3da1f79a","signTransaction(uint256)":"5d9ec210","signaturesRequired()":"ce757d29"},"id":34}