{"abi":[{"type":"constructor","inputs":[{"name":"_governor","type":"address","internalType":"address"},{"name":"_whitelist","type":"address","internalType":"address"},{"name":"_mediationService","type":"address","internalType":"address"},{"name":"_escrowFactory","type":"address","internalType":"address"},{"name":"_approvedTokens","type":"address[]","internalType":"address[]"}],"stateMutability":"nonpayable"},{"type":"fallback","stateMutability":"payable"},{"type":"receive","stateMutability":"payable"},{"type":"function","name":"APPEAL_PERIOD","inputs":[],"outputs":[{"name":"","type":"uint24","internalType":"uint24"}],"stateMutability":"view"},{"type":"function","name":"CHANGE_ORDER_PERIOD","inputs":[],"outputs":[{"name":"","type":"uint24","internalType":"uint24"}],"stateMutability":"view"},{"type":"function","name":"ESCROW_FACTORY","inputs":[],"outputs":[{"name":"","type":"address","internalType":"contract IEscrowFactory"}],"stateMutability":"view"},{"type":"function","name":"GOVERNOR","inputs":[],"outputs":[{"name":"","type":"address","internalType":"address"}],"stateMutability":"view"},{"type":"function","name":"MEDIATION_SERVICE","inputs":[],"outputs":[{"name":"","type":"address","internalType":"contract IMediationService"}],"stateMutability":"view"},{"type":"function","name":"MINIMUM_TX_FEE","inputs":[],"outputs":[{"name":"","type":"uint256","internalType":"uint256"}],"stateMutability":"view"},{"type":"function","name":"WHITELIST","inputs":[],"outputs":[{"name":"","type":"address","internalType":"contract IWhitelist"}],"stateMutability":"view"},{"type":"function","name":"activateProject","inputs":[{"name":"_projectId","type":"uint256","internalType":"uint256"}],"outputs":[],"stateMutability":"payable"},{"type":"function","name":"activeChangeOrder","inputs":[{"name":"_projectId","type":"uint256","internalType":"uint256"}],"outputs":[{"name":"","type":"bool","internalType":"bool"}],"stateMutability":"view"},{"type":"function","name":"appealDecision","inputs":[{"name":"_projectId","type":"uint256","internalType":"uint256"}],"outputs":[{"name":"","type":"uint256","internalType":"uint256"}],"stateMutability":"nonpayable"},{"type":"function","name":"approveChangeOrder","inputs":[{"name":"_projectId","type":"uint256","internalType":"uint256"}],"outputs":[],"stateMutability":"nonpayable"},{"type":"function","name":"approveProject","inputs":[{"name":"_projectId","type":"uint256","internalType":"uint256"}],"outputs":[],"stateMutability":"nonpayable"},{"type":"function","name":"approveToken","inputs":[{"name":"_erc20","type":"address","internalType":"address"}],"outputs":[],"stateMutability":"nonpayable"},{"type":"function","name":"calculateNebulaiTxFee","inputs":[{"name":"_projectFee","type":"uint256","internalType":"uint256"},{"name":"_paymentToken","type":"address","internalType":"address"}],"outputs":[{"name":"","type":"uint256","internalType":"uint256"}],"stateMutability":"view"},{"type":"function","name":"cancelProject","inputs":[{"name":"_projectId","type":"uint256","internalType":"uint256"}],"outputs":[],"stateMutability":"nonpayable"},{"type":"function","name":"challengeProject","inputs":[{"name":"_projectId","type":"uint256","internalType":"uint256"},{"name":"_adjustedProjectFee","type":"uint256","internalType":"uint256"},{"name":"_providerStakeForfeit","type":"uint256","internalType":"uint256"},{"name":"_changeOrderDetailsURI","type":"string","internalType":"string"}],"outputs":[],"stateMutability":"nonpayable"},{"type":"function","name":"changeOrderIds","inputs":[],"outputs":[{"name":"_value","type":"uint256","internalType":"uint256"}],"stateMutability":"view"},{"type":"function","name":"completeProject","inputs":[{"name":"_projectId","type":"uint256","internalType":"uint256"}],"outputs":[],"stateMutability":"nonpayable"},{"type":"function","name":"createProject","inputs":[{"name":"_provider","type":"address","internalType":"address"},{"name":"_paymentToken","type":"address","internalType":"address"},{"name":"_projectFee","type":"uint256","internalType":"uint256"},{"name":"_providerStake","type":"uint256","internalType":"uint256"},{"name":"_dueDate","type":"uint256","internalType":"uint256"},{"name":"_reviewPeriodLength","type":"uint256","internalType":"uint256"},{"name":"_detailsURI","type":"string","internalType":"string"}],"outputs":[{"name":"","type":"uint256","internalType":"uint256"}],"stateMutability":"payable"},{"type":"function","name":"discontinueProject","inputs":[{"name":"_projectId","type":"uint256","internalType":"uint256"},{"name":"_adjustedProjectFee","type":"uint256","internalType":"uint256"},{"name":"_providerStakeForfeit","type":"uint256","internalType":"uint256"},{"name":"_changeOrderDetailsURI","type":"string","internalType":"string"}],"outputs":[],"stateMutability":"nonpayable"},{"type":"function","name":"disputeProject","inputs":[{"name":"_projectId","type":"uint256","internalType":"uint256"},{"name":"_adjustedProjectFee","type":"uint256","internalType":"uint256"},{"name":"_providerStakeForfeit","type":"uint256","internalType":"uint256"}],"outputs":[{"name":"","type":"uint256","internalType":"uint256"}],"stateMutability":"nonpayable"},{"type":"function","name":"erc20Tokens","inputs":[{"name":"","type":"uint256","internalType":"uint256"}],"outputs":[{"name":"","type":"address","internalType":"address"}],"stateMutability":"view"},{"type":"function","name":"escrowWithdrawnEvent","inputs":[{"name":"_projectId","type":"uint256","internalType":"uint256"},{"name":"_user","type":"address","internalType":"address"},{"name":"_amount","type":"uint256","internalType":"uint256"},{"name":"_commissionPaid","type":"uint256","internalType":"uint256"}],"outputs":[],"stateMutability":"nonpayable"},{"type":"function","name":"getActiveChangeOrder","inputs":[{"name":"_projectId","type":"uint256","internalType":"uint256"}],"outputs":[{"name":"","type":"tuple","internalType":"struct DataStructuresLibrary.ChangeOrder","components":[{"name":"changeOrderId","type":"uint256","internalType":"uint256"},{"name":"projectId","type":"uint256","internalType":"uint256"},{"name":"dateProposed","type":"uint256","internalType":"uint256"},{"name":"proposedBy","type":"address","internalType":"address"},{"name":"adjustedProjectFee","type":"uint256","internalType":"uint256"},{"name":"providerStakeForfeit","type":"uint256","internalType":"uint256"},{"name":"active","type":"bool","internalType":"bool"},{"name":"buyerApproval","type":"bool","internalType":"bool"},{"name":"providerApproval","type":"bool","internalType":"bool"},{"name":"detailsURI","type":"string","internalType":"string"}]}],"stateMutability":"view"},{"type":"function","name":"getChangeOrders","inputs":[{"name":"_projectId","type":"uint256","internalType":"uint256"}],"outputs":[{"name":"","type":"tuple[]","internalType":"struct DataStructuresLibrary.ChangeOrder[]","components":[{"name":"changeOrderId","type":"uint256","internalType":"uint256"},{"name":"projectId","type":"uint256","internalType":"uint256"},{"name":"dateProposed","type":"uint256","internalType":"uint256"},{"name":"proposedBy","type":"address","internalType":"address"},{"name":"adjustedProjectFee","type":"uint256","internalType":"uint256"},{"name":"providerStakeForfeit","type":"uint256","internalType":"uint256"},{"name":"active","type":"bool","internalType":"bool"},{"name":"buyerApproval","type":"bool","internalType":"bool"},{"name":"providerApproval","type":"bool","internalType":"bool"},{"name":"detailsURI","type":"string","internalType":"string"}]}],"stateMutability":"view"},{"type":"function","name":"getCommissionFees","inputs":[{"name":"_paymentToken","type":"address","internalType":"address"}],"outputs":[{"name":"","type":"uint256","internalType":"uint256"}],"stateMutability":"view"},{"type":"function","name":"getDisputeId","inputs":[{"name":"projectId","type":"uint256","internalType":"uint256"}],"outputs":[{"name":"","type":"uint256","internalType":"uint256"}],"stateMutability":"view"},{"type":"function","name":"getErc20Tokens","inputs":[],"outputs":[{"name":"","type":"address[]","internalType":"address[]"}],"stateMutability":"view"},{"type":"function","name":"getProject","inputs":[{"name":"_projectId","type":"uint256","internalType":"uint256"}],"outputs":[{"name":"","type":"tuple","internalType":"struct DataStructuresLibrary.Project","components":[{"name":"projectId","type":"uint256","internalType":"uint256"},{"name":"buyer","type":"address","internalType":"address"},{"name":"provider","type":"address","internalType":"address"},{"name":"escrow","type":"address","internalType":"address"},{"name":"paymentToken","type":"address","internalType":"address"},{"name":"projectFee","type":"uint256","internalType":"uint256"},{"name":"providerStake","type":"uint256","internalType":"uint256"},{"name":"dueDate","type":"uint256","internalType":"uint256"},{"name":"reviewPeriodLength","type":"uint256","internalType":"uint256"},{"name":"dateCompleted","type":"uint256","internalType":"uint256"},{"name":"changeOrderPeriodInitiated","type":"uint256","internalType":"uint256"},{"name":"nebulaiTxFee","type":"uint256","internalType":"uint256"},{"name":"status","type":"uint8","internalType":"enum DataStructuresLibrary.Status"},{"name":"detailsURI","type":"string","internalType":"string"}]}],"stateMutability":"view"},{"type":"function","name":"getProjectStatus","inputs":[{"name":"_projectId","type":"uint256","internalType":"uint256"}],"outputs":[{"name":"","type":"uint8","internalType":"enum DataStructuresLibrary.Status"}],"stateMutability":"view"},{"type":"function","name":"getTxFeesHeld","inputs":[{"name":"_projectId","type":"uint256","internalType":"uint256"}],"outputs":[{"name":"","type":"uint256","internalType":"uint256"}],"stateMutability":"view"},{"type":"function","name":"getTxFeesPaid","inputs":[{"name":"_paymentToken","type":"address","internalType":"address"}],"outputs":[{"name":"","type":"uint256","internalType":"uint256"}],"stateMutability":"view"},{"type":"function","name":"isApprovedToken","inputs":[{"name":"","type":"address","internalType":"address"}],"outputs":[{"name":"","type":"bool","internalType":"bool"}],"stateMutability":"view"},{"type":"function","name":"isDisputed","inputs":[{"name":"_projectId","type":"uint256","internalType":"uint256"}],"outputs":[{"name":"","type":"bool","internalType":"bool"}],"stateMutability":"view"},{"type":"function","name":"nebulaiTxFee","inputs":[],"outputs":[{"name":"","type":"uint256","internalType":"uint256"}],"stateMutability":"view"},{"type":"function","name":"projectIds","inputs":[],"outputs":[{"name":"_value","type":"uint256","internalType":"uint256"}],"stateMutability":"view"},{"type":"function","name":"proposeSettlement","inputs":[{"name":"_projectId","type":"uint256","internalType":"uint256"},{"name":"_adjustedProjectFee","type":"uint256","internalType":"uint256"},{"name":"_providerStakeForfeit","type":"uint256","internalType":"uint256"},{"name":"_settlementDetailsURI","type":"string","internalType":"string"}],"outputs":[],"stateMutability":"nonpayable"},{"type":"function","name":"receiveCommission","inputs":[{"name":"_projectId","type":"uint256","internalType":"uint256"},{"name":"_commission","type":"uint256","internalType":"uint256"}],"outputs":[],"stateMutability":"nonpayable"},{"type":"function","name":"removeToken","inputs":[{"name":"_erc20","type":"address","internalType":"address"}],"outputs":[],"stateMutability":"nonpayable"},{"type":"function","name":"resolveByMediation","inputs":[{"name":"_projectId","type":"uint256","internalType":"uint256"}],"outputs":[],"stateMutability":"nonpayable"},{"type":"function","name":"resolveDismissedCase","inputs":[{"name":"_projectId","type":"uint256","internalType":"uint256"}],"outputs":[],"stateMutability":"nonpayable"},{"type":"function","name":"reviewOverdue","inputs":[{"name":"_projectId","type":"uint256","internalType":"uint256"}],"outputs":[],"stateMutability":"nonpayable"},{"type":"function","name":"setNebulaiTxFee","inputs":[{"name":"_feePercentage","type":"uint256","internalType":"uint256"}],"outputs":[],"stateMutability":"nonpayable"},{"type":"function","name":"waiveAppeal","inputs":[{"name":"_projectId","type":"uint256","internalType":"uint256"}],"outputs":[],"stateMutability":"nonpayable"},{"type":"function","name":"withdrawFees","inputs":[{"name":"_recipient","type":"address","internalType":"address"}],"outputs":[],"stateMutability":"nonpayable"},{"type":"event","name":"ChangeOrderApproved","inputs":[{"name":"projectId","type":"uint256","indexed":true,"internalType":"uint256"},{"name":"buyer","type":"address","indexed":true,"internalType":"address"},{"name":"provider","type":"address","indexed":true,"internalType":"address"}],"anonymous":false},{"type":"event","name":"ChangeOrderProposed","inputs":[{"name":"projectId","type":"uint256","indexed":true,"internalType":"uint256"}],"anonymous":false},{"type":"event","name":"ChangeOrderRetracted","inputs":[{"name":"projectId","type":"uint256","indexed":true,"internalType":"uint256"},{"name":"retractedBy","type":"address","indexed":true,"internalType":"address"}],"anonymous":false},{"type":"event","name":"CommissionFeeReceived","inputs":[{"name":"projectId","type":"uint256","indexed":true,"internalType":"uint256"},{"name":"commissionAmount","type":"uint256","indexed":false,"internalType":"uint256"},{"name":"paymentToken","type":"address","indexed":false,"internalType":"address"}],"anonymous":false},{"type":"event","name":"ERC20Approved","inputs":[{"name":"token","type":"address","indexed":false,"internalType":"address"}],"anonymous":false},{"type":"event","name":"ERC20Removed","inputs":[{"name":"token","type":"address","indexed":false,"internalType":"address"}],"anonymous":false},{"type":"event","name":"EscrowWithdrawn","inputs":[{"name":"projectId","type":"uint256","indexed":true,"internalType":"uint256"},{"name":"user","type":"address","indexed":true,"internalType":"address"},{"name":"escrow","type":"address","indexed":true,"internalType":"address"},{"name":"amount","type":"uint256","indexed":false,"internalType":"uint256"},{"name":"commissionFeePaid","type":"uint256","indexed":false,"internalType":"uint256"}],"anonymous":false},{"type":"event","name":"FeesWithdrawnERC20","inputs":[{"name":"recipient","type":"address","indexed":false,"internalType":"address"},{"name":"token","type":"address","indexed":false,"internalType":"address"},{"name":"amount","type":"uint256","indexed":false,"internalType":"uint256"}],"anonymous":false},{"type":"event","name":"FeesWithdrawnNative","inputs":[{"name":"recipient","type":"address","indexed":false,"internalType":"address"},{"name":"amount","type":"uint256","indexed":false,"internalType":"uint256"}],"anonymous":false},{"type":"event","name":"NebulaiTxFeeChanged","inputs":[{"name":"txFee","type":"uint256","indexed":false,"internalType":"uint256"}],"anonymous":false},{"type":"event","name":"ProjectActivated","inputs":[{"name":"projectId","type":"uint256","indexed":true,"internalType":"uint256"},{"name":"buyer","type":"address","indexed":true,"internalType":"address"},{"name":"provider","type":"address","indexed":true,"internalType":"address"}],"anonymous":false},{"type":"event","name":"ProjectAppealed","inputs":[{"name":"projectId","type":"uint256","indexed":true,"internalType":"uint256"},{"name":"disputeId","type":"uint256","indexed":true,"internalType":"uint256"},{"name":"appealedBy","type":"address","indexed":false,"internalType":"address"}],"anonymous":false},{"type":"event","name":"ProjectApproved","inputs":[{"name":"projectId","type":"uint256","indexed":true,"internalType":"uint256"},{"name":"buyer","type":"address","indexed":true,"internalType":"address"},{"name":"provider","type":"address","indexed":true,"internalType":"address"}],"anonymous":false},{"type":"event","name":"ProjectCancelled","inputs":[{"name":"projectId","type":"uint256","indexed":true,"internalType":"uint256"},{"name":"buyer","type":"address","indexed":true,"internalType":"address"},{"name":"provider","type":"address","indexed":true,"internalType":"address"}],"anonymous":false},{"type":"event","name":"ProjectChallenged","inputs":[{"name":"projectId","type":"uint256","indexed":true,"internalType":"uint256"},{"name":"buyer","type":"address","indexed":true,"internalType":"address"},{"name":"provider","type":"address","indexed":true,"internalType":"address"}],"anonymous":false},{"type":"event","name":"ProjectCompleted","inputs":[{"name":"projectId","type":"uint256","indexed":true,"internalType":"uint256"},{"name":"buyer","type":"address","indexed":true,"internalType":"address"},{"name":"provider","type":"address","indexed":true,"internalType":"address"}],"anonymous":false},{"type":"event","name":"ProjectCreated","inputs":[{"name":"projectId","type":"uint256","indexed":true,"internalType":"uint256"},{"name":"buyer","type":"address","indexed":true,"internalType":"address"},{"name":"provider","type":"address","indexed":true,"internalType":"address"}],"anonymous":false},{"type":"event","name":"ProjectDiscontinued","inputs":[{"name":"projectId","type":"uint256","indexed":true,"internalType":"uint256"},{"name":"buyer","type":"address","indexed":true,"internalType":"address"},{"name":"provider","type":"address","indexed":true,"internalType":"address"}],"anonymous":false},{"type":"event","name":"ProjectDisputed","inputs":[{"name":"projectId","type":"uint256","indexed":true,"internalType":"uint256"},{"name":"buyer","type":"address","indexed":true,"internalType":"address"},{"name":"provider","type":"address","indexed":true,"internalType":"address"},{"name":"disputeId","type":"uint256","indexed":false,"internalType":"uint256"}],"anonymous":false},{"type":"event","name":"ResolvedByDismissedCase","inputs":[{"name":"projectId","type":"uint256","indexed":true,"internalType":"uint256"},{"name":"disputeId","type":"uint256","indexed":true,"internalType":"uint256"}],"anonymous":false},{"type":"event","name":"ResolvedByMediation","inputs":[{"name":"projectId","type":"uint256","indexed":true,"internalType":"uint256"},{"name":"disputeId","type":"uint256","indexed":true,"internalType":"uint256"}],"anonymous":false},{"type":"event","name":"ReviewOverdue","inputs":[{"name":"projectId","type":"uint256","indexed":true,"internalType":"uint256"},{"name":"buyer","type":"address","indexed":true,"internalType":"address"},{"name":"provider","type":"address","indexed":true,"internalType":"address"}],"anonymous":false},{"type":"event","name":"SettlementProposed","inputs":[{"name":"projectId","type":"uint256","indexed":true,"internalType":"uint256"},{"name":"disputeId","type":"uint256","indexed":true,"internalType":"uint256"}],"anonymous":false},{"type":"error","name":"Marketplace__AdjustedFeeExceedsProjectFee","inputs":[]},{"type":"error","name":"Marketplace__AlreadyApprovedChangeOrder","inputs":[]},{"type":"error","name":"Marketplace__AppealPeriodNotOver","inputs":[]},{"type":"error","name":"Marketplace__AppealPeriodOver","inputs":[]},{"type":"error","name":"Marketplace__ChangeOrderAlreadyExists","inputs":[]},{"type":"error","name":"Marketplace__ChangeOrderCannotBeProposed","inputs":[]},{"type":"error","name":"Marketplace__ChangeOrderNotValid","inputs":[]},{"type":"error","name":"Marketplace__ChangeOrderPeriodStillActive","inputs":[]},{"type":"error","name":"Marketplace__CommissionMustBePaidByEscrow","inputs":[]},{"type":"error","name":"Marketplace__EscrowWithdrawError","inputs":[]},{"type":"error","name":"Marketplace__ForfeitExceedsProviderStake","inputs":[]},{"type":"error","name":"Marketplace__InsufficientAmount","inputs":[]},{"type":"error","name":"Marketplace__InsufficientApproval","inputs":[]},{"type":"error","name":"Marketplace__InvalidDueDate","inputs":[]},{"type":"error","name":"Marketplace__InvalidProviderAddress","inputs":[]},{"type":"error","name":"Marketplace__InvalidReviewPeriodLength","inputs":[]},{"type":"error","name":"Marketplace__InvalidSettlement","inputs":[]},{"type":"error","name":"Marketplace__MediationServiceCaseAlreadyInitiated","inputs":[]},{"type":"error","name":"Marketplace__MediationServiceHasNotDismissedCase","inputs":[]},{"type":"error","name":"Marketplace__MediationServiceHasNotRuled","inputs":[]},{"type":"error","name":"Marketplace__NativeCurrencySent","inputs":[]},{"type":"error","name":"Marketplace__NoActiveChangeOrder","inputs":[]},{"type":"error","name":"Marketplace__OnlyBuyer","inputs":[]},{"type":"error","name":"Marketplace__OnlyBuyerOrProvider","inputs":[]},{"type":"error","name":"Marketplace__OnlyGovernor","inputs":[]},{"type":"error","name":"Marketplace__OnlyNonPrevailingParty","inputs":[]},{"type":"error","name":"Marketplace__OnlyProvider","inputs":[]},{"type":"error","name":"Marketplace__OnlyUser","inputs":[]},{"type":"error","name":"Marketplace__ProjectCannotBeActivated","inputs":[]},{"type":"error","name":"Marketplace__ProjectCannotBeCancelled","inputs":[]},{"type":"error","name":"Marketplace__ProjectCannotBeChallenged","inputs":[]},{"type":"error","name":"Marketplace__ProjectCannotBeDisputed","inputs":[]},{"type":"error","name":"Marketplace__ProjectIsNotDisputed","inputs":[]},{"type":"error","name":"Marketplace__ProjectIsNotOverdue","inputs":[]},{"type":"error","name":"Marketplace__ProjectMustBeActive","inputs":[]},{"type":"error","name":"Marketplace__ProjectNotCompleted","inputs":[]},{"type":"error","name":"Marketplace__ProjectReviewPeriodEnded","inputs":[]},{"type":"error","name":"Marketplace__ReviewNotOverdue","inputs":[]},{"type":"error","name":"Marketplace__TransferFailed","inputs":[]},{"type":"error","name":"Marketplace__UnapprovedToken","inputs":[]}],"bytecode":{"object":"0x61010060405260036002553480156200001757600080fd5b506040516200508d3803806200508d8339810160408190526200003a9162000140565b6001600160a01b0380861660805284811660a05283811660c052821660e05260005b81518110156200009c57620000938282815181106200007f576200007f62000260565b6020026020010151620000a860201b60201c565b6001016200005c565b50505050505062000276565b60008054600181810183557f290decd9548b62a8d60345a988386fc84ba6bc95484008f6362f93160ef3e56390910180546001600160a01b039094166001600160a01b031990941684179055918152602082905260409020805460ff19169091179055565b80516001600160a01b03811681146200012557600080fd5b919050565b634e487b7160e01b600052604160045260246000fd5b600080600080600060a086880312156200015957600080fd5b62000164866200010d565b94506020620001758188016200010d565b945062000185604088016200010d565b935062000195606088016200010d565b60808801519093506001600160401b0380821115620001b357600080fd5b818901915089601f830112620001c857600080fd5b815181811115620001dd57620001dd6200012a565b8060051b604051601f19603f830116810181811085821117156200020557620002056200012a565b60405291825284820192508381018501918c8311156200022457600080fd5b938501935b828510156200024d576200023d856200010d565b8452938501939285019262000229565b8096505050505050509295509295909350565b634e487b7160e01b600052603260045260246000fd5b60805160a05160c05160e051614d66620003276000396000818161072c0152610a780152600081816106d801528181610ab2015281816110c00152818161231e01528181612431015281816125a701528181612ca301528181613200015281816133b301528181613a2d0152613af601526000818161032a015281816108e0015261191801526000818161055f0152818161123801528181611ef1015281816126d6015261297a0152614d666000f3fe60806040526004361061025e5760003560e01c8063792d5f9e11610143578063be20c1cb116100bb578063e17640f411610077578063e17640f4146107ee578063e93e6c011461080e578063ec8d435a1461082e578063f0f3f2c81461085b578063f293abb014610888578063fc69d836146108a857005b8063be20c1cb1461071a578063c61bc0231461074e578063d7d3a7f51461076e578063d82f35301461078e578063da2325c8146107ae578063de708b7e146107ce57005b80638aea71fd1161010a5780638aea71fd1461064457806394280aaa146106595780639675c00914610679578063a76792cb146106a6578063aa42f726146106c6578063b8e3e04f146106fa57005b8063792d5f9e146105a15780637ccc586e146105c157806380b2edd8146105e157806389e79db6146106015780638a94ddd91461061757005b806341544a82116101d657806360fcc0271161019d57806360fcc027146104de5780636a53da77146104fe5780636b67c89f146102ed5780636d0365351461052b5780636dc0ae221461054d578063727109a21461058157005b806341544a821461043157806345f5c3cb146104445780635990419b146104715780635ce15f37146104885780635fa7b584146104be57005b80631bb7cc99116102255780631bb7cc99146103185780632245f1521461036457806324941147146103845780632d5ad3d5146103a457806330cc6aff146103e4578063369556c01461041a57005b80630cee1965146102675780630e01129f1461028d57806315415dc8146102ad578063164e68de146102cd5780631b4ee539146102ed57005b3661026557005b005b61027a610275366004614161565b6108c8565b6040519081526020015b60405180910390f35b34801561029957600080fd5b506102656102a83660046141ea565b610fb7565b3480156102b957600080fd5b506102656102c8366004614227565b611051565b3480156102d957600080fd5b506102656102e8366004614240565b61122d565b3480156102f957600080fd5b5061030462093a8081565b60405162ffffff9091168152602001610284565b34801561032457600080fd5b5061034c7f000000000000000000000000000000000000000000000000000000000000000081565b6040516001600160a01b039091168152602001610284565b34801561037057600080fd5b5061026561037f366004614227565b61161c565b34801561039057600080fd5b5061026561039f366004614227565b6116ee565b3480156103b057600080fd5b506103d46103bf366004614240565b60016020526000908152604090205460ff1681565b6040519015158152602001610284565b3480156103f057600080fd5b5061027a6103ff366004614240565b6001600160a01b031660009081526005602052604090205490565b34801561042657600080fd5b5060085461027a9081565b61026561043f366004614227565b611903565b34801561045057600080fd5b5061046461045f366004614227565b611d69565b6040516102849190614358565b34801561047d57600080fd5b5060065461027a9081565b34801561049457600080fd5b5061027a6104a3366004614240565b6001600160a01b031660009081526004602052604090205490565b3480156104ca57600080fd5b506102656104d9366004614240565b611ee6565b3480156104ea57600080fd5b506102656104f9366004614227565b611f87565b34801561050a57600080fd5b5061027a610519366004614227565b6000908152600a602052604090205490565b34801561053757600080fd5b50610540612207565b60405161028491906143bc565b34801561055957600080fd5b5061034c7f000000000000000000000000000000000000000000000000000000000000000081565b34801561058d57600080fd5b5061027a61059c366004614227565b612269565b3480156105ad57600080fd5b506102656105bc366004614227565b6124f2565b3480156105cd57600080fd5b506103d46105dc366004614227565b612699565b3480156105ed57600080fd5b506102656105fc366004614240565b6126cb565b34801561060d57600080fd5b5061027a60025481565b34801561062357600080fd5b5061027a610632366004614227565b60009081526003602052604090205490565b34801561065057600080fd5b5061027a600381565b34801561066557600080fd5b50610265610674366004614409565b6127af565b34801561068557600080fd5b50610699610694366004614227565b612957565b604051610284919061449b565b3480156106b257600080fd5b506102656106c1366004614227565b61296f565b3480156106d257600080fd5b5061034c7f000000000000000000000000000000000000000000000000000000000000000081565b34801561070657600080fd5b50610265610715366004614409565b612a06565b34801561072657600080fd5b5061034c7f000000000000000000000000000000000000000000000000000000000000000081565b34801561075a57600080fd5b5061027a6107693660046144a9565b612b02565b34801561077a57600080fd5b506102656107893660046144d5565b612e26565b34801561079a57600080fd5b506102656107a9366004614227565b612eee565b3480156107ba57600080fd5b506102656107c9366004614409565b612fd8565b3480156107da57600080fd5b506102656107e9366004614227565b6132fe565b3480156107fa57600080fd5b5061034c610809366004614227565b613507565b34801561081a57600080fd5b5061027a6108293660046144f7565b613531565b34801561083a57600080fd5b5061084e610849366004614227565b613605565b6040516102849190614527565b34801561086757600080fd5b5061087b610876366004614227565b6137ea565b604051610284919061453a565b34801561089457600080fd5b506103d46108a3366004614227565b6138de565b3480156108b457600080fd5b506102656108c3366004614227565b61393b565b60405163673448dd60e01b81523360048201526000907f00000000000000000000000000000000000000000000000000000000000000006001600160a01b03169063673448dd906024016020604051808303816000875af1158015610931573d6000803e3d6000fd5b505050506040513d601f19601f820116820180604052508101906109559190614645565b61097257604051631245843960e11b815260040160405180910390fd5b6001600160a01b03881633148061099057506001600160a01b038816155b156109ae57604051630e1a07f960e41b815260040160405180910390fd5b428410806109c857506109c5426301e13380614676565b84115b156109e65760405163a06f135560e01b815260040160405180910390fd5b62278d00831115610a0a5760405163efc1cd9d60e01b815260040160405180910390fd5b6000610a168789613531565b9050610a26600680546001019055565b610a2e613df0565b6006548160000181815250503381602001906001600160a01b031690816001600160a01b0316815250508981604001906001600160a01b031690816001600160a01b0316815250507f00000000000000000000000000000000000000000000000000000000000000006001600160a01b0316632492ca0e308360000151338e8e8e8e7f00000000000000000000000000000000000000000000000000000000000000008d6040518a63ffffffff1660e01b8152600401610af699989796959493929190614689565b6020604051808303816000875af1158015610b15573d6000803e3d6000fd5b505050506040513d601f19601f82011682018060405250810190610b3991906146ff565b6001600160a01b03908116606083019081528a82166080840190815260c084018a815260e085018a815261010086018a815261016087018881526101a088018b905260a088018f8152885160009081526003602081815260408084208e90558c5184526007808352938190208d518155918d015160018084018054928f166001600160a01b0319938416179055918e0151600284018054918f169183169190911790559a519282018054938d16938c1693909317909255975160048901805491909b1699169890981790985551600586015592516006850155905194830194909455925160088201556101208401516009820155610140840151600a8201559151600b830155610180830151600c8084018054869594919260ff199190911691908490811115610c6b57610c6b614463565b02179055506101a0820151600d820190610c8590826147a3565b5050506001600160a01b03891615610eb8576001600160a01b03891660009081526001602052604090205460ff16610cd0576040516350d96e4160e01b815260040160405180910390fd5b610cda8883614676565b604051636eb1769f60e11b81523360048201523060248201526001600160a01b038b169063dd62ed3e90604401602060405180830381865afa158015610d24573d6000803e3d6000fd5b505050506040513d601f19601f82011682018060405250810190610d489190614863565b1015610d6757604051631e8d55b560e01b815260040160405180910390fd5b3415610d865760405163f7ca14b760e01b815260040160405180910390fd5b6040516323b872dd60e01b81526000906001600160a01b038b16906323b872dd90610db99033903090889060040161487c565b6020604051808303816000875af1158015610dd8573d6000803e3d6000fd5b505050506040513d601f19601f82011682018060405250810190610dfc9190614645565b905080610e1c57604051633a06d36960e01b815260040160405180910390fd5b60608201516040516323b872dd60e01b81526001600160a01b038c16916323b872dd91610e4f9133918e9060040161487c565b6020604051808303816000875af1158015610e6e573d6000803e3d6000fd5b505050506040513d601f19601f82011682018060405250810190610e929190614645565b905080610eb257604051633a06d36960e01b815260040160405180910390fd5b50610f5c565b610ec28883614676565b341015610ee25760405163438015f160e11b815260040160405180910390fd5b600081606001516001600160a01b03168960405160006040518083038185875af1925050503d8060008114610f33576040519150601f19603f3d011682016040523d82523d6000602084013e610f38565b606091505b5050905080610f5a57604051633a06d36960e01b815260040160405180910390fd5b505b80604001516001600160a01b031681602001516001600160a01b031682600001517f89d08535246e9977769e1f3a9c7b5cf99c9ea6c5c7362972d02f1d0598fba5e060405160405180910390a4519998505050505050505050565b6000610fc2856137ea565b905080606001516001600160a01b0316336001600160a01b031614610ffa576040516355177e0560e11b815260040160405180910390fd5b6060810151815160408051868152602081018690526001600160a01b0393841693881692917f02799480a46b2e9fb3a9bd1b9c4b96a0db67c1e2fab22b72ad91ca98563ea841910160405180910390a45050505050565b600081815260076020819052604090912090600c8083015460ff169081111561107c5761107c614463565b1461109a57604051630deed35960e21b815260040160405180910390fd5b6000828152600a602052604080822054905163e3a96cbd60e01b815260048101919091527f00000000000000000000000000000000000000000000000000000000000000006001600160a01b03169063e3a96cbd90602401600060405180830381865afa15801561110f573d6000803e3d6000fd5b505050506040513d6000823e601f3d908101601f19168201604052611137919081019061498a565b90506004816102000151600781111561115257611152614463565b1461117057604051630cca7d0960e01b815260040160405180910390fd5b806101e00151156111b6578060a001516001600160a01b0316336001600160a01b0316146111b15760405163730ff49760e01b815260040160405180910390fd5b6111ec565b80608001516001600160a01b0316336001600160a01b0316146111ec5760405163730ff49760e01b815260040160405180910390fd5b600c8201805460ff1916600a179055805182546040517f09c577c71ccc4cc75823eaa7c16ca5cbb309ba4f1ad490dbc980eff950abcba190600090a3505050565b336001600160a01b037f000000000000000000000000000000000000000000000000000000000000000016146112765760405163463a803d60e01b815260040160405180910390fd5b60005b6000548110156114af5760006005600080848154811061129b5761129b614ae0565b60009182526020808320909101546001600160a01b03168352820192909252604001812054815490916004918190869081106112d9576112d9614ae0565b60009182526020808320909101546001600160a01b031683528201929092526040019020546113089190614676565b905060006004600080858154811061132257611322614ae0565b60009182526020808320909101546001600160a01b031683528201929092526040018120919091558054600590829081908690811061136357611363614ae0565b60009182526020808320909101546001600160a01b0316835282019290925260400190205580156114a65760008083815481106113a2576113a2614ae0565b60009182526020909120015460405163a9059cbb60e01b81526001600160a01b038681166004830152602482018590529091169063a9059cbb906044016020604051808303816000875af11580156113fe573d6000803e3d6000fd5b505050506040513d601f19601f820116820180604052508101906114229190614645565b90508061144257604051633a06d36960e01b815260040160405180910390fd5b7fdd4710e017d20a52587aa28f802f63ad6cc41763aa84044be2fa4fb7d5535484846000858154811061147757611477614ae0565b60009182526020909120015460405161149c92916001600160a01b031690869061487c565b60405180910390a1505b50600101611279565b5060008080527f05b8ccbb9d4d8fb16ea74ce3c29a41f1b461fbdaff4714a0d9a8eb05499746bc5460046020527f17ef568e3e12ab5b9c7254a8d58478811de00f9e6eb34345acd53bf8fd09d3ec546115089190614676565b60008080527f17ef568e3e12ab5b9c7254a8d58478811de00f9e6eb34345acd53bf8fd09d3ec81905560056020527f05b8ccbb9d4d8fb16ea74ce3c29a41f1b461fbdaff4714a0d9a8eb05499746bc55905080156115d6576000826001600160a01b03168260405160006040518083038185875af1925050503d80600081146115ad576040519150601f19603f3d011682016040523d82523d6000602084013e6115b2565b606091505b50509050806115d457604051633a06d36960e01b815260040160405180910390fd5b505b604080516001600160a01b0384168152602081018390527f73f0bb5db87837ce5b08452b01ea465f1a90a2a99afc45d1a4f1d47ffb2d7d23910160405180910390a15050565b600081815260076020526040902060028101546001600160a01b031633146116575760405163f670cea160e01b815260040160405180910390fd5b6002600c8083015460ff169081111561167257611672614463565b1461169057604051630cd9cd6b60e41b815260040160405180910390fd5b600c8101805460ff191660041790554260098201556002810154600182015482546040516001600160a01b0393841693909216917ffbe48c274fc830d76ec1c5737a76be1b30e8bd4abcb89f41835e231728a603cd90600090a45050565b600081815260076020526040902060018101546001600160a01b03163314611729576040516324f7ca9f60e01b815260040160405180910390fd5b6000600c8083015460ff169081111561174457611744614463565b1461176257604051635667b32960e11b815260040160405180910390fd5b60008281526003602052604081208054600c8401805460ff1916600117905581549092839291611793908490614af6565b909155505060048201546001600160a01b03161561184e5760048281015460405163a9059cbb60e01b81523392810192909252602482018390526000916001600160a01b039091169063a9059cbb906044016020604051808303816000875af1158015611804573d6000803e3d6000fd5b505050506040513d601f19601f820116820180604052508101906118289190614645565b90508061184857604051633a06d36960e01b815260040160405180910390fd5b506118b9565b604051600090339083908381818185875af1925050503d8060008114611890576040519150601f19603f3d011682016040523d82523d6000602084013e611895565b606091505b50509050806118b757604051633a06d36960e01b815260040160405180910390fd5b505b600282015460018301546040516001600160a01b03928316929091169085907fc84a323869aef99db06452008996ec94817140f29a3212b6b4037e07abb2856b90600090a4505050565b60405163673448dd60e01b81523360048201527f00000000000000000000000000000000000000000000000000000000000000006001600160a01b03169063673448dd906024016020604051808303816000875af1158015611969573d6000803e3d6000fd5b505050506040513d601f19601f8201168201806040525081019061198d9190614645565b6119aa57604051631245843960e11b815260040160405180910390fd5b600081815260076020526040902060028101546001600160a01b031633146119e55760405163f670cea160e01b815260040160405180910390fd5b6000600c8083015460ff1690811115611a0057611a00614463565b14611a1e5760405163b8ab625b60e01b815260040160405180910390fd5b6000828152600360209081526040808320546004858101546001600160a01b031685529092528220805491929091611a57908490614676565b9091555050600082815260036020526040812055600c8101805460ff19166002179055600681015415611c9c5760048101546001600160a01b031615611bfb576006810154600480830154604051636eb1769f60e11b815233928101929092523060248301526001600160a01b03169063dd62ed3e90604401602060405180830381865afa158015611aed573d6000803e3d6000fd5b505050506040513d601f19601f82011682018060405250810190611b119190614863565b1015611b3057604051631e8d55b560e01b815260040160405180910390fd5b3415611b4f5760405163f7ca14b760e01b815260040160405180910390fd5b600480820154600383015460068401546040516323b872dd60e01b81526000946001600160a01b03948516946323b872dd94611b9294339491909216920161487c565b6020604051808303816000875af1158015611bb1573d6000803e3d6000fd5b505050506040513d601f19601f82011682018060405250810190611bd59190614645565b905080611bf557604051633a06d36960e01b815260040160405180910390fd5b50611c9c565b8060060154341015611c205760405163438015f160e11b815260040160405180910390fd5b600381015460068201546040516000926001600160a01b031691908381818185875af1925050503d8060008114611c73576040519150601f19603f3d011682016040523d82523d6000602084013e611c78565b606091505b5050905080611c9a57604051633a06d36960e01b815260040160405180910390fd5b505b8060030160009054906101000a90046001600160a01b03166001600160a01b031663cbaaabdc6040518163ffffffff1660e01b81526004016020604051808303816000875af1158015611cf3573d6000803e3d6000fd5b505050506040513d601f19601f82011682018060405250810190611d179190614645565b611d2057600080fd5b600281015460018201546040516001600160a01b03928316929091169084907fd1fc106fdba12b6c639ca9f0001c49fe68c1b701a777d564018c99f7193eb3bd90600090a45050565b606060096000838152602001908152602001600020805480602002602001604051908101604052809291908181526020016000905b82821015611edb5760008481526020908190206040805161014081018252600886029092018054835260018101549383019390935260028301549082015260038201546001600160a01b0316606082015260048201546080820152600582015460a0820152600682015460ff808216151560c08401526101008083048216151560e0850152620100009092041615159082015260078201805491929161012084019190611e4a9061471c565b80601f0160208091040260200160405190810160405280929190818152602001828054611e769061471c565b8015611ec35780601f10611e9857610100808354040283529160200191611ec3565b820191906000526020600020905b815481529060010190602001808311611ea657829003601f168201915b50505050508152505081526020019060010190611d9e565b505050509050919050565b336001600160a01b037f00000000000000000000000000000000000000000000000000000000000000001614611f2f5760405163463a803d60e01b815260040160405180910390fd5b6001600160a01b038116600081815260016020908152604091829020805460ff1916905590519182527ff3f339312eadf076716643b0d29a97871056e9b21dc50fac35a10231ef5d087991015b60405180910390a150565b611f90816138de565b611fad5760405163725b1e9960e01b815260040160405180910390fd5b600081815260076020526040902060018101546001600160a01b03163314801590611fe5575060028101546001600160a01b03163314155b156120035760405163f2a9eb0f60e01b815260040160405180910390fd5b6003600c8083015460ff169081111561201e5761201e614463565b1415801561204557506006600c8083015460ff169081111561204257612042614463565b14155b801561206a57506007600c8083015460ff169081111561206757612067614463565b14155b156120885760405163a6b04c9b60e01b815260040160405180910390fd5b600082815260096020526040812080546120a490600190614af6565b815481106120b4576120b4614ae0565b60009182526020909120600184015460089092020191506001600160a01b0316331480156120eb57506006810154610100900460ff165b80612117575060028201546001600160a01b0316331480156121175750600681015462010000900460ff165b15612135576040516330a4953f60e11b815260040160405180910390fd5b60018201546001600160a01b0316330361215b5760068101805461ff0019166101001790555b60028201546001600160a01b031633036121835760068101805462ff00001916620100001790555b6007600c8084015460ff169081111561219e5761219e614463565b036121ae5781546121ae90613a07565b600c8201805460ff191660091790556002820154600183015483546040516001600160a01b0393841693909216917f305f076945eb1d9c44667df6d95693b375032a831dd88c0d5f6acdde6493ee5090600090a4505050565b6060600080548060200260200160405190810160405280929190818152602001828054801561225f57602002820191906000526020600020905b81546001600160a01b03168152600190910190602001808311612241575b5050505050905090565b600081815260076020526040812060018101546001600160a01b031633148015906122a1575060028101546001600160a01b03163314155b156122bf5760405163f2a9eb0f60e01b815260040160405180910390fd5b6007600c8083015460ff16908111156122da576122da614463565b146122f857604051630deed35960e21b815260040160405180910390fd5b6000838152600a602052604080822054905163e3a96cbd60e01b815260048101919091527f00000000000000000000000000000000000000000000000000000000000000006001600160a01b03169063e3a96cbd90602401600060405180830381865afa15801561236d573d6000803e3d6000fd5b505050506040513d6000823e601f3d908101601f19168201604052612395919081019061498a565b9050600481610200015160078111156123b0576123b0614463565b146123ce57604051630cca7d0960e01b815260040160405180910390fd5b6101a08101516123e29062093a8090614676565b421061240157604051635586223160e11b815260040160405180910390fd5b600c8201805460ff191660081790556040516307e69b7b60e41b8152600481018590526000906001600160a01b037f00000000000000000000000000000000000000000000000000000000000000001690637e69b7b0906024016020604051808303816000875af115801561247a573d6000803e3d6000fd5b505050506040513d601f19601f8201168201806040525081019061249e9190614863565b6000868152600a60209081526040918290208390559051338152919250829187917f73901cae9be4e0ef47f2f4b06e95e857e2d0d5be1ece92d577ae2a2d302b99f5910160405180910390a3949350505050565b600081815260076020526040902060018101546001600160a01b0316331480159061252a575060028101546001600160a01b03163314155b156125485760405163f2a9eb0f60e01b815260040160405180910390fd5b6007600c8083015460ff169081111561256357612563614463565b1461258157604051630deed35960e21b815260040160405180910390fd5b6000828152600a602052604080822054905163e3a96cbd60e01b815260048101919091527f00000000000000000000000000000000000000000000000000000000000000006001600160a01b03169063e3a96cbd90602401600060405180830381865afa1580156125f6573d6000803e3d6000fd5b505050506040513d6000823e601f3d908101601f1916820160405261261e919081019061498a565b90506006816102000151600781111561263957612639614463565b146126575760405163024dc1af60e41b815260040160405180910390fd5b600c828101805460ff19169091179055805160405184907f8bf954ae6fadc9841573f33c4daddeca60be06ced7ffeb313da02b296d45192b90600090a3505050565b600060076000838152600760205260409020600c9081015460ff16908111156126c4576126c4614463565b1492915050565b336001600160a01b037f000000000000000000000000000000000000000000000000000000000000000016146127145760405163463a803d60e01b815260040160405180910390fd5b60008054600180820183557f290decd9548b62a8d60345a988386fc84ba6bc95484008f6362f93160ef3e56390910180546001600160a01b0319166001600160a01b038516908117909155825260208190526040909120805460ff191690911790556040516001600160a01b03821681527f8ffbc0e86f3bfcd7f06834c8d580a7cdff97190b4b9dc1a236a57d4ca7fc2a4390602001611f7c565b600084815260076020526040902060018101546001600160a01b031633146127ea576040516324f7ca9f60e01b815260040160405180910390fd5b6002600c8083015460ff169081111561280557612805614463565b1415801561282c57506004600c8083015460ff169081111561282957612829614463565b14155b1561284a5760405163fc91d07d60e01b815260040160405180910390fd5b6002600c8083015460ff169081111561286557612865614463565b1480156128755750806007015442105b1561289357604051630e347fdf60e11b815260040160405180910390fd5b6004600c8083015460ff16908111156128ae576128ae614463565b1480156128cd5750806008015481600901546128ca9190614676565b42115b156128ea5760405162a0cf2f60e61b815260040160405180910390fd5b600c8101805460ff1916600617905542600a82015561290b85858585613b5e565b600281015460018201546040516001600160a01b03928316929091169087907f09dea9fa4034ce4408cd7418e0dc093ad1653ed9bc617e32586a23c30ab0210a90600090a45050505050565b600080612963836137ea565b61018001519392505050565b336001600160a01b037f000000000000000000000000000000000000000000000000000000000000000016146129b85760405163463a803d60e01b815260040160405180910390fd5b6000811180156129c85750600a81105b6129d157600080fd5b60028190556040518181527f4dc19bee59d946f6ef641e4c0b49e80cdc0158ba37b9a1143b05a70106ef3d9390602001611f7c565b600084815260076020526040902060018101546001600160a01b03163314801590612a3e575060028101546001600160a01b03163314155b15612a5c5760405163f2a9eb0f60e01b815260040160405180910390fd5b6002600c8083015460ff1690811115612a7757612a77614463565b14612a9557604051630cd9cd6b60e41b815260040160405180910390fd5b600c8101805460ff1916600317905542600a820155612ab685858585613b5e565b600281015460018201546040516001600160a01b03928316929091169087907f0d143c6bc10c47b6bbc4c9be761bb1a3f382c8c9ab7b4e01fde20982f2ba378490600090a45050505050565b600083815260076020526040812060018101546001600160a01b03163314801590612b3a575060028101546001600160a01b03163314155b15612b585760405163f2a9eb0f60e01b815260040160405180910390fd5b6006600c8083015460ff1690811115612b7357612b73614463565b14158015612b9a57506003600c8083015460ff1690811115612b9757612b97614463565b14155b15612bb85760405163012b688b60e61b815260040160405180910390fd5b600a810154612bcb9062093a8090614676565b421015612beb5760405163cc1ec16760e01b815260040160405180910390fd5b600c8101805460ff1916600717905560008581526009602052604081208054612c1690600190614af6565b81548110612c2657612c26614ae0565b6000918252602090912060089091020160068101805460ff191690556005830154909150851115612c6a57604051633577fcff60e01b815260040160405180910390fd5b8160060154841115612c8f576040516387f713f360e01b815260040160405180910390fd5b815460018301546000916001600160a01b037f0000000000000000000000000000000000000000000000000000000000000000811692630872ab9892918a918a9133911614612ceb5760028801546001600160a01b0316612cfa565b60018801546001600160a01b03165b60018901546001600160a01b03163314612d215760018901546001600160a01b0316612d30565b60028901546001600160a01b03165b6040516001600160e01b031960e088901b1681526004810195909552602485019390935260448401919091526001600160a01b03908116606484015216608482015260a4016020604051808303816000875af1158015612d94573d6000803e3d6000fd5b505050506040513d601f19601f82011682018060405250810190612db89190614863565b6000888152600a602090815260409182902083905560028601546001870154875493518581529495506001600160a01b0391821694911692917f229302495453626ae227164708754d6748605e62feab37e19b38c09d4bc66276910160405180910390a49695505050505050565b6000612e31836137ea565b905080606001516001600160a01b0316336001600160a01b031614612e695760405163507dce0360e01b815260040160405180910390fd5b60808101516001600160a01b031660009081526005602052604081208054849290612e95908490614676565b9091555050608081015160405184917f2acb88877bbfde9d61dd54d01a8c0749300152006f6c281732cba674a949b98e91612ee1918682526001600160a01b0316602082015260400190565b60405180910390a2505050565b600081815260076020526040902060028101546001600160a01b03163314612f295760405163f670cea160e01b815260040160405180910390fd5b6004600c8083015460ff1690811115612f4457612f44614463565b141580612f63575080600801548160090154612f609190614676565b42105b15612f8057604051622ba83360e51b815260040160405180910390fd5b600c8101805460ff1916600b179055600281015460018201546040516001600160a01b03928316929091169084907f648144d6cc0db632d7c3c4e2af81aed3393dce71be0a3543330b1aef3ba9a75090600090a45050565b600084815260076020818152604080842081516101c0810183528154815260018201546001600160a01b0390811694820194909452600282015484169281019290925260038101548316606083015260048101549092166080820152600582015460a0820152600682015460c08201529181015460e083015260088101546101008301526009810154610120830152600a810154610140830152600b810154610160830152600c8082015461018084019160ff9091169081111561309e5761309e614463565b600c8111156130af576130af614463565b8152602001600d820180546130c39061471c565b80601f01602080910402602001604051908101604052809291908181526020018280546130ef9061471c565b801561313c5780601f106131115761010080835404028352916020019161313c565b820191906000526020600020905b81548152906001019060200180831161311f57829003601f168201915b505050505081525050905080602001516001600160a01b0316336001600160a01b031614158015613183575080604001516001600160a01b0316336001600160a01b031614155b156131a15760405163f2a9eb0f60e01b815260040160405180910390fd5b6007816101800151600c8111156131ba576131ba614463565b146131d857604051630deed35960e21b815260040160405180910390fd5b80516000908152600a602052604080822054905163e3a96cbd60e01b815260048101919091527f00000000000000000000000000000000000000000000000000000000000000006001600160a01b03169063e3a96cbd90602401600060405180830381865afa15801561324f573d6000803e3d6000fd5b505050506040513d6000823e601f3d908101601f19168201604052613277919081019061498a565b90506000816102000151600781111561329257613292614463565b146132b057604051634780eae160e01b815260040160405180910390fd5b6132bc86868686613b5e565b6000868152600a602052604090205460405187907ff1f1c2799c134622b93e2d30978a7af3c8e978be5ace4a17e2cc69b506d1bf8d90600090a3505050505050565b600081815260076020526040902060018101546001600160a01b03163314801590613336575060028101546001600160a01b03163314155b156133545760405163f2a9eb0f60e01b815260040160405180910390fd5b6007600c8083015460ff169081111561336f5761336f614463565b1461338d57604051630deed35960e21b815260040160405180910390fd5b6000828152600a602052604080822054905163e3a96cbd60e01b815260048101919091527f00000000000000000000000000000000000000000000000000000000000000006001600160a01b03169063e3a96cbd90602401600060405180830381865afa158015613402573d6000803e3d6000fd5b505050506040513d6000823e601f3d908101601f1916820160405261342a919081019061498a565b90506004816102000151600781111561344557613445614463565b1415801561346a57506005816102000151600781111561346757613467614463565b14155b1561348857604051630cca7d0960e01b815260040160405180910390fd5b806101c001516134c6576101a08101516134a69062093a8090614676565b4210156134c657604051635d51601560e11b815260040160405180910390fd5b600c8201805460ff1916600a179055805160405184907f09c577c71ccc4cc75823eaa7c16ca5cbb309ba4f1ad490dbc980eff950abcba190600090a3505050565b6000818154811061351757600080fd5b6000918252602090912001546001600160a01b0316905081565b600060126001600160a01b038316156135b757826001600160a01b031663313ce5676040518163ffffffff1660e01b8152600401602060405180830381865afa158015613582573d6000803e3d6000fd5b505050506040513d601f19601f820116820180604052508101906135a69190614b09565b60ff169050806000036135b7575060125b60006135c482600a614c10565b6135cf906003614c1c565b905060006064600254876135e39190614c1c565b6135ed9190614c33565b9050818110156135fa5750805b925050505b92915050565b61366a60405180610140016040528060008152602001600081526020016000815260200160006001600160a01b031681526020016000815260200160008152602001600015158152602001600015158152602001600015158152602001606081525090565b613673826138de565b6136905760405163725b1e9960e01b815260040160405180910390fd5b600082815260096020526040902080546136ac90600190614af6565b815481106136bc576136bc614ae0565b6000918252602091829020604080516101408101825260089093029091018054835260018101549383019390935260028301549082015260038201546001600160a01b0316606082015260048201546080820152600582015460a0820152600682015460ff808216151560c08401526101008083048216151560e08501526201000090920416151590820152600782018054919291610120840191906137619061471c565b80601f016020809104026020016040519081016040528092919081815260200182805461378d9061471c565b80156137da5780601f106137af576101008083540402835291602001916137da565b820191906000526020600020905b8154815290600101906020018083116137bd57829003601f168201915b5050505050815250509050919050565b6137f2613df0565b60008281526007602081815260409283902083516101c0810185528154815260018201546001600160a01b0390811693820193909352600282015483169481019490945260038101548216606085015260048101549091166080840152600581015460a0840152600681015460c08401529081015460e083015260088101546101008301526009810154610120830152600a810154610140830152600b810154610160830152600c8082015461018084019160ff909116908111156138b9576138b9614463565b600c8111156138ca576138ca614463565b8152602001600d820180546137619061471c565b6000806138ea83611d69565b905060008151118015613924575080600182516139079190614af6565b8151811061391757613917614ae0565b602002602001015160c001515b156139325750600192915050565b50600092915050565b600081815260076020526040902060018101546001600160a01b03163314613976576040516324f7ca9f60e01b815260040160405180910390fd5b6004600c8083015460ff169081111561399157613991614463565b146139af57604051633f4de0bd60e01b815260040160405180910390fd5b600c8101805460ff191660051790556002810154600182015482546040516001600160a01b0393841693909216917fa114c7e90e4eec756d1912c14ef8f687b646824db86f82efde72d1d2f391ce9c90600090a45050565b6000818152600a602052604080822054905163e3a96cbd60e01b815260048101919091527f00000000000000000000000000000000000000000000000000000000000000006001600160a01b03169063e3a96cbd90602401600060405180830381865afa158015613a7c573d6000803e3d6000fd5b505050506040513d6000823e601f3d908101601f19168201604052613aa4919081019061498a565b905060008161020001516007811115613abf57613abf614463565b14613add5760405163a6b04c9b60e01b815260040160405180910390fd5b805160405163028462fb60e21b815260048101919091527f00000000000000000000000000000000000000000000000000000000000000006001600160a01b031690630a118bec90602401600060405180830381600087803b158015613b4257600080fd5b505af1158015613b56573d6000803e3d6000fd5b505050505050565b6000613b69856137ea565b90508060a00151841115613b9057604051633577fcff60e01b815260040160405180910390fd5b8060c00151831115613bb5576040516387f713f360e01b815260040160405180910390fd5b613bc3600880546001019055565b6000604051806101400160405280613bda60085490565b8152602001878152602001428152602001336001600160a01b0316815260200186815260200185815260200160011515815260200183602001516001600160a01b0316336001600160a01b031614613c33576000613c36565b60015b1515815260200183604001516001600160a01b0316336001600160a01b031614613c61576000613c64565b60015b151581526020908101859052600088815260099091526040902080549192509015613ccf5780546000908290613c9c90600190614af6565b81548110613cac57613cac614ae0565b60009182526020909120600890910201600601805460ff19169115159190911790555b80546001808201835560008381526020908190208551600890940201928355840151908201556040830151600282015560608301516003820180546001600160a01b0319166001600160a01b039092169190911790556080830151600482015560a0830151600582015560c083015160068201805460e08601516101008088015161ffff1990931694151561ff001916949094179015159093029290921762ff0000191662010000921515929092029190911790556101208301518391906007820190613d9c90826147a3565b50505060008781526009602052604090208154613dbb91908390613e94565b5060405187907f0a6af05212fc7965e7fdb78d41d8356743a64e7b7e3667d3bdfee2d37e144f7690600090a250505050505050565b604051806101c001604052806000815260200160006001600160a01b0316815260200160006001600160a01b0316815260200160006001600160a01b0316815260200160006001600160a01b03168152602001600081526020016000815260200160008152602001600081526020016000815260200160008152602001600081526020016000600c811115613e8757613e87614463565b8152602001606081525090565b828054828255906000526020600020906008028101928215613f9c5760005260206000209160080282015b82811115613f9c5782548255600180840154908301556002808401549083015560038084015490830180546001600160a01b0319166001600160a01b03909216919091179055600480840154908301556005808401549083015560068084018054918401805460ff938416151560ff19821681178355835461010090819004861615150261ff001990911661ffff19909216919091171780825591546201000090819004909316151590920262ff0000199091161790558282600780820190613f8a90840182614c55565b50505091600801919060080190613ebf565b50613fa8929150613fac565b5090565b80821115613fa857600080825560018201819055600282018190556003820180546001600160a01b0319169055600482018190556005820181905560068201805462ffffff19169055614002600783018261400b565b50600801613fac565b5080546140179061471c565b6000825580601f10614027575050565b601f0160209004906000526020600020908101906140459190614048565b50565b5b80821115613fa85760008155600101614049565b6001600160a01b038116811461404557600080fd5b634e487b7160e01b600052604160045260246000fd5b604051610240810167ffffffffffffffff811182821017156140ac576140ac614072565b60405290565b604051601f8201601f1916810167ffffffffffffffff811182821017156140db576140db614072565b604052919050565b600067ffffffffffffffff8211156140fd576140fd614072565b50601f01601f191660200190565b600082601f83011261411c57600080fd5b813561412f61412a826140e3565b6140b2565b81815284602083860101111561414457600080fd5b816020850160208301376000918101602001919091529392505050565b600080600080600080600060e0888a03121561417c57600080fd5b87356141878161405d565b965060208801356141978161405d565b955060408801359450606088013593506080880135925060a0880135915060c088013567ffffffffffffffff8111156141cf57600080fd5b6141db8a828b0161410b565b91505092959891949750929550565b6000806000806080858703121561420057600080fd5b8435935060208501356142128161405d565b93969395505050506040820135916060013590565b60006020828403121561423957600080fd5b5035919050565b60006020828403121561425257600080fd5b813561425d8161405d565b9392505050565b60005b8381101561427f578181015183820152602001614267565b50506000910152565b600081518084526142a0816020860160208601614264565b601f01601f19169290920160200192915050565b600061014082518452602083015160208501526040830151604085015260608301516142eb60608601826001600160a01b03169052565b506080830151608085015260a083015160a085015260c083015161431360c086018215159052565b5060e083015161432760e086018215159052565b50610100838101511515908501526101208084015181860183905261434e83870182614288565b9695505050505050565b600060208083016020845280855180835260408601915060408160051b87010192506020870160005b828110156143af57603f1988860301845261439d8583516142b4565b94509285019290850190600101614381565b5092979650505050505050565b6020808252825182820181905260009190848201906040850190845b818110156143fd5783516001600160a01b0316835292840192918401916001016143d8565b50909695505050505050565b6000806000806080858703121561441f57600080fd5b843593506020850135925060408501359150606085013567ffffffffffffffff81111561444b57600080fd5b6144578782880161410b565b91505092959194509250565b634e487b7160e01b600052602160045260246000fd5b600d811061449757634e487b7160e01b600052602160045260246000fd5b9052565b602081016135ff8284614479565b6000806000606084860312156144be57600080fd5b505081359360208301359350604090920135919050565b600080604083850312156144e857600080fd5b50508035926020909101359150565b6000806040838503121561450a57600080fd5b82359150602083013561451c8161405d565b809150509250929050565b60208152600061425d60208301846142b4565b60208152815160208201526000602083015161456160408401826001600160a01b03169052565b5060408301516001600160a01b03811660608401525060608301516001600160a01b03811660808401525060808301516001600160a01b03811660a08401525060a083015160c08381019190915283015160e08084019190915283015161010080840191909152830151610120808401919091528301516101408084019190915283015161016080840191909152830151610180808401919091528301516101a061460e81850183614479565b8401516101c08481015290506146286101e0840182614288565b949350505050565b8051801515811461464057600080fd5b919050565b60006020828403121561465757600080fd5b61425d82614630565b634e487b7160e01b600052601160045260246000fd5b808201808211156135ff576135ff614660565b6001600160a01b038a81168252602082018a905288811660408301528781166060830152868116608083015260a0820186905260c08201859052831660e082015261012061010082018190526000906146e483820185614288565b9c9b505050505050505050505050565b80516146408161405d565b60006020828403121561471157600080fd5b815161425d8161405d565b600181811c9082168061473057607f821691505b60208210810361475057634e487b7160e01b600052602260045260246000fd5b50919050565b601f82111561479e576000816000526020600020601f850160051c8101602086101561477f5750805b601f850160051c820191505b81811015613b565782815560010161478b565b505050565b815167ffffffffffffffff8111156147bd576147bd614072565b6147d1816147cb845461471c565b84614756565b602080601f83116001811461480657600084156147ee5750858301515b600019600386901b1c1916600185901b178555613b56565b600085815260208120601f198616915b8281101561483557888601518255948401946001909101908401614816565b50858210156148535787850151600019600388901b60f8161c191681555b5050505050600190811b01905550565b60006020828403121561487557600080fd5b5051919050565b6001600160a01b039384168152919092166020820152604081019190915260600190565b80516008811061464057600080fd5b600082601f8301126148c057600080fd5b8151602067ffffffffffffffff808311156148dd576148dd614072565b8260051b6148ec8382016140b2565b938452858101830193838101908886111561490657600080fd5b84880192505b8583101561497e578251848111156149245760008081fd5b8801603f81018a136149365760008081fd5b85810151604061494861412a836140e3565b8281528c8284860101111561495d5760008081fd5b61496c838a8301848701614264565b8552505050918401919084019061490c565b98975050505050505050565b60006020828403121561499c57600080fd5b815167ffffffffffffffff808211156149b457600080fd5b9083019061024082860312156149c957600080fd5b6149d1614088565b825181526020830151602082015260408301516040820152606083015160608201526149ff608084016146f4565b6080820152614a1060a084016146f4565b60a082015260c083015160c0820152614a2b60e08401614630565b60e0820152610100614a3e818501614630565b9082015261012083810151908201526101408084015190820152610160808401519082015261018080840151908201526101a080840151908201526101c0614a87818501614630565b908201526101e0614a99848201614630565b90820152610200614aab8482016148a0565b908201526102208381015183811115614ac357600080fd5b614acf888287016148af565b918301919091525095945050505050565b634e487b7160e01b600052603260045260246000fd5b818103818111156135ff576135ff614660565b600060208284031215614b1b57600080fd5b815160ff8116811461425d57600080fd5b600181815b80851115614b67578160001904821115614b4d57614b4d614660565b80851615614b5a57918102915b93841c9390800290614b31565b509250929050565b600082614b7e575060016135ff565b81614b8b575060006135ff565b8160018114614ba15760028114614bab57614bc7565b60019150506135ff565b60ff841115614bbc57614bbc614660565b50506001821b6135ff565b5060208310610133831016604e8410600b8410161715614bea575081810a6135ff565b614bf48383614b2c565b8060001904821115614c0857614c08614660565b029392505050565b600061425d8383614b6f565b80820281158282048414176135ff576135ff614660565b600082614c5057634e487b7160e01b600052601260045260246000fd5b500490565b818103614c60575050565b614c6a825461471c565b67ffffffffffffffff811115614c8257614c82614072565b614c90816147cb845461471c565b6000601f821160018114614cc45760008315614cac5750848201545b600019600385901b1c1916600184901b178455614d29565b600085815260209020601f19841690600086815260209020845b83811015614cfe5782860154825560019586019590910190602001614cde565b5085831015614d1c5781850154600019600388901b60f8161c191681555b50505060018360011b0184555b505050505056fea26469706673582212202edbe32adf976a0b398d2269d68e7dc00db90340572fc62465f7f888a690093964736f6c63430008170033","linkReferences":{}},"methodIdentifiers":{"APPEAL_PERIOD()":"1b4ee539","CHANGE_ORDER_PERIOD()":"6b67c89f","ESCROW_FACTORY()":"be20c1cb","GOVERNOR()":"6dc0ae22","MEDIATION_SERVICE()":"aa42f726","MINIMUM_TX_FEE()":"8aea71fd","WHITELIST()":"1bb7cc99","activateProject(uint256)":"41544a82","activeChangeOrder(uint256)":"f293abb0","appealDecision(uint256)":"727109a2","approveChangeOrder(uint256)":"60fcc027","approveProject(uint256)":"fc69d836","approveToken(address)":"80b2edd8","calculateNebulaiTxFee(uint256,address)":"e93e6c01","cancelProject(uint256)":"24941147","challengeProject(uint256,uint256,uint256,string)":"94280aaa","changeOrderIds()":"369556c0","completeProject(uint256)":"2245f152","createProject(address,address,uint256,uint256,uint256,uint256,string)":"0cee1965","discontinueProject(uint256,uint256,uint256,string)":"b8e3e04f","disputeProject(uint256,uint256,uint256)":"c61bc023","erc20Tokens(uint256)":"e17640f4","escrowWithdrawnEvent(uint256,address,uint256,uint256)":"0e01129f","getActiveChangeOrder(uint256)":"ec8d435a","getChangeOrders(uint256)":"45f5c3cb","getCommissionFees(address)":"30cc6aff","getDisputeId(uint256)":"6a53da77","getErc20Tokens()":"6d036535","getProject(uint256)":"f0f3f2c8","getProjectStatus(uint256)":"9675c009","getTxFeesHeld(uint256)":"8a94ddd9","getTxFeesPaid(address)":"5ce15f37","isApprovedToken(address)":"2d5ad3d5","isDisputed(uint256)":"7ccc586e","nebulaiTxFee()":"89e79db6","projectIds()":"5990419b","proposeSettlement(uint256,uint256,uint256,string)":"da2325c8","receiveCommission(uint256,uint256)":"d7d3a7f5","removeToken(address)":"5fa7b584","resolveByMediation(uint256)":"de708b7e","resolveDismissedCase(uint256)":"792d5f9e","reviewOverdue(uint256)":"d82f3530","setNebulaiTxFee(uint256)":"a76792cb","waiveAppeal(uint256)":"15415dc8","withdrawFees(address)":"164e68de"},"id":39}