{"abi":[{"type":"constructor","inputs":[{"name":"_governor","type":"address","internalType":"address"},{"name":"_mediatorPool","type":"address","internalType":"address"},{"name":"_vrfCoordinatorV2","type":"address","internalType":"address"},{"name":"_keyHash","type":"bytes32","internalType":"bytes32"},{"name":"_subscriptionId","type":"uint64","internalType":"uint64"},{"name":"_calculatedMarketplace","type":"address","internalType":"address"},{"name":"_mediatorFlatFee","type":"uint256","internalType":"uint256"}],"stateMutability":"nonpayable"},{"type":"function","name":"DISCLOSURE_PERIOD","inputs":[],"outputs":[{"name":"","type":"uint24","internalType":"uint24"}],"stateMutability":"view"},{"type":"function","name":"GOVERNOR","inputs":[],"outputs":[{"name":"","type":"address","internalType":"address"}],"stateMutability":"view"},{"type":"function","name":"MARKETPLACE","inputs":[],"outputs":[{"name":"","type":"address","internalType":"address"}],"stateMutability":"view"},{"type":"function","name":"PANEL_DRAWING_MULTIPLIER_APPEAL","inputs":[],"outputs":[{"name":"","type":"uint256","internalType":"uint256"}],"stateMutability":"view"},{"type":"function","name":"PANEL_DRAWING_MULTIPLIER_NORMAL","inputs":[],"outputs":[{"name":"","type":"uint256","internalType":"uint256"}],"stateMutability":"view"},{"type":"function","name":"PANEL_SELECTION_PERIOD","inputs":[],"outputs":[{"name":"","type":"uint24","internalType":"uint24"}],"stateMutability":"view"},{"type":"function","name":"PANEL_SIZE_APPEAL","inputs":[],"outputs":[{"name":"","type":"uint256","internalType":"uint256"}],"stateMutability":"view"},{"type":"function","name":"PANEL_SIZE_NORMAL","inputs":[],"outputs":[{"name":"","type":"uint256","internalType":"uint256"}],"stateMutability":"view"},{"type":"function","name":"REVEAL_PERIOD","inputs":[],"outputs":[{"name":"","type":"uint24","internalType":"uint24"}],"stateMutability":"view"},{"type":"function","name":"VOTING_PERIOD","inputs":[],"outputs":[{"name":"","type":"uint24","internalType":"uint24"}],"stateMutability":"view"},{"type":"function","name":"VRF_COORDINATOR","inputs":[],"outputs":[{"name":"","type":"address","internalType":"contract VRFCoordinatorV2Interface"}],"stateMutability":"view"},{"type":"function","name":"acceptCase","inputs":[{"name":"_disputeId","type":"uint256","internalType":"uint256"}],"outputs":[],"stateMutability":"payable"},{"type":"function","name":"appeal","inputs":[{"name":"_projectId","type":"uint256","internalType":"uint256"}],"outputs":[{"name":"","type":"uint256","internalType":"uint256"}],"stateMutability":"nonpayable"},{"type":"function","name":"arbiter","inputs":[{"name":"","type":"uint256","internalType":"uint256"}],"outputs":[{"name":"","type":"address","internalType":"address"}],"stateMutability":"view"},{"type":"function","name":"assignAdditionalMediators","inputs":[{"name":"_disputeId","type":"uint256","internalType":"uint256"},{"name":"_additionalMediators","type":"address[]","internalType":"address[]"}],"outputs":[],"stateMutability":"nonpayable"},{"type":"function","name":"assignArbiter","inputs":[{"name":"_disputeId","type":"uint256","internalType":"uint256"},{"name":"_arbiter","type":"address","internalType":"address"}],"outputs":[],"stateMutability":"nonpayable"},{"type":"function","name":"breakTie","inputs":[{"name":"_disputeId","type":"uint256","internalType":"uint256"},{"name":"_arbiterVote","type":"bool","internalType":"bool"}],"outputs":[],"stateMutability":"nonpayable"},{"type":"function","name":"calculateMediationFee","inputs":[{"name":"isAppeal","type":"bool","internalType":"bool"}],"outputs":[{"name":"","type":"uint256","internalType":"uint256"}],"stateMutability":"view"},{"type":"function","name":"callbackGasLimit","inputs":[],"outputs":[{"name":"","type":"uint32","internalType":"uint32"}],"stateMutability":"view"},{"type":"function","name":"claimMediatorFees","inputs":[],"outputs":[],"stateMutability":"nonpayable"},{"type":"function","name":"commitVote","inputs":[{"name":"_disputeId","type":"uint256","internalType":"uint256"},{"name":"_commit","type":"bytes32","internalType":"bytes32"}],"outputs":[],"stateMutability":"nonpayable"},{"type":"function","name":"createDispute","inputs":[{"name":"_projectId","type":"uint256","internalType":"uint256"},{"name":"_adjustedProjectFee","type":"uint256","internalType":"uint256"},{"name":"_providerStakeForfeit","type":"uint256","internalType":"uint256"},{"name":"_claimant","type":"address","internalType":"address"},{"name":"_respondent","type":"address","internalType":"address"}],"outputs":[{"name":"","type":"uint256","internalType":"uint256"}],"stateMutability":"nonpayable"},{"type":"function","name":"dismissUnpaidCase","inputs":[{"name":"_disputeId","type":"uint256","internalType":"uint256"}],"outputs":[],"stateMutability":"nonpayable"},{"type":"function","name":"disputeIds","inputs":[],"outputs":[{"name":"_value","type":"uint256","internalType":"uint256"}],"stateMutability":"view"},{"type":"function","name":"drawAdditionalMediators","inputs":[{"name":"_disputeId","type":"uint256","internalType":"uint256"}],"outputs":[],"stateMutability":"nonpayable"},{"type":"function","name":"getCommit","inputs":[{"name":"_mediator","type":"address","internalType":"address"},{"name":"_disputeId","type":"uint256","internalType":"uint256"}],"outputs":[{"name":"","type":"bytes32","internalType":"bytes32"}],"stateMutability":"view"},{"type":"function","name":"getDispute","inputs":[{"name":"_disputeId","type":"uint256","internalType":"uint256"}],"outputs":[{"name":"","type":"tuple","internalType":"struct DataStructuresLibrary.Dispute","components":[{"name":"disputeId","type":"uint256","internalType":"uint256"},{"name":"projectId","type":"uint256","internalType":"uint256"},{"name":"adjustedProjectFee","type":"uint256","internalType":"uint256"},{"name":"providerStakeForfeit","type":"uint256","internalType":"uint256"},{"name":"claimant","type":"address","internalType":"address"},{"name":"respondent","type":"address","internalType":"address"},{"name":"mediationFee","type":"uint256","internalType":"uint256"},{"name":"feePaidClaimant","type":"bool","internalType":"bool"},{"name":"feePaidRespondent","type":"bool","internalType":"bool"},{"name":"disclosureStart","type":"uint256","internalType":"uint256"},{"name":"selectionStart","type":"uint256","internalType":"uint256"},{"name":"votingStart","type":"uint256","internalType":"uint256"},{"name":"revealStart","type":"uint256","internalType":"uint256"},{"name":"decisionRenderedDate","type":"uint256","internalType":"uint256"},{"name":"isAppeal","type":"bool","internalType":"bool"},{"name":"granted","type":"bool","internalType":"bool"},{"name":"phase","type":"uint8","internalType":"enum DataStructuresLibrary.Phase"},{"name":"evidence","type":"string[]","internalType":"string[]"}]}],"stateMutability":"view"},{"type":"function","name":"getFeesHeld","inputs":[{"name":"_disputeId","type":"uint256","internalType":"uint256"}],"outputs":[{"name":"","type":"uint256","internalType":"uint256"}],"stateMutability":"view"},{"type":"function","name":"getMediatorFeesOwed","inputs":[{"name":"_mediator","type":"address","internalType":"address"}],"outputs":[{"name":"","type":"uint256","internalType":"uint256"}],"stateMutability":"view"},{"type":"function","name":"getMediatorStakeHeld","inputs":[{"name":"_mediator","type":"address","internalType":"address"},{"name":"_disputeId","type":"uint256","internalType":"uint256"}],"outputs":[{"name":"","type":"uint256","internalType":"uint256"}],"stateMutability":"view"},{"type":"function","name":"getPanel","inputs":[{"name":"_disputeId","type":"uint256","internalType":"uint256"}],"outputs":[{"name":"","type":"tuple","internalType":"struct DataStructuresLibrary.Panel","components":[{"name":"drawnMediators","type":"address[]","internalType":"address[]"},{"name":"confirmedMediators","type":"address[]","internalType":"address[]"}]}],"stateMutability":"view"},{"type":"function","name":"getVote","inputs":[{"name":"_mediator","type":"address","internalType":"address"},{"name":"_disputeId","type":"uint256","internalType":"uint256"}],"outputs":[{"name":"","type":"bool","internalType":"bool"}],"stateMutability":"view"},{"type":"function","name":"hasRevealedVote","inputs":[{"name":"_mediator","type":"address","internalType":"address"},{"name":"_disputeId","type":"uint256","internalType":"uint256"}],"outputs":[{"name":"","type":"bool","internalType":"bool"}],"stateMutability":"view"},{"type":"function","name":"isConfirmedMediator","inputs":[{"name":"_disputeId","type":"uint256","internalType":"uint256"},{"name":"_mediator","type":"address","internalType":"address"}],"outputs":[{"name":"","type":"bool","internalType":"bool"}],"stateMutability":"view"},{"type":"function","name":"keyHash","inputs":[],"outputs":[{"name":"","type":"bytes32","internalType":"bytes32"}],"stateMutability":"view"},{"type":"function","name":"mediatorFlatFee","inputs":[],"outputs":[{"name":"","type":"uint256","internalType":"uint256"}],"stateMutability":"view"},{"type":"function","name":"mediatorPool","inputs":[],"outputs":[{"name":"","type":"address","internalType":"contract IMediatorPool"}],"stateMutability":"view"},{"type":"function","name":"mediatorsNeeded","inputs":[{"name":"disputeId","type":"uint256","internalType":"uint256"}],"outputs":[{"name":"","type":"uint256","internalType":"uint256"}],"stateMutability":"view"},{"type":"function","name":"numWords","inputs":[],"outputs":[{"name":"","type":"uint32","internalType":"uint32"}],"stateMutability":"view"},{"type":"function","name":"overdueCommit","inputs":[{"name":"_disputeId","type":"uint256","internalType":"uint256"}],"outputs":[],"stateMutability":"nonpayable"},{"type":"function","name":"overdueReveal","inputs":[{"name":"_disputeId","type":"uint256","internalType":"uint256"}],"outputs":[],"stateMutability":"nonpayable"},{"type":"function","name":"payMediationFee","inputs":[{"name":"_disputeId","type":"uint256","internalType":"uint256"},{"name":"_evidenceURIs","type":"string[]","internalType":"string[]"}],"outputs":[],"stateMutability":"payable"},{"type":"function","name":"rawFulfillRandomWords","inputs":[{"name":"requestId","type":"uint256","internalType":"uint256"},{"name":"randomWords","type":"uint256[]","internalType":"uint256[]"}],"outputs":[],"stateMutability":"nonpayable"},{"type":"function","name":"reclaimMediationFee","inputs":[{"name":"_disputeId","type":"uint256","internalType":"uint256"}],"outputs":[],"stateMutability":"nonpayable"},{"type":"function","name":"requestConfirmations","inputs":[],"outputs":[{"name":"","type":"uint16","internalType":"uint16"}],"stateMutability":"view"},{"type":"function","name":"requestDefaultDecision","inputs":[{"name":"_disputeId","type":"uint256","internalType":"uint256"}],"outputs":[],"stateMutability":"nonpayable"},{"type":"function","name":"revealVote","inputs":[{"name":"_disputeId","type":"uint256","internalType":"uint256"},{"name":"_vote","type":"bool","internalType":"bool"},{"name":"_salt","type":"string","internalType":"string"}],"outputs":[],"stateMutability":"nonpayable"},{"type":"function","name":"setMediatorFlatFee","inputs":[{"name":"_flatFee","type":"uint256","internalType":"uint256"}],"outputs":[],"stateMutability":"nonpayable"},{"type":"function","name":"setVrfConfig","inputs":[{"name":"_keyHash","type":"bytes32","internalType":"bytes32"},{"name":"_subscriptionId","type":"uint64","internalType":"uint64"},{"name":"_requestConfirmations","type":"uint16","internalType":"uint16"},{"name":"_callbackGasLimit","type":"uint32","internalType":"uint32"},{"name":"_numWords","type":"uint32","internalType":"uint32"}],"outputs":[],"stateMutability":"nonpayable"},{"type":"function","name":"settledExternally","inputs":[{"name":"_disputeId","type":"uint256","internalType":"uint256"}],"outputs":[],"stateMutability":"nonpayable"},{"type":"function","name":"submitAdditionalEvidence","inputs":[{"name":"_disputeId","type":"uint256","internalType":"uint256"},{"name":"_evidenceURIs","type":"string[]","internalType":"string[]"}],"outputs":[],"stateMutability":"nonpayable"},{"type":"function","name":"subscriptionId","inputs":[],"outputs":[{"name":"","type":"uint64","internalType":"uint64"}],"stateMutability":"view"},{"type":"function","name":"votesTied","inputs":[{"name":"","type":"uint256","internalType":"uint256"}],"outputs":[{"name":"","type":"bool","internalType":"bool"}],"stateMutability":"view"},{"type":"function","name":"vrfRequestToDispute","inputs":[{"name":"","type":"uint256","internalType":"uint256"}],"outputs":[{"name":"","type":"uint256","internalType":"uint256"}],"stateMutability":"view"},{"type":"event","name":"AdditionalMediatorDrawingInitiated","inputs":[{"name":"disputeId","type":"uint256","indexed":true,"internalType":"uint256"},{"name":"requestId","type":"uint256","indexed":false,"internalType":"uint256"}],"anonymous":false},{"type":"event","name":"AdditionalMediatorsAssigned","inputs":[{"name":"disputeId","type":"uint256","indexed":true,"internalType":"uint256"},{"name":"assignedMediators","type":"address[]","indexed":false,"internalType":"address[]"}],"anonymous":false},{"type":"event","name":"AppealCreated","inputs":[{"name":"disputeId","type":"uint256","indexed":true,"internalType":"uint256"},{"name":"originalDisputeId","type":"uint256","indexed":true,"internalType":"uint256"},{"name":"projectId","type":"uint256","indexed":false,"internalType":"uint256"}],"anonymous":false},{"type":"event","name":"ArbiterAssigned","inputs":[{"name":"disputeId","type":"uint256","indexed":true,"internalType":"uint256"},{"name":"arbiter","type":"address","indexed":true,"internalType":"address"}],"anonymous":false},{"type":"event","name":"ArbiterVote","inputs":[{"name":"disputeId","type":"uint256","indexed":true,"internalType":"uint256"},{"name":"arbiter","type":"address","indexed":true,"internalType":"address"},{"name":"vote","type":"bool","indexed":false,"internalType":"bool"}],"anonymous":false},{"type":"event","name":"CaseDismissed","inputs":[{"name":"disputeId","type":"uint256","indexed":true,"internalType":"uint256"}],"anonymous":false},{"type":"event","name":"DecisionReached","inputs":[{"name":"disputeId","type":"uint256","indexed":true,"internalType":"uint256"},{"name":"decision","type":"bool","indexed":false,"internalType":"bool"},{"name":"majorityVotes","type":"uint256","indexed":false,"internalType":"uint256"}],"anonymous":false},{"type":"event","name":"DefaultDecisionEntered","inputs":[{"name":"disputeId","type":"uint256","indexed":true,"internalType":"uint256"},{"name":"claimedBy","type":"address","indexed":true,"internalType":"address"},{"name":"decision","type":"bool","indexed":false,"internalType":"bool"}],"anonymous":false},{"type":"event","name":"DisputeCreated","inputs":[{"name":"disputeId","type":"uint256","indexed":true,"internalType":"uint256"},{"name":"projectId","type":"uint256","indexed":false,"internalType":"uint256"}],"anonymous":false},{"type":"event","name":"MediationFeePaid","inputs":[{"name":"disputeId","type":"uint256","indexed":true,"internalType":"uint256"},{"name":"user","type":"address","indexed":true,"internalType":"address"}],"anonymous":false},{"type":"event","name":"MediationFeeReclaimed","inputs":[{"name":"disputeId","type":"uint256","indexed":true,"internalType":"uint256"},{"name":"claimedBy","type":"address","indexed":true,"internalType":"address"},{"name":"amount","type":"uint256","indexed":false,"internalType":"uint256"}],"anonymous":false},{"type":"event","name":"MediatorConfirmed","inputs":[{"name":"disputeId","type":"uint256","indexed":true,"internalType":"uint256"},{"name":"mediatorAddress","type":"address","indexed":false,"internalType":"address"}],"anonymous":false},{"type":"event","name":"MediatorFeesClaimed","inputs":[{"name":"mediator","type":"address","indexed":true,"internalType":"address"},{"name":"amount","type":"uint256","indexed":false,"internalType":"uint256"}],"anonymous":false},{"type":"event","name":"MediatorRemoved","inputs":[{"name":"disputeId","type":"uint256","indexed":true,"internalType":"uint256"},{"name":"mediator","type":"address","indexed":true,"internalType":"address"}],"anonymous":false},{"type":"event","name":"OverdueReveal","inputs":[{"name":"disputeId","type":"uint256","indexed":true,"internalType":"uint256"},{"name":"deadlocked","type":"bool","indexed":false,"internalType":"bool"}],"anonymous":false},{"type":"event","name":"PanelDrawn","inputs":[{"name":"disputeId","type":"uint256","indexed":true,"internalType":"uint256"},{"name":"isRedraw","type":"bool","indexed":false,"internalType":"bool"}],"anonymous":false},{"type":"event","name":"PanelSelectionInitiated","inputs":[{"name":"disputeId","type":"uint256","indexed":true,"internalType":"uint256"},{"name":"requestId","type":"uint256","indexed":false,"internalType":"uint256"}],"anonymous":false},{"type":"event","name":"RevealInitiated","inputs":[{"name":"disputeId","type":"uint256","indexed":true,"internalType":"uint256"}],"anonymous":false},{"type":"event","name":"SettledExternally","inputs":[{"name":"disputeId","type":"uint256","indexed":true,"internalType":"uint256"}],"anonymous":false},{"type":"event","name":"VoteCommitted","inputs":[{"name":"disputeId","type":"uint256","indexed":true,"internalType":"uint256"},{"name":"mediator","type":"address","indexed":true,"internalType":"address"},{"name":"commit","type":"bytes32","indexed":false,"internalType":"bytes32"}],"anonymous":false},{"type":"event","name":"VoteRevealed","inputs":[{"name":"disputeId","type":"uint256","indexed":true,"internalType":"uint256"},{"name":"mediator","type":"address","indexed":true,"internalType":"address"},{"name":"vote","type":"bool","indexed":false,"internalType":"bool"}],"anonymous":false},{"type":"event","name":"VotingInitiated","inputs":[{"name":"disputeId","type":"uint256","indexed":true,"internalType":"uint256"}],"anonymous":false},{"type":"error","name":"MediationService__AlreadyConfirmedMediator","inputs":[]},{"type":"error","name":"MediationService__AlreadyRevealed","inputs":[]},{"type":"error","name":"MediationService__CannotRevealBeforeAllVotesCommitted","inputs":[]},{"type":"error","name":"MediationService__CaseNotDeadlocked","inputs":[]},{"type":"error","name":"MediationService__DisputeCannotBeAppealed","inputs":[]},{"type":"error","name":"MediationService__DisputeDoesNotExist","inputs":[]},{"type":"error","name":"MediationService__EvidenceCanNoLongerBeSubmitted","inputs":[]},{"type":"error","name":"MediationService__FeesNotOverdue","inputs":[]},{"type":"error","name":"MediationService__InitialSelectionPeriodStillOpen","inputs":[]},{"type":"error","name":"MediationService__InsufficientAmount","inputs":[]},{"type":"error","name":"MediationService__InsufficientMediatorStake","inputs":[]},{"type":"error","name":"MediationService__InvalidArbiter","inputs":[]},{"type":"error","name":"MediationService__InvalidCommit","inputs":[]},{"type":"error","name":"MediationService__InvalidMediator","inputs":[]},{"type":"error","name":"MediationService__MediationFeeAlreadyPaid","inputs":[]},{"type":"error","name":"MediationService__MediationFeeAlreadyReclaimed","inputs":[]},{"type":"error","name":"MediationService__MediationFeeCannotBeReclaimed","inputs":[]},{"type":"error","name":"MediationService__MediationFeeNotPaid","inputs":[]},{"type":"error","name":"MediationService__MediatorHasAlreadyCommmitedVote","inputs":[]},{"type":"error","name":"MediationService__MediatorSeatsFilled","inputs":[]},{"type":"error","name":"MediationService__NoMediatorFeesOwed","inputs":[]},{"type":"error","name":"MediationService__NoOverdueCommits","inputs":[]},{"type":"error","name":"MediationService__NotDrawnMediator","inputs":[]},{"type":"error","name":"MediationService__OnlyAdmin","inputs":[]},{"type":"error","name":"MediationService__OnlyDisputant","inputs":[]},{"type":"error","name":"MediationService__OnlyDuringDisclosure","inputs":[]},{"type":"error","name":"MediationService__OnlyDuringPanelSelection","inputs":[]},{"type":"error","name":"MediationService__OnlyDuringReveal","inputs":[]},{"type":"error","name":"MediationService__OnlyGovernor","inputs":[]},{"type":"error","name":"MediationService__OnlyMarketplace","inputs":[]},{"type":"error","name":"MediationService__OnlyPrevailingParty","inputs":[]},{"type":"error","name":"MediationService__PanelAlreadyRedrawn","inputs":[]},{"type":"error","name":"MediationService__PanelNotRedrawn","inputs":[]},{"type":"error","name":"MediationService__ProjectHasOpenDispute","inputs":[]},{"type":"error","name":"MediationService__ProjectIsNotDisputed","inputs":[]},{"type":"error","name":"MediationService__RevealDoesNotMatchCommit","inputs":[]},{"type":"error","name":"MediationService__RevealPeriodStillActive","inputs":[]},{"type":"error","name":"MediationService__TransferFailed","inputs":[]},{"type":"error","name":"MediationService__VoteHasNotBeenRevealed","inputs":[]},{"type":"error","name":"MediationService__VotingPeriodStillActive","inputs":[]},{"type":"error","name":"OnlyCoordinatorCanFulfill","inputs":[{"name":"have","type":"address","internalType":"address"},{"name":"want","type":"address","internalType":"address"}]}],"bytecode":{"object":"0x61010060405260048054600160401b600160901b0319166e02000c3500000300000000000000001790553480156200003657600080fd5b5060405162005406380380620054068339810160408190526200005991620000df565b6001600160a01b03948516608081905296851660a052600080546001600160a01b0319169686169690961790955560e095909552600391909155600480546001600160401b0319166001600160401b039092169190911790559190911660c05260015562000170565b80516001600160a01b0381168114620000da57600080fd5b919050565b600080600080600080600060e0888a031215620000fb57600080fd5b6200010688620000c2565b96506200011660208901620000c2565b95506200012660408901620000c2565b606089015160808a015191965094506001600160401b03811681146200014b57600080fd5b92506200015b60a08901620000c2565b915060c0880151905092959891949750929550565b60805160a05160c05160e05161521d620001e96000396000818161034c0152613aed015260008181610a6101528181610a9001528181610d4b015261193e01526000818161063201528181610fd501528181612c9e01528181612f8a01526131e2015260008181610e390152610e7b015261521d6000f3fe6080604052600436106103355760003560e01c80639119a62b116101ab578063c3529f31116100f7578063e026b7fb11610095578063f2f617241161006f578063f2f6172414610a26578063f8ef138214610a3c578063f983657a146108de578063ffef3cf014610a4f57600080fd5b8063e026b7fb146109c2578063e3a96cbd146109d9578063e9490bd614610a0657600080fd5b8063d11f8c08116100d1578063d11f8c081461092a578063d40b7f771461093f578063d813345614610975578063d93bacd91461099557600080fd5b8063c3529f31146108de578063cc7b11b9146108f5578063cf1aa6151461090a57600080fd5b8063a0d58f9311610164578063ac98b9721161013e578063ac98b97214610852578063b0fb162f14610872578063b1610d7e146108a7578063b348ba73146108be57600080fd5b8063a0d58f93146107fd578063a949259b1461081d578063a94939301461083d57600080fd5b80639119a62b1461072357806394f178df146107435780639841436814610770578063986106fb1461079d5780639da69180146107bd578063a00724ff146107dd57600080fd5b806340b7a582116102855780636dc0ae22116102235780637e69b7b0116101fd5780637e69b7b014610698578063855244a0146106b85780638a497cc6146106d85780638f2897d51461070357600080fd5b80636dc0ae221461062057806374f785ee146106545780637ccfd7fc1461067457600080fd5b80634dce966a1161025f5780634dce966a146105aa5780634dfe57e1146105ca57806361728f39146105ea5780636b0dd90f1461060057600080fd5b806340b7a582146105775780634100f708146104c95780634b875b551461059757600080fd5b80631065ebda116102f25780631fe543e3116102cc5780631fe543e3146104de57806324f74697146104fe5780632ef048a314610537578063333318831461055757600080fd5b80631065ebda146104735780631895c6511461049357806318991f6b146104c957600080fd5b806305f6a9241461033a5780630872ab981461038b57806309c1ba2e146103b95780630a118bec146103f15780630ba26139146104135780630d3377c714610433575b600080fd5b34801561034657600080fd5b5061036e7f000000000000000000000000000000000000000000000000000000000000000081565b6040516001600160a01b0390911681526020015b60405180910390f35b34801561039757600080fd5b506103ab6103a6366004614784565b610a83565b604051908152602001610382565b3480156103c557600080fd5b506004546103d9906001600160401b031681565b6040516001600160401b039091168152602001610382565b3480156103fd57600080fd5b5061041161040c3660046147da565b610d40565b005b34801561041f57600080fd5b506103ab61042e366004614801565b610dd8565b34801561043f57600080fd5b5061046361044e3660046147da565b600e6020526000908152604090205460ff1681565b6040519015158152602001610382565b34801561047f57600080fd5b506103ab61048e366004614825565b610e06565b34801561049f57600080fd5b506103ab6104ae366004614851565b6001600160a01b03166000908152600d602052604090205490565b3480156104d557600080fd5b506103ab600381565b3480156104ea57600080fd5b506104116104f9366004614884565b610e2e565b34801561050a57600080fd5b5060045461052290600160501b900463ffffffff1681565b60405163ffffffff9091168152602001610382565b34801561054357600080fd5b506104116105523660046147da565b610eba565b34801561056357600080fd5b50610411610572366004614998565b610fc0565b34801561058357600080fd5b5060005461036e906001600160a01b031681565b6104116105a5366004614998565b611378565b3480156105b657600080fd5b506104116105c53660046147da565b6115c5565b3480156105d657600080fd5b506104636105e5366004614825565b6116a4565b3480156105f657600080fd5b506103ab60035481565b34801561060c57600080fd5b5061046361061b366004614825565b6116cf565b34801561062c57600080fd5b5061036e7f000000000000000000000000000000000000000000000000000000000000000081565b34801561066057600080fd5b5061041161066f3660046147da565b611724565b34801561068057600080fd5b5060045461052290600160701b900463ffffffff1681565b3480156106a457600080fd5b506103ab6106b33660046147da565b611931565b3480156106c457600080fd5b506104116106d33660046147da565b611c49565b3480156106e457600080fd5b506106ef62093a8081565b60405162ffffff9091168152602001610382565b34801561070f57600080fd5b5061041161071e3660046147da565b611ea2565b34801561072f57600080fd5b5061041161073e3660046147da565b61216d565b34801561074f57600080fd5b5061076361075e3660046147da565b61242d565b6040516103829190614a28565b34801561077c57600080fd5b506103ab61078b3660046147da565b60056020526000908152604090205481565b3480156107a957600080fd5b506104116107b8366004614998565b612516565b3480156107c957600080fd5b506104116107d8366004614a6a565b6126a6565b3480156107e957600080fd5b506104116107f8366004614a8c565b61281b565b34801561080957600080fd5b506103ab6108183660046147da565b612a4c565b34801561082957600080fd5b50610411610838366004614b14565b612a75565b34801561084957600080fd5b50610411612b7e565b34801561085e57600080fd5b506103ab61086d366004614825565b612c61565b34801561087e57600080fd5b5060045461089490600160401b900461ffff1681565b60405161ffff9091168152602001610382565b3480156108b357600080fd5b506106ef6205460081565b3480156108ca57600080fd5b506104116108d9366004614b44565b612c89565b3480156108ea57600080fd5b506106ef6203f48081565b34801561090157600080fd5b506103ab600581565b34801561091657600080fd5b50610463610925366004614b44565b612f0d565b34801561093657600080fd5b506103ab600281565b34801561094b57600080fd5b5061036e61095a3660046147da565b600f602052600090815260409020546001600160a01b031681565b34801561098157600080fd5b506104116109903660046147da565b612f7f565b3480156109a157600080fd5b506103ab6109b03660046147da565b60009081526002602052604090205490565b3480156109ce57600080fd5b506006546103ab9081565b3480156109e557600080fd5b506109f96109f43660046147da565b612fda565b6040516103829190614c29565b348015610a1257600080fd5b50610411610a21366004614d6d565b6131d7565b348015610a3257600080fd5b506103ab60015481565b610411610a4a3660046147da565b613296565b348015610a5b57600080fd5b5061036e7f000000000000000000000000000000000000000000000000000000000000000081565b6000336001600160a01b037f00000000000000000000000000000000000000000000000000000000000000001614610ace57604051631c94dd9760e31b815260040160405180910390fd5b604051636a53da7760e01b8152600481018790523390636a53da7790602401602060405180830381865afa158015610b0a573d6000803e3d6000fd5b505050506040513d601f19601f82011682018060405250810190610b2e9190614de2565b15610b4c57604051635030fadd60e01b815260040160405180910390fd5b610b5a600680546001019055565b6000610b6560065490565b9050610b6f614593565b8181526020810188905260408101879052606081018690526001600160a01b038086166080830152841660a0820152610ba86000610dd8565b60c08201908152426101208301908152600084815260076020818152604092839020865181559086015160018201559185015160028301556060850151600383015560808501516004830180546001600160a01b039283166001600160a01b03199182161790915560a08701516005850180549190931691161790559251600682015560e08401518184018054610100808801511515810261ff0019941515851661ffff199384161717909255935160088401556101408601516009840155610160860151600a840155610180860151600b8401556101a0860151600c8401556101c0860151600d840180546101e08901511515909302911515909316919094161792909217808355610200850151859492939092909162ff000019169062010000908490811115610cdc57610cdc614b69565b02179055506102208201518051610cfd91600e840191602090910190614649565b50506040518981528391507ffa71779ecc1dd1ef48196a5af1776f8a748036653ce2b5b310ab5e31b61ca32b9060200160405180910390a2509695505050505050565b336001600160a01b037f00000000000000000000000000000000000000000000000000000000000000001614610d8957604051631c94dd9760e31b815260040160405180910390fd5b600081815260076020526040808220600d8101805462ff00001916620700001790558054915190927f931f1a2ab95b7bbd44f6b1fd4f820a8c42a77eed1177aa040d3ecc7692fdc4ba91a25050565b600081610df357600154610ded906003614e11565b92915050565b600154610ded906005614e11565b919050565b6001600160a01b03919091166000908152600a60209081526040808320938352929052205490565b336001600160a01b037f00000000000000000000000000000000000000000000000000000000000000001614610eac5760405163073e64fd60e21b81523360048201526001600160a01b037f000000000000000000000000000000000000000000000000000000000000000016602482015260440160405180910390fd5b610eb682826134f1565b5050565b6000610ec582612fda565b905060018161020001516007811115610ee057610ee0614b69565b14610efe5760405163e85c1def60e01b815260040160405180910390fd5b610140810151610f12906203f48090614e28565b421015610f32576040516310b71d3560e21b815260040160405180910390fd5b6000610f3d8361242d565b90506003610f4a84612a4c565b610f549190614e11565b8151511115610f765760405163d5d500db60e01b815260040160405180910390fd5b6000610f8184613a81565b8351604051828152919250907f486a5e4a3475f9cc8baf912905ad92c6c2868a2bdf4e785b50a7e000597ae3639060200160405180910390a250505050565b604051630935e01b60e21b81523360048201527f00000000000000000000000000000000000000000000000000000000000000006001600160a01b0316906324d7806c906024016020604051808303816000875af1158015611026573d6000803e3d6000fd5b505050506040513d601f19601f8201168201806040525081019061104a9190614e3b565b6110675760405163249d95ab60e21b815260040160405180910390fd5b600061107284612fda565b90506001816102000151600781111561108d5761108d614b69565b146110ab5760405163e85c1def60e01b815260040160405180910390fd5b6101408101516110bf906203f48090614e28565b4210156110df576040516310b71d3560e21b815260040160405180910390fd5b60008481526008602052604090206110f685612a4c565b611101906003614e11565b8154116111215760405163d8168ced60e01b815260040160405180910390fd5b60005b838110156113345782516111599086868481811061114457611144614e58565b90506020020160208101906109259190614851565b156111765760405162d7182160e81b815260040160405180910390fd5b6000546001600160a01b03166366e305fd86868481811061119957611199614e58565b90506020020160208101906111ae9190614851565b6040516001600160e01b031960e084901b1681526001600160a01b039091166004820152602401602060405180830381865afa1580156111f2573d6000803e3d6000fd5b505050506040513d601f19601f820116820180604052508101906112169190614e3b565b6112325760405162d7182160e81b815260040160405180910390fd5b82608001516001600160a01b031685858381811061125257611252614e58565b90506020020160208101906112679190614851565b6001600160a01b031614806112b757508260a001516001600160a01b031685858381811061129757611297614e58565b90506020020160208101906112ac9190614851565b6001600160a01b0316145b156112d45760405162d7182160e81b815260040160405180910390fd5b818585838181106112e7576112e7614e58565b90506020020160208101906112fc9190614851565b815460018082018455600093845260209093200180546001600160a01b0319166001600160a01b039290921691909117905501611124565b5081516040517f7b4c00990af217b5fd5850914568e2803760dcc1fab73902464c580805fe9d87906113699087908790614e6e565b60405180910390a25050505050565b600083815260076020526040902060048101546001600160a01b031633148015906113b0575060058101546001600160a01b03163314155b156113ce57604051634a77af9b60e11b815260040160405180910390fd5b60048101546001600160a01b0316331480156113ee5750600781015460ff165b80611419575060058101546001600160a01b03163314801561141957506007810154610100900460ff165b1561143757604051630d78545960e41b815260040160405180910390fd5b806006015434101561145c5760405163874a2deb60e01b815260040160405180910390fd5b60048101546001600160a01b031633146114885760078101805461ff001916610100179055600161149b565b60078101805460ff191660019081179091555b50600084815260026020526040812080543492906114ba908490614e28565b90915550600090505b8281101561151c5781600e018484838181106114e1576114e1614e58565b90506020028101906114f39190614ebc565b825460018101845560009384526020909320909201916115139183614f8c565b506001016114c3565b50604051339085907f674e02de93fe447826c06140b0d60c8e1008d2fcd376352de7f98f00553fbd4a90600090a3600781015460ff16801561156757506007810154610100900460ff165b156115bf57600061157785613a81565b600d8301805462ff000019166201000017905560405181815290915085907f8bca728f59a09519d6cf0a4c6de9081f086fbdbb21ceeda00f78282d49923a2490602001611369565b50505050565b600081815260076020526040812080549091036115f5576040516323e6121560e11b815260040160405180910390fd5b60088101546116089062093a8090614e28565b4210156116285760405163bb4fd0ed60e01b815260040160405180910390fd5b600781015460ff168061164457506007810154610100900460ff165b1561166257604051630d78545960e41b815260040160405180910390fd5b600d8101805462ff000019166206000017905560405182907fba822c6c2752fc532b06182dbb93744cfc28337646621685da58cfb770615a2590600090a25050565b6001600160a01b03919091166000908152600c60209081526040808320938352929052205460ff1690565b60006116db83836116a4565b6116f857604051638f424b8760e01b815260040160405180910390fd5b506001600160a01b03919091166000908152600b60209081526040808320938352929052205460ff1690565b60008181526007602052604090206002600d82015462010000900460ff16600781111561175357611753614b69565b1461177157604051630fbab20760e01b815260040160405180910390fd5b600a810154611784906205460090614e28565b4210156117a45760405163b820da2960e01b815260040160405180910390fd5b60006117b3826000015461242d565b905060005b816020015151811015611925576117f0826020015182815181106117de576117de614e58565b60200260200101518460000154610e06565b60000361191d5760006118248360200151838151811061181257611812614e58565b60200260200101518560000154612c61565b905080600960008560200151858151811061184157611841614e58565b60200260200101516001600160a01b03166001600160a01b03168152602001908152602001600020600086600001548152602001908152602001600020600082825461188d919061504b565b90915550506000805460408051638166639b60e01b815290516001600160a01b0390921692638166639b928592600480820193929182900301818588803b1580156118d757600080fd5b505af11580156118eb573d6000803e3d6000fd5b505050505061191b84600001548460200151848151811061190e5761190e614e58565b6020026020010151613b73565b505b6001016117b8565b505042600a9091015550565b6000336001600160a01b037f0000000000000000000000000000000000000000000000000000000000000000161461197c57604051631c94dd9760e31b815260040160405180910390fd5b604051636a53da7760e01b8152600481018390526000903390636a53da7790602401602060405180830381865afa1580156119bb573d6000803e3d6000fd5b505050506040513d601f19601f820116820180604052508101906119df9190614de2565b905080600003611a02576040516323e6121560e11b815260040160405180910390fd5b6000611a0d82612fda565b9050806101c0015115611a3357604051630ea68dc560e11b815260040160405180910390fd5b611a41600680546001019055565b6000611a4c60065490565b9050611a56614593565b8181526020810186905260408084015190820152606080840151908201526080808401516001600160a01b039081169183019190915260a0808501519091169082015260016101c08201819052611aac90610dd8565b60c08201908152426101208301908152600084815260076020818152604092839020865181559086015160018201559185015160028301556060850151600383015560808501516004830180546001600160a01b039283166001600160a01b03199182161790915560a08701516005850180549190931691161790559251600682015560e08401518184018054610100808801511515810261ff0019941515851661ffff199384161717909255935160088401556101408601516009840155610160860151600a840155610180860151600b8401556101a0860151600c8401556101c0860151600d840180546101e08901511515909302911515909316919094161792909217808355610200850151859492939092909162ff000019169062010000908490811115611be057611be0614b69565b02179055506102208201518051611c0191600e840191602090910190614649565b5090505083827f6f6f8ef57754c3fa3e31d1517c2252383ee71eda7fafc105ec9dec357b8bd94688604051611c3891815260200190565b60405180910390a350949350505050565b600081815260076020526040902060048101546001600160a01b03163314801590611c81575060058101546001600160a01b03163314155b15611c9f57604051634a77af9b60e11b815260040160405180910390fd5b6000600d82015462010000900460ff166007811115611cc057611cc0614b69565b14611cde5760405163095f868960e21b815260040160405180910390fd5b60048101546001600160a01b03163303611d1c57600781015460ff16611d17576040516303ac1eaf60e61b815260040160405180910390fd5b611d46565b6007810154610100900460ff16611d46576040516303ac1eaf60e61b815260040160405180910390fd5b6008810154611d599062093a8090614e28565b421015611d795760405163bb4fd0ed60e01b815260040160405180910390fd5b60048101546001600160a01b03163314611da157600d8101805461ff00191690556000611db5565b600d8101805461ff00191661010017905560015b50600d8101805462ff00001916620500001790556000828152600260205260408120805491829190611de7838061504b565b9091555050604051600090339083908381818185875af1925050503d8060008114611e2e576040519150601f19603f3d011682016040523d82523d6000602084013e611e33565b606091505b5050905080611e555760405163062f129560e21b815260040160405180910390fd5b600d83015460405161010090910460ff1615158152339085907f09d2debba343a19ba341af646a7dca5450239af1faf2795158422b663bf6fe1f906020015b60405180910390a350505050565b6000611ead82612fda565b905080608001516001600160a01b0316336001600160a01b031614158015611eeb57508060a001516001600160a01b0316336001600160a01b031614155b15611f0957604051634a77af9b60e11b815260040160405180910390fd5b60048161020001516007811115611f2257611f22614b69565b03611fb957806101e001518015611f4f575080608001516001600160a01b0316336001600160a01b031614155b15611f6d5760405163e375bbf960e01b815260040160405180910390fd5b806101e00151158015611f9657508060a001516001600160a01b0316336001600160a01b031614155b15611fb45760405163e375bbf960e01b815260040160405180910390fd5b61207b565b60078161020001516007811115611fd257611fd2614b69565b03612062578060e00151158015611ffe575080608001516001600160a01b0316336001600160a01b0316145b1561201c576040516303ac1eaf60e61b815260040160405180910390fd5b80610100015115801561204457508060a001516001600160a01b0316336001600160a01b0316145b15611fb4576040516303ac1eaf60e61b815260040160405180910390fd5b6040516335ae40d760e11b815260040160405180910390fd5b60c0810151600083815260026020526040902054146120ad57604051631b4d0d5760e01b815260040160405180910390fd5b60008281526002602052604081208054918291906120cb838061504b565b9091555050604051600090339083908381818185875af1925050503d8060008114612112576040519150601f19603f3d011682016040523d82523d6000602084013e612117565b606091505b50509050806121395760405163062f129560e21b815260040160405180910390fd5b604051828152339085907fc96ecea49db741689d80001e0d0b27e01af4cd47c854812729220bc13f148dad90602001611e94565b600061217882612fda565b90506003816102000151600781111561219357612193614b69565b146121b15760405163f1147dc160e01b815260040160405180910390fd5b6101808101516121c5906203f48090614e28565b4210156121e45760405162ce54eb60e21b815260040160405180910390fd5b6000806121f48360000151613f56565b9150915060006122078460000151612a4c565b9050600080612219866000015161242d565b905060005b81602001515181101561232a576122568260200151828151811061224457612244614e58565b602002602001015188600001516116a4565b6123225760006122878360200151838151811061227557612275614e58565b60200260200101518960000151612c61565b90508060096000856020015185815181106122a4576122a4614e58565b60200260200101516001600160a01b03166001600160a01b0316815260200190815260200160002060008a60000151815260200190815260200160002060008282546122f0919061504b565b9091555061230090508185614e28565b935061232088600001518460200151848151811061190e5761190e614e58565b505b60010161221e565b50612336600284615074565b85118061234c5750612349600284615074565b84115b1561236357855161235e90868661402b565b6123d9565b85516000908152600e6020526040808220805460ff1916600117905581548151638166639b60e01b815291516001600160a01b0390911692638166639b9286926004808301939282900301818588803b1580156123bf57600080fd5b505af11580156123d3573d6000803e3d6000fd5b50505050505b85516000818152600e602090815260409182902054915160ff909216151582527f663f6b5edf14fd8e9a1f2d638b2cf6c9ef1702b284a3548503631dab55273100910160405180910390a250505050505050565b60408051808201825260608082526020808301829052600085815260088252849020845181549283028101840186529485018281529394939092849284918401828280156124a457602002820191906000526020600020905b81546001600160a01b03168152600190910190602001808311612486575b505050505081526020016001820180548060200260200160405190810160405280929190818152602001828054801561250657602002820191906000526020600020905b81546001600160a01b031681526001909101906020018083116124e8575b5050505050815250509050919050565b600083815260076020526040902060048101546001600160a01b0316331480159061254e575060058101546001600160a01b03163314155b1561256c57604051634a77af9b60e11b815260040160405180910390fd5b6000600d82015462010000900460ff16600781111561258d5761258d614b69565b141580156125ba57506001600d82015462010000900460ff1660078111156125b7576125b7614b69565b14155b156125d85760405163c3278ccb60e01b815260040160405180910390fd5b60048101546001600160a01b0316331480156125f95750600781015460ff16155b80612625575060058101546001600160a01b03163314801561262557506007810154610100900460ff16155b15612643576040516303ac1eaf60e61b815260040160405180910390fd5b60005b8281101561269f5781600e0184848381811061266457612664614e58565b90506020028101906126769190614ebc565b825460018101845560009384526020909320909201916126969183614f8c565b50600101612646565b5050505050565b6126b03383610e06565b156126ce576040516306e9c79160e31b815260040160405180910390fd5b60008190036126f0576040516352ea2ee560e01b815260040160405180910390fd5b60006126fb8361242d565b905060008060005b83602001515181101561278b578360200151818151811061272657612726614e58565b60200260200101516001600160a01b0316336001600160a01b03160361274b57600192505b6127728460200151828151811061276457612764614e58565b602002602001015187610e06565b156127835761278082615088565b91505b600101612703565b50816127a95760405162d7182160e81b815260040160405180910390fd5b336000818152600a60209081526040808320898452825291829020879055905186815287917f1f4e2aa7825ef02e85293e2de66cfbcb326af2632b558996e546bb1ef3e8764d910160405180910390a361280285612a4c565b61280d826001614e28565b1061269f5761269f8561437f565b6128258433612f0d565b6128415760405162d7182160e81b815260040160405180910390fd5b600361284c85612fda565b6102000151600781111561286257612862614b69565b1461288057604051638b7afab760e01b815260040160405180910390fd5b61288a33856116a4565b156128a85760405163039ef43f60e21b815260040160405180910390fd5b60008383836040516020016128bf939291906150a1565b6040516020818303038152906040528051906020012090506128e13386610e06565b8114612900576040516320056f9560e01b815260040160405180910390fd5b336000818152600b602090815260408083208984528252808320805460ff199081168a151517909155848452600c83528184208a8552835281842080549091166001179055928252600981528282208883529052908120805491829190612967838061504b565b9091555050604051600090339083908381818185875af1925050503d80600081146129ae576040519150601f19603f3d011682016040523d82523d6000602084013e6129b3565b606091505b50509050806129d55760405163062f129560e21b815260040160405180910390fd5b6040518615158152339088907f943b1e1e6ea36d3a013c9f482eb56e6fec8904129c7ed1869bcfe1f04727cd4c9060200160405180910390a3600080612a1a89613f56565b91509150612a2789612a4c565b612a318284614e28565b03612a4157612a4189838361402b565b505050505050505050565b6000818152600760205260408120600d015460ff16612a6d57506003919050565b506005919050565b6000612a8083612fda565b905060038161020001516007811115612a9b57612a9b614b69565b14612ab95760405163f1147dc160e01b815260040160405180910390fd5b80516000908152600f60205260409020546001600160a01b03163314612af2576040516357ddaf0360e01b815260040160405180910390fd5b600080612b028360000151613f56565b9092509050600184151514612b2257612b1a81615088565b905080612b2f565b612b2b82615088565b9150815b508251612b3d90838361402b565b825160405185151581523391907fa5a9de73cf3f9d29d054f39da7accd87d436de283ca3c87c9741f45de110df859060200160405180910390a35050505050565b336000908152600d60205260409020546001811015612bb05760405163699349c960e01b815260040160405180910390fd5b336000818152600d60205260408082208290555190919083908381818185875af1925050503d8060008114612c01576040519150601f19603f3d011682016040523d82523d6000602084013e612c06565b606091505b5050905080612c285760405163062f129560e21b815260040160405180910390fd5b60405182815233907facd5f96b832959eb7c319fe5c6b73f994c12d0be1b278b2d99a5f1132bb72d5f9060200160405180910390a25050565b6001600160a01b03919091166000908152600960209081526040808320938352929052205490565b604051630935e01b60e21b81523360048201527f00000000000000000000000000000000000000000000000000000000000000006001600160a01b0316906324d7806c906024016020604051808303816000875af1158015612cef573d6000803e3d6000fd5b505050506040513d601f19601f82011682018060405250810190612d139190614e3b565b612d305760405163249d95ab60e21b815260040160405180910390fd5b6000612d3b83612fda565b80516000908152600e602052604090205490915060ff16612d6f5760405163161c44b560e21b815260040160405180910390fd5b60038161020001516007811115612d8857612d88614b69565b14612da65760405163f1147dc160e01b815260040160405180910390fd5b80608001516001600160a01b0316826001600160a01b03161480612ddf57508060a001516001600160a01b0316826001600160a01b0316145b15612dfd576040516357ddaf0360e01b815260040160405180910390fd5b6000546040516366e305fd60e01b81526001600160a01b038481166004830152909116906366e305fd90602401602060405180830381865afa158015612e47573d6000803e3d6000fd5b505050506040513d601f19601f82011682018060405250810190612e6b9190614e3b565b612e88576040516357ddaf0360e01b815260040160405180910390fd5b8051612e949083612f0d565b15612eb2576040516357ddaf0360e01b815260040160405180910390fd5b80516000908152600f602052604080822080546001600160a01b0319166001600160a01b0386169081179091558351915190927fe3a61425d5621880310412d6593b034f43dedb3aff8bfe44e10f779c8c99d39a91a3505050565b600080612f198461242d565b905060005b816020015151811015612f745781602001518181518110612f4157612f41614e58565b60200260200101516001600160a01b0316846001600160a01b031603612f6c57600192505050610ded565b600101612f1e565b506000949350505050565b336001600160a01b037f00000000000000000000000000000000000000000000000000000000000000001614612fc857604051630fde994960e21b815260040160405180910390fd5b60008111612fd557600080fd5b600155565b612fe2614593565b600082815260076020818152604092839020835161024081018552815481526001820154928101929092526002810154938201939093526003830154606082015260048301546001600160a01b03908116608083015260058401541660a0820152600683015460c08201528282015460ff808216151560e084015261010091829004811615158284015260088501546101208401526009850154610140840152600a850154610160840152600b850154610180840152600c8501546101a0840152600d85015480821615156101c0850152918204811615156101e084015291939261020085019262010000909204909116908111156130e3576130e3614b69565b60078111156130f4576130f4614b69565b8152602001600e8201805480602002602001604051908101604052809291908181526020016000905b828210156131c957838290600052602060002001805461313c90614f02565b80601f016020809104026020016040519081016040528092919081815260200182805461316890614f02565b80156131b55780601f1061318a576101008083540402835291602001916131b5565b820191906000526020600020905b81548152906001019060200180831161319857829003601f168201915b50505050508152602001906001019061311d565b505050915250909392505050565b336001600160a01b037f0000000000000000000000000000000000000000000000000000000000000000161461322057604051630fde994960e21b815260040160405180910390fd5b600394909455600480546001600160401b039490941669ffffffffffffffffffff1990941693909317600160401b61ffff93909316929092029190911767ffffffffffffffff60501b1916600160501b63ffffffff9283160263ffffffff60701b191617600160701b9190931602919091179055565b60008181526008602052604090206132ad82612a4c565b6001820154106132d057604051638ee7667160e01b815260040160405180910390fd5b60005b6001820154811015613330578160010181815481106132f4576132f4614e58565b6000918252602090912001546001600160a01b031633036133285760405163878b00e960e01b815260040160405180910390fd5b6001016132d3565b506001543410156133545760405163f52fb72d60e01b815260040160405180910390fd5b600080546040516395fdd81560e01b81523360048201526001600160a01b03909116906395fdd81590602401602060405180830381865afa15801561339d573d6000803e3d6000fd5b505050506040513d601f19601f820116820180604052508101906133c191906150c0565b60028111156133d2576133d2614b69565b146133ef5760405162d7182160e81b815260040160405180910390fd5b6000805b825481101561343d5782600001818154811061341157613411614e58565b6000918252602090912001546001600160a01b03163303613435576001915061343d565b6001016133f3565b508061345c57604051633e2b0b9b60e11b815260040160405180910390fd5b336000818152600960209081526040808320878452825280832034905560018681018054918201815584529282902090920180546001600160a01b03191684179055905191825284917fb9860328d5325ca7d8f3f5fc1040667291a244d3862e6b2810e6f59685a9568f910160405180910390a26134d983612a4c565b6001830154036134ec576134ec836143d5565b505050565b60008281526005602090815260408083205483526007909152812060098101549091901561351d575060015b815460008181526008602052604081209160039061353a90612a4c565b6135449190614e11565b9050821561356857600261355b8560000154612a4c565b6135659190614e11565b90505b6000816001600160401b038111156135825761358261486e565b6040519080825280602002602001820160405280156135ab578160200160208202803683370190505b50905060008060008060009054906101000a90046001600160a01b03166001600160a01b03166315270cf96040518163ffffffff1660e01b8152600401602060405180830381865afa158015613605573d6000803e3d6000fd5b505050506040513d601f19601f820116820180604052508101906136299190614de2565b90505b848210156139b257600080548a516001600160a01b039091169063b3a34e959084908d90859061365e5761365e614e58565b602002602001015187604051602001613681929190918252602082015260400190565b6040516020818303038152906040528051906020012060001c6136a491906150e1565b6040518263ffffffff1660e01b81526004016136c291815260200190565b602060405180830381865afa1580156136df573d6000803e3d6000fd5b505050506040513d601f19601f8201168201806040525081019061370391906150f5565b905060008060009054906101000a90046001600160a01b03166001600160a01b031663b3a34e95848d60018151811061373e5761373e614e58565b602002602001015188604051602001613761929190918252602082015260400190565b6040516020818303038152906040528051906020012060001c61378491906150e1565b6040518263ffffffff1660e01b81526004016137a291815260200190565b602060405180830381865afa1580156137bf573d6000803e3d6000fd5b505050506040513d601f19601f820116820180604052508101906137e391906150f5565b9050600061380c83838e6000815181106137ff576137ff614e58565b602002602001015161442b565b600080546040516366e305fd60e01b81526001600160a01b038085166004830152939450919216906366e305fd90602401602060405180830381865afa15801561385a573d6000803e3d6000fd5b505050506040513d601f19601f8201168201806040525081019061387e9190614e3b565b613886575060015b60048c01546001600160a01b03838116911614806138b3575060058c01546001600160a01b038381169116145b156138bc575060015b60005b885181101561390757826001600160a01b03168982815181106138e4576138e4614e58565b60200260200101516001600160a01b0316036138ff57600191505b6001016138bf565b508a156139625760005b8a5481101561396057826001600160a01b03168b600001828154811061393957613939614e58565b6000918252602090912001546001600160a01b03160361395857600191505b600101613911565b505b8061399e578188878151811061397a5761397a614e58565b6001600160a01b039092166020928302919091019091015261399b86615088565b95505b6139a787615088565b96505050505061362c565b866139d55742600989015583516139cf908790602087019061469f565b50613a3e565b60005b8451811015613a3c57866000018582815181106139f7576139f7614e58565b60209081029190910181015182546001808201855560009485529290932090920180546001600160a01b0319166001600160a01b0390931692909217909155016139d8565b505b875460405188151581527ff483d0d3dce8a67bd1138aeab775991e343c136aacc2e506098e348ed39d19359060200160405180910390a250505050505050505050565b600354600480546040516305d3b1d360e41b8152918201929092526001600160401b038216602482015261ffff600160401b830416604482015263ffffffff600160501b830481166064830152600160701b909204909116608482015260009081906001600160a01b037f00000000000000000000000000000000000000000000000000000000000000001690635d3b1d309060a4016020604051808303816000875af1158015613b36573d6000803e3d6000fd5b505050506040513d601f19601f82011682018060405250810190613b5a9190614de2565b6000818152600560205260409020939093555090919050565b6000828152600860205260408120905b6001820154811015613d5657826001600160a01b0316826001018281548110613bae57613bae614e58565b6000918252602090912001546001600160a01b031603613d4e57600182810154613bd8919061504b565b8103613c185781600101805480613bf157613bf1615112565b600082815260209020810160001990810180546001600160a01b0319169055019055613d4e565b60018083018054600092613c2b9161504b565b81548110613c3b57613c3b614e58565b6000918252602090912001546001840180546001600160a01b0390921692509083908110613c6b57613c6b614e58565b600091825260209091200154600184810180546001600160a01b03909316929091613c959161504b565b81548110613ca557613ca5614e58565b9060005260206000200160006101000a8154816001600160a01b0302191690836001600160a01b0316021790555080836001018381548110613ce957613ce9614e58565b9060005260206000200160006101000a8154816001600160a01b0302191690836001600160a01b0316021790555082600101805480613d2a57613d2a615112565b600082815260209020810160001990810180546001600160a01b0319169055019055505b600101613b83565b5060005b8154811015613f1a57826001600160a01b0316826000018281548110613d8257613d82614e58565b6000918252602090912001546001600160a01b031603613f12578154613daa9060019061504b565b8103613de8578154829080613dc157613dc1615112565b600082815260209020810160001990810180546001600160a01b0319169055019055613f12565b81546000908390613dfb9060019061504b565b81548110613e0b57613e0b614e58565b60009182526020909120015483546001600160a01b039091169150839083908110613e3857613e38614e58565b60009182526020909120015483546001600160a01b03909116908490613e609060019061504b565b81548110613e7057613e70614e58565b9060005260206000200160006101000a8154816001600160a01b0302191690836001600160a01b0316021790555080836000018381548110613eb457613eb4614e58565b600091825260209091200180546001600160a01b0319166001600160a01b03929092169190911790558254839080613eee57613eee615112565b600082815260209020810160001990810180546001600160a01b0319169055019055505b600101613d5a565b506040516001600160a01b0383169084907f65a0cd347c3f9ebf319a28e59f3ae96d09c1f0d2d7192617a267b2f56911e12c90600090a3505050565b6000806000613f648461242d565b905060008060005b83602001515181101561401f57613fa084602001518281518110613f9257613f92614e58565b6020026020010151886116a4565b1561401757600b600085602001518381518110613fbf57613fbf614e58565b6020908102919091018101516001600160a01b0316825281810192909252604090810160009081208a825290925290205460ff166140085761400082615088565b915081614015565b61401183615088565b9250825b505b600101613f6c565b50909590945092505050565b6000838152600760205260408120600d810180546101008587110262ffff0019909116176204000017905542600c8201559061406685612a4c565b82600601546140759190615074565b600683015490915060006140888761242d565b905060005b816020015151811015614273576140c1826020015182815181106140b3576140b3614e58565b6020026020010151896116a4565b1561426b57600d850154610100900460ff16801561412e5750600b6000836020015183815181106140f4576140f4614e58565b6020908102919091018101516001600160a01b0316825281810192909252604090810160009081208b825290925290205460ff1615156001145b1561419c5783600d60008460200151848151811061414e5761414e614e58565b60200260200101516001600160a01b03166001600160a01b0316815260200190815260200160002060008282546141859190614e28565b909155506141959050848461504b565b925061426b565b600d850154610100900460ff161580156142015750600b6000836020015183815181106141cb576141cb614e58565b6020908102919091018101516001600160a01b0316825281810192909252604090810160009081208b825290925290205460ff16155b1561426b5783600d60008460200151848151811061422157614221614e58565b60200260200101516001600160a01b03166001600160a01b0316815260200190815260200160002060008282546142589190614e28565b909155506142689050848461504b565b92505b60010161408d565b5060068401546000888152600260205260408120805490919061429790849061504b565b9091555050811561430a5760008054906101000a90046001600160a01b03166001600160a01b0316638166639b836040518263ffffffff1660e01b81526004016000604051808303818588803b1580156142f057600080fd5b505af1158015614304573d6000803e3d6000fd5b50505050505b600d840154600090610100900460ff166143265750848061432a565b5085805b50600d8501546040805161010090920460ff16151582526020820183905289917f4210d99ad245cdfd8b921a79ffd66547982bfbc01448696bcf3cb43a281e33aa910160405180910390a25050505050505050565b600081815260076020526040808220600d8101805462ff000019166203000017905542600b8201559051909183917fbb317f735908ac3adfcb543a1ed1d371a2723bdc618eb60efa4c85e9288616dd9190a25050565b600081815260076020526040808220600d8101805462ff000019166202000017905542600a8201559051909183917f901306934aa5c62c3de0e22b3f7ddb888c060f82c4f4836e420a16a7156831969190a25050565b6000805460405163011bec8f60e61b81526001600160a01b038681166004830152839216906346fb23c090602401602060405180830381865afa158015614476573d6000803e3d6000fd5b505050506040513d601f19601f8201168201806040525081019061449a9190614de2565b6000805460405163011bec8f60e61b81526001600160a01b038881166004830152939450919216906346fb23c090602401602060405180830381865afa1580156144e8573d6000803e3d6000fd5b505050506040513d601f19601f8201168201806040525081019061450c9190614de2565b9050858183111561454e576145218284614e28565b61452c846064614e11565b6145369190615074565b6145416064876150e1565b106145495750845b614589565b82821115614589576145608284614e28565b61456b836064614e11565b6145759190615074565b6145806064876150e1565b10156145895750845b9695505050505050565b6040518061024001604052806000815260200160008152602001600081526020016000815260200160006001600160a01b0316815260200160006001600160a01b031681526020016000815260200160001515815260200160001515815260200160008152602001600081526020016000815260200160008152602001600081526020016000151581526020016000151581526020016000600781111561463c5761463c614b69565b8152602001606081525090565b82805482825590600052602060002090810192821561468f579160200282015b8281111561468f578251829061467f9082615128565b5091602001919060010190614669565b5061469b929150614700565b5090565b8280548282559060005260206000209081019282156146f4579160200282015b828111156146f457825182546001600160a01b0319166001600160a01b039091161782556020909201916001909101906146bf565b5061469b92915061471d565b8082111561469b5760006147148282614732565b50600101614700565b5b8082111561469b576000815560010161471e565b50805461473e90614f02565b6000825580601f1061474e575050565b601f01602090049060005260206000209081019061476c919061471d565b50565b6001600160a01b038116811461476c57600080fd5b600080600080600060a0868803121561479c57600080fd5b85359450602086013593506040860135925060608601356147bc8161476f565b915060808601356147cc8161476f565b809150509295509295909350565b6000602082840312156147ec57600080fd5b5035919050565b801515811461476c57600080fd5b60006020828403121561481357600080fd5b813561481e816147f3565b9392505050565b6000806040838503121561483857600080fd5b82356148438161476f565b946020939093013593505050565b60006020828403121561486357600080fd5b813561481e8161476f565b634e487b7160e01b600052604160045260246000fd5b6000806040838503121561489757600080fd5b823591506020808401356001600160401b03808211156148b657600080fd5b818601915086601f8301126148ca57600080fd5b8135818111156148dc576148dc61486e565b8060051b604051601f19603f830116810181811085821117156149015761490161486e565b60405291825284820192508381018501918983111561491f57600080fd5b938501935b8285101561493d57843584529385019392850192614924565b8096505050505050509250929050565b60008083601f84011261495f57600080fd5b5081356001600160401b0381111561497657600080fd5b6020830191508360208260051b850101111561499157600080fd5b9250929050565b6000806000604084860312156149ad57600080fd5b8335925060208401356001600160401b038111156149ca57600080fd5b6149d68682870161494d565b9497909650939450505050565b60008151808452602080850194506020840160005b83811015614a1d5781516001600160a01b0316875295820195908201906001016149f8565b509495945050505050565b602081526000825160406020840152614a4460608401826149e3565b90506020840151601f19848303016040850152614a6182826149e3565b95945050505050565b60008060408385031215614a7d57600080fd5b50508035926020909101359150565b60008060008060608587031215614aa257600080fd5b843593506020850135614ab4816147f3565b925060408501356001600160401b0380821115614ad057600080fd5b818701915087601f830112614ae457600080fd5b813581811115614af357600080fd5b886020828501011115614b0557600080fd5b95989497505060200194505050565b60008060408385031215614b2757600080fd5b823591506020830135614b39816147f3565b809150509250929050565b60008060408385031215614b5757600080fd5b823591506020830135614b398161476f565b634e487b7160e01b600052602160045260246000fd5b60088110614b9d57634e487b7160e01b600052602160045260246000fd5b9052565b600082825180855260208086019550808260051b8401018186016000805b85811015614c1b57601f1980888603018b5283518051808752845b81811015614bf5578281018901518882018a01528801614bda565b5086810188018590529b87019b601f019091169094018501935091840191600101614bbf565b509198975050505050505050565b602081528151602082015260208201516040820152604082015160608201526060820151608082015260006080830151614c6e60a08401826001600160a01b03169052565b5060a08301516001600160a01b03811660c08401525060c083015160e083015260e0830151610100614ca38185018315159052565b8401519050610120614cb88482018315159052565b8401516101408481019190915284015161016080850191909152840151610180808501919091528401516101a0808501919091528401516101c08085019190915284015190506101e0614d0e8185018315159052565b8401519050610200614d238482018315159052565b8401519050610220614d3784820183614b7f565b840151610240848101529050614d51610260840182614ba1565b949350505050565b803563ffffffff81168114610e0157600080fd5b600080600080600060a08688031215614d8557600080fd5b8535945060208601356001600160401b0381168114614da357600080fd5b9350604086013561ffff81168114614dba57600080fd5b9250614dc860608701614d59565b9150614dd660808701614d59565b90509295509295909350565b600060208284031215614df457600080fd5b5051919050565b634e487b7160e01b600052601160045260246000fd5b8082028115828204841417610ded57610ded614dfb565b80820180821115610ded57610ded614dfb565b600060208284031215614e4d57600080fd5b815161481e816147f3565b634e487b7160e01b600052603260045260246000fd5b60208082528181018390526000908460408401835b86811015614eb1578235614e968161476f565b6001600160a01b031682529183019190830190600101614e83565b509695505050505050565b6000808335601e19843603018112614ed357600080fd5b8301803591506001600160401b03821115614eed57600080fd5b60200191503681900382131561499157600080fd5b600181811c90821680614f1657607f821691505b602082108103614f3657634e487b7160e01b600052602260045260246000fd5b50919050565b601f8211156134ec576000816000526020600020601f850160051c81016020861015614f655750805b601f850160051c820191505b81811015614f8457828155600101614f71565b505050505050565b6001600160401b03831115614fa357614fa361486e565b614fb783614fb18354614f02565b83614f3c565b6000601f841160018114614feb5760008515614fd35750838201355b600019600387901b1c1916600186901b17835561269f565b600083815260209020601f19861690835b8281101561501c5786850135825560209485019460019092019101614ffc565b50868210156150395760001960f88860031b161c19848701351681555b505060018560011b0183555050505050565b81810381811115610ded57610ded614dfb565b634e487b7160e01b600052601260045260246000fd5b6000826150835761508361505e565b500490565b60006001820161509a5761509a614dfb565b5060010190565b83151560f81b8152818360018301376000910160010190815292915050565b6000602082840312156150d257600080fd5b81516003811061481e57600080fd5b6000826150f0576150f061505e565b500690565b60006020828403121561510757600080fd5b815161481e8161476f565b634e487b7160e01b600052603160045260246000fd5b81516001600160401b038111156151415761514161486e565b6151558161514f8454614f02565b84614f3c565b602080601f83116001811461518a57600084156151725750858301515b600019600386901b1c1916600185901b178555614f84565b600085815260208120601f198616915b828110156151b95788860151825594840194600190910190840161519a565b50858210156151d75787850151600019600388901b60f8161c191681555b5050505050600190811b0190555056fea2646970667358221220510ff2aa45dd2f24b842eb8e251523b3a726462c550d8bec262c9e98ef5b496864736f6c63430008170033","linkReferences":{}},"methodIdentifiers":{"DISCLOSURE_PERIOD()":"8a497cc6","GOVERNOR()":"6dc0ae22","MARKETPLACE()":"ffef3cf0","PANEL_DRAWING_MULTIPLIER_APPEAL()":"d11f8c08","PANEL_DRAWING_MULTIPLIER_NORMAL()":"4100f708","PANEL_SELECTION_PERIOD()":"f983657a","PANEL_SIZE_APPEAL()":"cc7b11b9","PANEL_SIZE_NORMAL()":"18991f6b","REVEAL_PERIOD()":"c3529f31","VOTING_PERIOD()":"b1610d7e","VRF_COORDINATOR()":"05f6a924","acceptCase(uint256)":"f8ef1382","appeal(uint256)":"7e69b7b0","arbiter(uint256)":"d40b7f77","assignAdditionalMediators(uint256,address[])":"33331883","assignArbiter(uint256,address)":"b348ba73","breakTie(uint256,bool)":"a949259b","calculateMediationFee(bool)":"0ba26139","callbackGasLimit()":"24f74697","claimMediatorFees()":"a9493930","commitVote(uint256,bytes32)":"9da69180","createDispute(uint256,uint256,uint256,address,address)":"0872ab98","dismissUnpaidCase(uint256)":"4dce966a","disputeIds()":"e026b7fb","drawAdditionalMediators(uint256)":"2ef048a3","getCommit(address,uint256)":"1065ebda","getDispute(uint256)":"e3a96cbd","getFeesHeld(uint256)":"d93bacd9","getMediatorFeesOwed(address)":"1895c651","getMediatorStakeHeld(address,uint256)":"ac98b972","getPanel(uint256)":"94f178df","getVote(address,uint256)":"6b0dd90f","hasRevealedVote(address,uint256)":"4dfe57e1","isConfirmedMediator(uint256,address)":"cf1aa615","keyHash()":"61728f39","mediatorFlatFee()":"f2f61724","mediatorPool()":"40b7a582","mediatorsNeeded(uint256)":"a0d58f93","numWords()":"7ccfd7fc","overdueCommit(uint256)":"74f785ee","overdueReveal(uint256)":"9119a62b","payMediationFee(uint256,string[])":"4b875b55","rawFulfillRandomWords(uint256,uint256[])":"1fe543e3","reclaimMediationFee(uint256)":"8f2897d5","requestConfirmations()":"b0fb162f","requestDefaultDecision(uint256)":"855244a0","revealVote(uint256,bool,string)":"a00724ff","setMediatorFlatFee(uint256)":"d8133456","setVrfConfig(bytes32,uint64,uint16,uint32,uint32)":"e9490bd6","settledExternally(uint256)":"0a118bec","submitAdditionalEvidence(uint256,string[])":"986106fb","subscriptionId()":"09c1ba2e","votesTied(uint256)":"0d3377c7","vrfRequestToDispute(uint256)":"98414368"},"id":41}