{"abi":[{"type":"constructor","inputs":[{"name":"_governor","type":"address","internalType":"address"},{"name":"_mediatorPool","type":"address","internalType":"address"},{"name":"_vrfCoordinatorV2","type":"address","internalType":"address"},{"name":"_keyHash","type":"bytes32","internalType":"bytes32"},{"name":"_subscriptionId","type":"uint64","internalType":"uint64"},{"name":"_calculatedMarketplace","type":"address","internalType":"address"}],"stateMutability":"nonpayable"},{"type":"function","name":"DISCLOSURE_PERIOD","inputs":[],"outputs":[{"name":"","type":"uint24","internalType":"uint24"}],"stateMutability":"view"},{"type":"function","name":"GOVERNOR","inputs":[],"outputs":[{"name":"","type":"address","internalType":"address"}],"stateMutability":"view"},{"type":"function","name":"MARKETPLACE","inputs":[],"outputs":[{"name":"","type":"address","internalType":"address"}],"stateMutability":"view"},{"type":"function","name":"PANEL_DRAWING_MULTIPLIER_APPEAL","inputs":[],"outputs":[{"name":"","type":"uint256","internalType":"uint256"}],"stateMutability":"view"},{"type":"function","name":"PANEL_DRAWING_MULTIPLIER_NORMAL","inputs":[],"outputs":[{"name":"","type":"uint256","internalType":"uint256"}],"stateMutability":"view"},{"type":"function","name":"PANEL_SELECTION_PERIOD","inputs":[],"outputs":[{"name":"","type":"uint24","internalType":"uint24"}],"stateMutability":"view"},{"type":"function","name":"PANEL_SIZE_APPEAL","inputs":[],"outputs":[{"name":"","type":"uint256","internalType":"uint256"}],"stateMutability":"view"},{"type":"function","name":"PANEL_SIZE_NORMAL","inputs":[],"outputs":[{"name":"","type":"uint256","internalType":"uint256"}],"stateMutability":"view"},{"type":"function","name":"REVEAL_PERIOD","inputs":[],"outputs":[{"name":"","type":"uint24","internalType":"uint24"}],"stateMutability":"view"},{"type":"function","name":"VOTING_PERIOD","inputs":[],"outputs":[{"name":"","type":"uint24","internalType":"uint24"}],"stateMutability":"view"},{"type":"function","name":"VRF_COORDINATOR","inputs":[],"outputs":[{"name":"","type":"address","internalType":"contract VRFCoordinatorV2Interface"}],"stateMutability":"view"},{"type":"function","name":"acceptCase","inputs":[{"name":"_disputeId","type":"uint256","internalType":"uint256"}],"outputs":[],"stateMutability":"payable"},{"type":"function","name":"appeal","inputs":[{"name":"_projectId","type":"uint256","internalType":"uint256"}],"outputs":[{"name":"","type":"uint256","internalType":"uint256"}],"stateMutability":"nonpayable"},{"type":"function","name":"arbiter","inputs":[{"name":"","type":"uint256","internalType":"uint256"}],"outputs":[{"name":"","type":"address","internalType":"address"}],"stateMutability":"view"},{"type":"function","name":"assignAdditionalMediators","inputs":[{"name":"_disputeId","type":"uint256","internalType":"uint256"},{"name":"_additionalMediators","type":"address[]","internalType":"address[]"}],"outputs":[],"stateMutability":"nonpayable"},{"type":"function","name":"assignArbiter","inputs":[{"name":"_disputeId","type":"uint256","internalType":"uint256"},{"name":"_arbiter","type":"address","internalType":"address"}],"outputs":[],"stateMutability":"nonpayable"},{"type":"function","name":"breakTie","inputs":[{"name":"_disputeId","type":"uint256","internalType":"uint256"},{"name":"_arbiterVote","type":"bool","internalType":"bool"}],"outputs":[],"stateMutability":"nonpayable"},{"type":"function","name":"calculateMediationFee","inputs":[{"name":"isAppeal","type":"bool","internalType":"bool"}],"outputs":[{"name":"","type":"uint256","internalType":"uint256"}],"stateMutability":"view"},{"type":"function","name":"callbackGasLimit","inputs":[],"outputs":[{"name":"","type":"uint32","internalType":"uint32"}],"stateMutability":"view"},{"type":"function","name":"claimMediatorFees","inputs":[],"outputs":[],"stateMutability":"nonpayable"},{"type":"function","name":"commitVote","inputs":[{"name":"_disputeId","type":"uint256","internalType":"uint256"},{"name":"_commit","type":"bytes32","internalType":"bytes32"}],"outputs":[],"stateMutability":"nonpayable"},{"type":"function","name":"createDispute","inputs":[{"name":"_projectId","type":"uint256","internalType":"uint256"},{"name":"_adjustedProjectFee","type":"uint256","internalType":"uint256"},{"name":"_providerStakeForfeit","type":"uint256","internalType":"uint256"},{"name":"_claimant","type":"address","internalType":"address"},{"name":"_respondent","type":"address","internalType":"address"}],"outputs":[{"name":"","type":"uint256","internalType":"uint256"}],"stateMutability":"nonpayable"},{"type":"function","name":"dismissUnpaidCase","inputs":[{"name":"_disputeId","type":"uint256","internalType":"uint256"}],"outputs":[],"stateMutability":"nonpayable"},{"type":"function","name":"disputeIds","inputs":[],"outputs":[{"name":"_value","type":"uint256","internalType":"uint256"}],"stateMutability":"view"},{"type":"function","name":"drawAdditionalMediators","inputs":[{"name":"_disputeId","type":"uint256","internalType":"uint256"}],"outputs":[],"stateMutability":"nonpayable"},{"type":"function","name":"getCommit","inputs":[{"name":"_mediator","type":"address","internalType":"address"},{"name":"_disputeId","type":"uint256","internalType":"uint256"}],"outputs":[{"name":"","type":"bytes32","internalType":"bytes32"}],"stateMutability":"view"},{"type":"function","name":"getDispute","inputs":[{"name":"_disputeId","type":"uint256","internalType":"uint256"}],"outputs":[{"name":"","type":"tuple","internalType":"struct DataStructuresLibrary.Dispute","components":[{"name":"disputeId","type":"uint256","internalType":"uint256"},{"name":"projectId","type":"uint256","internalType":"uint256"},{"name":"adjustedProjectFee","type":"uint256","internalType":"uint256"},{"name":"providerStakeForfeit","type":"uint256","internalType":"uint256"},{"name":"claimant","type":"address","internalType":"address"},{"name":"respondent","type":"address","internalType":"address"},{"name":"mediationFee","type":"uint256","internalType":"uint256"},{"name":"feePaidClaimant","type":"bool","internalType":"bool"},{"name":"feePaidRespondent","type":"bool","internalType":"bool"},{"name":"disclosureStart","type":"uint256","internalType":"uint256"},{"name":"selectionStart","type":"uint256","internalType":"uint256"},{"name":"votingStart","type":"uint256","internalType":"uint256"},{"name":"revealStart","type":"uint256","internalType":"uint256"},{"name":"decisionRenderedDate","type":"uint256","internalType":"uint256"},{"name":"isAppeal","type":"bool","internalType":"bool"},{"name":"granted","type":"bool","internalType":"bool"},{"name":"phase","type":"uint8","internalType":"enum DataStructuresLibrary.Phase"},{"name":"evidence","type":"string[]","internalType":"string[]"}]}],"stateMutability":"view"},{"type":"function","name":"getFeesHeld","inputs":[{"name":"_disputeId","type":"uint256","internalType":"uint256"}],"outputs":[{"name":"","type":"uint256","internalType":"uint256"}],"stateMutability":"view"},{"type":"function","name":"getMediatorFeesOwed","inputs":[{"name":"_mediator","type":"address","internalType":"address"}],"outputs":[{"name":"","type":"uint256","internalType":"uint256"}],"stateMutability":"view"},{"type":"function","name":"getMediatorStakeHeld","inputs":[{"name":"_mediator","type":"address","internalType":"address"},{"name":"_disputeId","type":"uint256","internalType":"uint256"}],"outputs":[{"name":"","type":"uint256","internalType":"uint256"}],"stateMutability":"view"},{"type":"function","name":"getPanel","inputs":[{"name":"_disputeId","type":"uint256","internalType":"uint256"}],"outputs":[{"name":"","type":"tuple","internalType":"struct DataStructuresLibrary.Panel","components":[{"name":"drawnMediators","type":"address[]","internalType":"address[]"},{"name":"confirmedMediators","type":"address[]","internalType":"address[]"}]}],"stateMutability":"view"},{"type":"function","name":"getVote","inputs":[{"name":"_mediator","type":"address","internalType":"address"},{"name":"_disputeId","type":"uint256","internalType":"uint256"}],"outputs":[{"name":"","type":"bool","internalType":"bool"}],"stateMutability":"view"},{"type":"function","name":"hasRevealedVote","inputs":[{"name":"_mediator","type":"address","internalType":"address"},{"name":"_disputeId","type":"uint256","internalType":"uint256"}],"outputs":[{"name":"","type":"bool","internalType":"bool"}],"stateMutability":"view"},{"type":"function","name":"isConfirmedMediator","inputs":[{"name":"_disputeId","type":"uint256","internalType":"uint256"},{"name":"_mediator","type":"address","internalType":"address"}],"outputs":[{"name":"","type":"bool","internalType":"bool"}],"stateMutability":"view"},{"type":"function","name":"keyHash","inputs":[],"outputs":[{"name":"","type":"bytes32","internalType":"bytes32"}],"stateMutability":"view"},{"type":"function","name":"mediatorFlatFee","inputs":[],"outputs":[{"name":"","type":"uint256","internalType":"uint256"}],"stateMutability":"view"},{"type":"function","name":"mediatorPool","inputs":[],"outputs":[{"name":"","type":"address","internalType":"contract IMediatorPool"}],"stateMutability":"view"},{"type":"function","name":"mediatorsNeeded","inputs":[{"name":"disputeId","type":"uint256","internalType":"uint256"}],"outputs":[{"name":"","type":"uint256","internalType":"uint256"}],"stateMutability":"view"},{"type":"function","name":"numWords","inputs":[],"outputs":[{"name":"","type":"uint32","internalType":"uint32"}],"stateMutability":"view"},{"type":"function","name":"overdueCommit","inputs":[{"name":"_disputeId","type":"uint256","internalType":"uint256"}],"outputs":[],"stateMutability":"nonpayable"},{"type":"function","name":"overdueReveal","inputs":[{"name":"_disputeId","type":"uint256","internalType":"uint256"}],"outputs":[],"stateMutability":"nonpayable"},{"type":"function","name":"payMediationFee","inputs":[{"name":"_disputeId","type":"uint256","internalType":"uint256"},{"name":"_evidenceURIs","type":"string[]","internalType":"string[]"}],"outputs":[],"stateMutability":"payable"},{"type":"function","name":"rawFulfillRandomWords","inputs":[{"name":"requestId","type":"uint256","internalType":"uint256"},{"name":"randomWords","type":"uint256[]","internalType":"uint256[]"}],"outputs":[],"stateMutability":"nonpayable"},{"type":"function","name":"reclaimMediationFee","inputs":[{"name":"_disputeId","type":"uint256","internalType":"uint256"}],"outputs":[],"stateMutability":"nonpayable"},{"type":"function","name":"requestConfirmations","inputs":[],"outputs":[{"name":"","type":"uint16","internalType":"uint16"}],"stateMutability":"view"},{"type":"function","name":"requestDefaultDecision","inputs":[{"name":"_disputeId","type":"uint256","internalType":"uint256"}],"outputs":[],"stateMutability":"nonpayable"},{"type":"function","name":"revealVote","inputs":[{"name":"_disputeId","type":"uint256","internalType":"uint256"},{"name":"_vote","type":"bool","internalType":"bool"},{"name":"_salt","type":"string","internalType":"string"}],"outputs":[],"stateMutability":"nonpayable"},{"type":"function","name":"setMediatorFlatFee","inputs":[{"name":"_flatFee","type":"uint256","internalType":"uint256"}],"outputs":[],"stateMutability":"nonpayable"},{"type":"function","name":"settledExternally","inputs":[{"name":"_disputeId","type":"uint256","internalType":"uint256"}],"outputs":[],"stateMutability":"nonpayable"},{"type":"function","name":"submitAdditionalEvidence","inputs":[{"name":"_disputeId","type":"uint256","internalType":"uint256"},{"name":"_evidenceURIs","type":"string[]","internalType":"string[]"}],"outputs":[],"stateMutability":"nonpayable"},{"type":"function","name":"subscriptionId","inputs":[],"outputs":[{"name":"","type":"uint64","internalType":"uint64"}],"stateMutability":"view"},{"type":"function","name":"votesTied","inputs":[{"name":"","type":"uint256","internalType":"uint256"}],"outputs":[{"name":"","type":"bool","internalType":"bool"}],"stateMutability":"view"},{"type":"function","name":"vrfRequestToDispute","inputs":[{"name":"","type":"uint256","internalType":"uint256"}],"outputs":[{"name":"","type":"uint256","internalType":"uint256"}],"stateMutability":"view"},{"type":"event","name":"AdditionalMediatorDrawingInitiated","inputs":[{"name":"disputeId","type":"uint256","indexed":true,"internalType":"uint256"},{"name":"requestId","type":"uint256","indexed":false,"internalType":"uint256"}],"anonymous":false},{"type":"event","name":"AdditionalMediatorsAssigned","inputs":[{"name":"disputeId","type":"uint256","indexed":true,"internalType":"uint256"},{"name":"assignedMediators","type":"address[]","indexed":false,"internalType":"address[]"}],"anonymous":false},{"type":"event","name":"AppealCreated","inputs":[{"name":"disputeId","type":"uint256","indexed":true,"internalType":"uint256"},{"name":"originalDisputeId","type":"uint256","indexed":true,"internalType":"uint256"},{"name":"projectId","type":"uint256","indexed":false,"internalType":"uint256"}],"anonymous":false},{"type":"event","name":"ArbiterAssigned","inputs":[{"name":"disputeId","type":"uint256","indexed":true,"internalType":"uint256"},{"name":"arbiter","type":"address","indexed":true,"internalType":"address"}],"anonymous":false},{"type":"event","name":"ArbiterVote","inputs":[{"name":"disputeId","type":"uint256","indexed":true,"internalType":"uint256"},{"name":"arbiter","type":"address","indexed":true,"internalType":"address"},{"name":"vote","type":"bool","indexed":false,"internalType":"bool"}],"anonymous":false},{"type":"event","name":"CaseDismissed","inputs":[{"name":"disputeId","type":"uint256","indexed":true,"internalType":"uint256"}],"anonymous":false},{"type":"event","name":"DecisionReached","inputs":[{"name":"disputeId","type":"uint256","indexed":true,"internalType":"uint256"},{"name":"decision","type":"bool","indexed":false,"internalType":"bool"},{"name":"majorityVotes","type":"uint256","indexed":false,"internalType":"uint256"}],"anonymous":false},{"type":"event","name":"DefaultDecisionEntered","inputs":[{"name":"disputeId","type":"uint256","indexed":true,"internalType":"uint256"},{"name":"claimedBy","type":"address","indexed":true,"internalType":"address"},{"name":"decision","type":"bool","indexed":false,"internalType":"bool"}],"anonymous":false},{"type":"event","name":"DisputeCreated","inputs":[{"name":"disputeId","type":"uint256","indexed":true,"internalType":"uint256"},{"name":"projectId","type":"uint256","indexed":false,"internalType":"uint256"}],"anonymous":false},{"type":"event","name":"MediationFeePaid","inputs":[{"name":"disputeId","type":"uint256","indexed":true,"internalType":"uint256"},{"name":"user","type":"address","indexed":true,"internalType":"address"}],"anonymous":false},{"type":"event","name":"MediationFeeReclaimed","inputs":[{"name":"disputeId","type":"uint256","indexed":true,"internalType":"uint256"},{"name":"claimedBy","type":"address","indexed":true,"internalType":"address"},{"name":"amount","type":"uint256","indexed":false,"internalType":"uint256"}],"anonymous":false},{"type":"event","name":"MediatorConfirmed","inputs":[{"name":"disputeId","type":"uint256","indexed":true,"internalType":"uint256"},{"name":"mediatorAddress","type":"address","indexed":false,"internalType":"address"}],"anonymous":false},{"type":"event","name":"MediatorFeesClaimed","inputs":[{"name":"mediator","type":"address","indexed":true,"internalType":"address"},{"name":"amount","type":"uint256","indexed":false,"internalType":"uint256"}],"anonymous":false},{"type":"event","name":"MediatorRemoved","inputs":[{"name":"disputeId","type":"uint256","indexed":true,"internalType":"uint256"},{"name":"mediator","type":"address","indexed":true,"internalType":"address"}],"anonymous":false},{"type":"event","name":"OverdueReveal","inputs":[{"name":"disputeId","type":"uint256","indexed":true,"internalType":"uint256"},{"name":"deadlocked","type":"bool","indexed":false,"internalType":"bool"}],"anonymous":false},{"type":"event","name":"PanelDrawn","inputs":[{"name":"disputeId","type":"uint256","indexed":true,"internalType":"uint256"},{"name":"isRedraw","type":"bool","indexed":false,"internalType":"bool"}],"anonymous":false},{"type":"event","name":"PanelSelectionInitiated","inputs":[{"name":"disputeId","type":"uint256","indexed":true,"internalType":"uint256"},{"name":"requestId","type":"uint256","indexed":false,"internalType":"uint256"}],"anonymous":false},{"type":"event","name":"RevealInitiated","inputs":[{"name":"disputeId","type":"uint256","indexed":true,"internalType":"uint256"}],"anonymous":false},{"type":"event","name":"SettledExternally","inputs":[{"name":"disputeId","type":"uint256","indexed":true,"internalType":"uint256"}],"anonymous":false},{"type":"event","name":"VoteCommitted","inputs":[{"name":"disputeId","type":"uint256","indexed":true,"internalType":"uint256"},{"name":"mediator","type":"address","indexed":true,"internalType":"address"},{"name":"commit","type":"bytes32","indexed":false,"internalType":"bytes32"}],"anonymous":false},{"type":"event","name":"VoteRevealed","inputs":[{"name":"disputeId","type":"uint256","indexed":true,"internalType":"uint256"},{"name":"mediator","type":"address","indexed":true,"internalType":"address"},{"name":"vote","type":"bool","indexed":false,"internalType":"bool"}],"anonymous":false},{"type":"event","name":"VotingInitiated","inputs":[{"name":"disputeId","type":"uint256","indexed":true,"internalType":"uint256"}],"anonymous":false},{"type":"error","name":"MediationService__AlreadyConfirmedMediator","inputs":[]},{"type":"error","name":"MediationService__AlreadyRevealed","inputs":[]},{"type":"error","name":"MediationService__CannotRevealBeforeAllVotesCommitted","inputs":[]},{"type":"error","name":"MediationService__CaseNotDeadlocked","inputs":[]},{"type":"error","name":"MediationService__DISABLED_FOR_BETA","inputs":[]},{"type":"error","name":"MediationService__DisputeCannotBeAppealed","inputs":[]},{"type":"error","name":"MediationService__DisputeDoesNotExist","inputs":[]},{"type":"error","name":"MediationService__EvidenceCanNoLongerBeSubmitted","inputs":[]},{"type":"error","name":"MediationService__FeesNotOverdue","inputs":[]},{"type":"error","name":"MediationService__InitialSelectionPeriodStillOpen","inputs":[]},{"type":"error","name":"MediationService__InsufficientAmount","inputs":[]},{"type":"error","name":"MediationService__InsufficientMediatorStake","inputs":[]},{"type":"error","name":"MediationService__InvalidArbiter","inputs":[]},{"type":"error","name":"MediationService__InvalidCommit","inputs":[]},{"type":"error","name":"MediationService__InvalidMediator","inputs":[]},{"type":"error","name":"MediationService__MediationFeeAlreadyPaid","inputs":[]},{"type":"error","name":"MediationService__MediationFeeAlreadyReclaimed","inputs":[]},{"type":"error","name":"MediationService__MediationFeeCannotBeReclaimed","inputs":[]},{"type":"error","name":"MediationService__MediationFeeNotPaid","inputs":[]},{"type":"error","name":"MediationService__MediatorHasAlreadyCommmitedVote","inputs":[]},{"type":"error","name":"MediationService__MediatorSeatsFilled","inputs":[]},{"type":"error","name":"MediationService__NoMediatorFeesOwed","inputs":[]},{"type":"error","name":"MediationService__NoOverdueCommits","inputs":[]},{"type":"error","name":"MediationService__NotDrawnMediator","inputs":[]},{"type":"error","name":"MediationService__OnlyAdmin","inputs":[]},{"type":"error","name":"MediationService__OnlyDisputant","inputs":[]},{"type":"error","name":"MediationService__OnlyDuringDisclosure","inputs":[]},{"type":"error","name":"MediationService__OnlyDuringPanelSelection","inputs":[]},{"type":"error","name":"MediationService__OnlyDuringReveal","inputs":[]},{"type":"error","name":"MediationService__OnlyGovernor","inputs":[]},{"type":"error","name":"MediationService__OnlyMarketplace","inputs":[]},{"type":"error","name":"MediationService__OnlyPrevailingParty","inputs":[]},{"type":"error","name":"MediationService__PanelAlreadyRedrawn","inputs":[]},{"type":"error","name":"MediationService__PanelNotRedrawn","inputs":[]},{"type":"error","name":"MediationService__ProjectHasOpenDispute","inputs":[]},{"type":"error","name":"MediationService__ProjectIsNotDisputed","inputs":[]},{"type":"error","name":"MediationService__RevealDoesNotMatchCommit","inputs":[]},{"type":"error","name":"MediationService__RevealPeriodStillActive","inputs":[]},{"type":"error","name":"MediationService__TransferFailed","inputs":[]},{"type":"error","name":"MediationService__VoteHasNotBeenRevealed","inputs":[]},{"type":"error","name":"MediationService__VotingPeriodStillActive","inputs":[]},{"type":"error","name":"OnlyCoordinatorCanFulfill","inputs":[{"name":"have","type":"address","internalType":"address"},{"name":"want","type":"address","internalType":"address"}]}],"bytecode":{"object":"0x61010060405266038d7ea4c6800060015560048054600160401b600160901b0319166e02000c3500000300000000000000001790553480156200004157600080fd5b5060405162005184380380620051848339810160408190526200006491620000e2565b6001600160a01b03938416608081905295841660a052600080546001600160a01b0319169585169590951790945560e094909452600355600480546001600160401b0319166001600160401b03909416939093179092551660c05262000168565b80516001600160a01b0381168114620000dd57600080fd5b919050565b60008060008060008060c08789031215620000fc57600080fd5b6200010787620000c5565b95506200011760208801620000c5565b94506200012760408801620000c5565b6060880151608089015191955093506001600160401b03811681146200014c57600080fd5b91506200015c60a08801620000c5565b90509295509295509295565b60805160a05160c05160e051614faa620001da600039600081816103310152613838015260008181610a2801528181610a5701528181610d1201526118b601526000818161061901528181610f9701528181612aa60152612d92015260008181610dfb0152610e3d0152614faa6000f3fe60806040526004361061031a5760003560e01c80638f2897d5116101ab578063b348ba73116100f7578063d93bacd911610095578063f2f617241161006f578063f2f61724146109ed578063f8ef138214610a03578063f983657a146108c5578063ffef3cf014610a1657600080fd5b8063d93bacd91461097c578063e026b7fb146109a9578063e3a96cbd146109c057600080fd5b8063cf1aa615116100d1578063cf1aa615146108f1578063d11f8c0814610911578063d40b7f7714610926578063d81334561461095c57600080fd5b8063b348ba73146108a5578063c3529f31146108c5578063cc7b11b9146108dc57600080fd5b8063a00724ff11610164578063a94939301161013e578063a949393014610824578063ac98b97214610839578063b0fb162f14610859578063b1610d7e1461088e57600080fd5b8063a00724ff146107c4578063a0d58f93146107e4578063a949259b1461080457600080fd5b80638f2897d5146106ea5780639119a62b1461070a57806394f178df1461072a5780639841436814610757578063986106fb146107845780639da69180146107a457600080fd5b806340b7a5821161026a5780636b0dd90f116102235780637ccfd7fc116101fd5780637ccfd7fc1461065b5780637e69b7b01461067f578063855244a01461069f5780638a497cc6146106bf57600080fd5b80636b0dd90f146105e75780636dc0ae221461060757806374f785ee1461063b57600080fd5b806340b7a5821461055e5780634100f708146104b05780634b875b551461057e5780634dce966a146105915780634dfe57e1146105b157806361728f39146105d157600080fd5b80631065ebda116102d75780631fe543e3116102b15780631fe543e3146104c557806324f74697146104e55780632ef048a31461051e578063333318831461053e57600080fd5b80631065ebda1461045a5780631895c6511461047a57806318991f6b146104b057600080fd5b806305f6a9241461031f5780630872ab981461037057806309c1ba2e1461039e5780630a118bec146103d85780630ba26139146103fa5780630d3377c71461041a575b600080fd5b34801561032b57600080fd5b506103537f000000000000000000000000000000000000000000000000000000000000000081565b6040516001600160a01b0390911681526020015b60405180910390f35b34801561037c57600080fd5b5061039061038b366004614593565b610a4a565b604051908152602001610367565b3480156103aa57600080fd5b506004546103bf9067ffffffffffffffff1681565b60405167ffffffffffffffff9091168152602001610367565b3480156103e457600080fd5b506103f86103f33660046145e9565b610d07565b005b34801561040657600080fd5b50610390610415366004614610565b610d9f565b34801561042657600080fd5b5061044a6104353660046145e9565b600e6020526000908152604090205460ff1681565b6040519015158152602001610367565b34801561046657600080fd5b50610390610475366004614634565b610dc8565b34801561048657600080fd5b50610390610495366004614660565b6001600160a01b03166000908152600d602052604090205490565b3480156104bc57600080fd5b50610390600381565b3480156104d157600080fd5b506103f86104e0366004614693565b610df0565b3480156104f157600080fd5b5060045461050990600160501b900463ffffffff1681565b60405163ffffffff9091168152602001610367565b34801561052a57600080fd5b506103f86105393660046145e9565b610e7c565b34801561054a57600080fd5b506103f86105593660046147a9565b610f82565b34801561056a57600080fd5b50600054610353906001600160a01b031681565b6103f861058c3660046147a9565b61133a565b34801561059d57600080fd5b506103f86105ac3660046145e9565b61153d565b3480156105bd57600080fd5b5061044a6105cc366004614634565b61161c565b3480156105dd57600080fd5b5061039060035481565b3480156105f357600080fd5b5061044a610602366004614634565b611647565b34801561061357600080fd5b506103537f000000000000000000000000000000000000000000000000000000000000000081565b34801561064757600080fd5b506103f86106563660046145e9565b61169c565b34801561066757600080fd5b5060045461050990600160701b900463ffffffff1681565b34801561068b57600080fd5b5061039061069a3660046145e9565b6118a9565b3480156106ab57600080fd5b506103f86106ba3660046145e9565b611bc1565b3480156106cb57600080fd5b506106d662093a8081565b60405162ffffff9091168152602001610367565b3480156106f657600080fd5b506103f86107053660046145e9565b611e1a565b34801561071657600080fd5b506103f86107253660046145e9565b6120e5565b34801561073657600080fd5b5061074a6107453660046145e9565b6123a5565b604051610367919061483a565b34801561076357600080fd5b506103906107723660046145e9565b60056020526000908152604090205481565b34801561079057600080fd5b506103f861079f3660046147a9565b61248e565b3480156107b057600080fd5b506103f86107bf36600461487c565b6124a7565b3480156107d057600080fd5b506103f86107df36600461489e565b612623565b3480156107f057600080fd5b506103906107ff3660046145e9565b612854565b34801561081057600080fd5b506103f861081f366004614927565b61287d565b34801561083057600080fd5b506103f8612986565b34801561084557600080fd5b50610390610854366004614634565b612a69565b34801561086557600080fd5b5060045461087b90600160401b900461ffff1681565b60405161ffff9091168152602001610367565b34801561089a57600080fd5b506106d66205460081565b3480156108b157600080fd5b506103f86108c0366004614957565b612a91565b3480156108d157600080fd5b506106d66203f48081565b3480156108e857600080fd5b50610390600581565b3480156108fd57600080fd5b5061044a61090c366004614957565b612d15565b34801561091d57600080fd5b50610390600281565b34801561093257600080fd5b506103536109413660046145e9565b600f602052600090815260409020546001600160a01b031681565b34801561096857600080fd5b506103f86109773660046145e9565b612d87565b34801561098857600080fd5b506103906109973660046145e9565b60009081526002602052604090205490565b3480156109b557600080fd5b506006546103909081565b3480156109cc57600080fd5b506109e06109db3660046145e9565b612de2565b6040516103679190614a3c565b3480156109f957600080fd5b5061039060015481565b6103f8610a113660046145e9565b612fdf565b348015610a2257600080fd5b506103537f000000000000000000000000000000000000000000000000000000000000000081565b6000336001600160a01b037f00000000000000000000000000000000000000000000000000000000000000001614610a9557604051631c94dd9760e31b815260040160405180910390fd5b604051636a53da7760e01b8152600481018790523390636a53da7790602401602060405180830381865afa158015610ad1573d6000803e3d6000fd5b505050506040513d601f19601f82011682018060405250810190610af59190614b6c565b15610b1357604051635030fadd60e01b815260040160405180910390fd5b610b21600680546001019055565b6000610b2c60065490565b9050610b366143a2565b8181526020810188905260408101879052606081018690526001600160a01b038086166080830152841660a0820152610b6f6000610d9f565b60c08201908152426101208301908152600084815260076020818152604092839020865181559086015160018201559185015160028301556060850151600383015560808501516004830180546001600160a01b039283166001600160a01b03199182161790915560a08701516005850180549190931691161790559251600682015560e08401518184018054610100808801511515810261ff0019941515851661ffff199384161717909255935160088401556101408601516009840155610160860151600a840155610180860151600b8401556101a0860151600c8401556101c0860151600d840180546101e08901511515909302911515909316919094161792909217808355610200850151859492939092909162ff000019169062010000908490811115610ca357610ca361497c565b02179055506102208201518051610cc491600e840191602090910190614458565b50506040518981528391507ffa71779ecc1dd1ef48196a5af1776f8a748036653ce2b5b310ab5e31b61ca32b9060200160405180910390a2509695505050505050565b336001600160a01b037f00000000000000000000000000000000000000000000000000000000000000001614610d5057604051631c94dd9760e31b815260040160405180910390fd5b600081815260076020526040808220600d8101805462ff00001916620700001790558054915190927f931f1a2ab95b7bbd44f6b1fd4f820a8c42a77eed1177aa040d3ecc7692fdc4ba91a25050565b600081610dba57600154610db4906003614b9b565b92915050565b600154610db4906005614b9b565b6001600160a01b03919091166000908152600a60209081526040808320938352929052205490565b336001600160a01b037f00000000000000000000000000000000000000000000000000000000000000001614610e6e5760405163073e64fd60e21b81523360048201526001600160a01b037f000000000000000000000000000000000000000000000000000000000000000016602482015260440160405180910390fd5b610e78828261323a565b5050565b6000610e8782612de2565b905060018161020001516007811115610ea257610ea261497c565b14610ec05760405163e85c1def60e01b815260040160405180910390fd5b610140810151610ed4906203f48090614bb2565b421015610ef4576040516310b71d3560e21b815260040160405180910390fd5b6000610eff836123a5565b90506003610f0c84612854565b610f169190614b9b565b8151511115610f385760405163d5d500db60e01b815260040160405180910390fd5b6000610f43846137cb565b8351604051828152919250907f486a5e4a3475f9cc8baf912905ad92c6c2868a2bdf4e785b50a7e000597ae3639060200160405180910390a250505050565b604051630935e01b60e21b81523360048201527f00000000000000000000000000000000000000000000000000000000000000006001600160a01b0316906324d7806c906024016020604051808303816000875af1158015610fe8573d6000803e3d6000fd5b505050506040513d601f19601f8201168201806040525081019061100c9190614bc5565b6110295760405163249d95ab60e21b815260040160405180910390fd5b600061103484612de2565b90506001816102000151600781111561104f5761104f61497c565b1461106d5760405163e85c1def60e01b815260040160405180910390fd5b610140810151611081906203f48090614bb2565b4210156110a1576040516310b71d3560e21b815260040160405180910390fd5b60008481526008602052604090206110b885612854565b6110c3906003614b9b565b8154116110e35760405163d8168ced60e01b815260040160405180910390fd5b60005b838110156112f657825161111b9086868481811061110657611106614be2565b905060200201602081019061090c9190614660565b156111385760405162d7182160e81b815260040160405180910390fd5b6000546001600160a01b03166366e305fd86868481811061115b5761115b614be2565b90506020020160208101906111709190614660565b6040516001600160e01b031960e084901b1681526001600160a01b039091166004820152602401602060405180830381865afa1580156111b4573d6000803e3d6000fd5b505050506040513d601f19601f820116820180604052508101906111d89190614bc5565b6111f45760405162d7182160e81b815260040160405180910390fd5b82608001516001600160a01b031685858381811061121457611214614be2565b90506020020160208101906112299190614660565b6001600160a01b0316148061127957508260a001516001600160a01b031685858381811061125957611259614be2565b905060200201602081019061126e9190614660565b6001600160a01b0316145b156112965760405162d7182160e81b815260040160405180910390fd5b818585838181106112a9576112a9614be2565b90506020020160208101906112be9190614660565b815460018082018455600093845260209093200180546001600160a01b0319166001600160a01b0392909216919091179055016110e6565b5081516040517f7b4c00990af217b5fd5850914568e2803760dcc1fab73902464c580805fe9d879061132b9087908790614bf8565b60405180910390a25050505050565b600083815260076020526040902060048101546001600160a01b03163314801590611372575060058101546001600160a01b03163314155b1561139057604051634a77af9b60e11b815260040160405180910390fd5b60048101546001600160a01b0316331480156113b05750600781015460ff165b806113db575060058101546001600160a01b0316331480156113db57506007810154610100900460ff165b156113f957604051630d78545960e41b815260040160405180910390fd5b806006015434101561141e5760405163874a2deb60e01b815260040160405180910390fd5b60048101546001600160a01b0316331461144a5760078101805461ff001916610100179055600161145d565b60078101805460ff191660019081179091555b506000848152600260205260408120805434929061147c908490614bb2565b90915550600090505b828110156114de5781600e018484838181106114a3576114a3614be2565b90506020028101906114b59190614c46565b825460018101845560009384526020909320909201916114d59183614d17565b50600101611485565b50604051339085907f674e02de93fe447826c06140b0d60c8e1008d2fcd376352de7f98f00553fbd4a90600090a3600781015460ff16801561152957506007810154610100900460ff165b1561153757611537846138be565b50505050565b6000818152600760205260408120805490910361156d576040516323e6121560e11b815260040160405180910390fd5b60088101546115809062093a8090614bb2565b4210156115a05760405163bb4fd0ed60e01b815260040160405180910390fd5b600781015460ff16806115bc57506007810154610100900460ff165b156115da57604051630d78545960e41b815260040160405180910390fd5b600d8101805462ff000019166206000017905560405182907fba822c6c2752fc532b06182dbb93744cfc28337646621685da58cfb770615a2590600090a25050565b6001600160a01b03919091166000908152600c60209081526040808320938352929052205460ff1690565b6000611653838361161c565b61167057604051638f424b8760e01b815260040160405180910390fd5b506001600160a01b03919091166000908152600b60209081526040808320938352929052205460ff1690565b60008181526007602052604090206002600d82015462010000900460ff1660078111156116cb576116cb61497c565b146116e957604051630fbab20760e01b815260040160405180910390fd5b600a8101546116fc906205460090614bb2565b42101561171c5760405163b820da2960e01b815260040160405180910390fd5b600061172b82600001546123a5565b905060005b81602001515181101561189d576117688260200151828151811061175657611756614be2565b60200260200101518460000154610dc8565b60000361189557600061179c8360200151838151811061178a5761178a614be2565b60200260200101518560000154612a69565b90508060096000856020015185815181106117b9576117b9614be2565b60200260200101516001600160a01b03166001600160a01b0316815260200190815260200160002060008660000154815260200190815260200160002060008282546118059190614dd7565b90915550506000805460408051638166639b60e01b815290516001600160a01b0390921692638166639b928592600480820193929182900301818588803b15801561184f57600080fd5b505af1158015611863573d6000803e3d6000fd5b505050505061189384600001548460200151848151811061188657611886614be2565b6020026020010151613982565b505b600101611730565b505042600a9091015550565b6000336001600160a01b037f000000000000000000000000000000000000000000000000000000000000000016146118f457604051631c94dd9760e31b815260040160405180910390fd5b604051636a53da7760e01b8152600481018390526000903390636a53da7790602401602060405180830381865afa158015611933573d6000803e3d6000fd5b505050506040513d601f19601f820116820180604052508101906119579190614b6c565b90508060000361197a576040516323e6121560e11b815260040160405180910390fd5b600061198582612de2565b9050806101c00151156119ab57604051630ea68dc560e11b815260040160405180910390fd5b6119b9600680546001019055565b60006119c460065490565b90506119ce6143a2565b8181526020810186905260408084015190820152606080840151908201526080808401516001600160a01b039081169183019190915260a0808501519091169082015260016101c08201819052611a2490610d9f565b60c08201908152426101208301908152600084815260076020818152604092839020865181559086015160018201559185015160028301556060850151600383015560808501516004830180546001600160a01b039283166001600160a01b03199182161790915560a08701516005850180549190931691161790559251600682015560e08401518184018054610100808801511515810261ff0019941515851661ffff199384161717909255935160088401556101408601516009840155610160860151600a840155610180860151600b8401556101a0860151600c8401556101c0860151600d840180546101e08901511515909302911515909316919094161792909217808355610200850151859492939092909162ff000019169062010000908490811115611b5857611b5861497c565b02179055506102208201518051611b7991600e840191602090910190614458565b5090505083827f6f6f8ef57754c3fa3e31d1517c2252383ee71eda7fafc105ec9dec357b8bd94688604051611bb091815260200190565b60405180910390a350949350505050565b600081815260076020526040902060048101546001600160a01b03163314801590611bf9575060058101546001600160a01b03163314155b15611c1757604051634a77af9b60e11b815260040160405180910390fd5b6000600d82015462010000900460ff166007811115611c3857611c3861497c565b14611c565760405163095f868960e21b815260040160405180910390fd5b60048101546001600160a01b03163303611c9457600781015460ff16611c8f576040516303ac1eaf60e61b815260040160405180910390fd5b611cbe565b6007810154610100900460ff16611cbe576040516303ac1eaf60e61b815260040160405180910390fd5b6008810154611cd19062093a8090614bb2565b421015611cf15760405163bb4fd0ed60e01b815260040160405180910390fd5b60048101546001600160a01b03163314611d1957600d8101805461ff00191690556000611d2d565b600d8101805461ff00191661010017905560015b50600d8101805462ff00001916620500001790556000828152600260205260408120805491829190611d5f8380614dd7565b9091555050604051600090339083908381818185875af1925050503d8060008114611da6576040519150601f19603f3d011682016040523d82523d6000602084013e611dab565b606091505b5050905080611dcd5760405163062f129560e21b815260040160405180910390fd5b600d83015460405161010090910460ff1615158152339085907f09d2debba343a19ba341af646a7dca5450239af1faf2795158422b663bf6fe1f906020015b60405180910390a350505050565b6000611e2582612de2565b905080608001516001600160a01b0316336001600160a01b031614158015611e6357508060a001516001600160a01b0316336001600160a01b031614155b15611e8157604051634a77af9b60e11b815260040160405180910390fd5b60048161020001516007811115611e9a57611e9a61497c565b03611f3157806101e001518015611ec7575080608001516001600160a01b0316336001600160a01b031614155b15611ee55760405163e375bbf960e01b815260040160405180910390fd5b806101e00151158015611f0e57508060a001516001600160a01b0316336001600160a01b031614155b15611f2c5760405163e375bbf960e01b815260040160405180910390fd5b611ff3565b60078161020001516007811115611f4a57611f4a61497c565b03611fda578060e00151158015611f76575080608001516001600160a01b0316336001600160a01b0316145b15611f94576040516303ac1eaf60e61b815260040160405180910390fd5b806101000151158015611fbc57508060a001516001600160a01b0316336001600160a01b0316145b15611f2c576040516303ac1eaf60e61b815260040160405180910390fd5b6040516335ae40d760e11b815260040160405180910390fd5b60c08101516000838152600260205260409020541461202557604051631b4d0d5760e01b815260040160405180910390fd5b60008281526002602052604081208054918291906120438380614dd7565b9091555050604051600090339083908381818185875af1925050503d806000811461208a576040519150601f19603f3d011682016040523d82523d6000602084013e61208f565b606091505b50509050806120b15760405163062f129560e21b815260040160405180910390fd5b604051828152339085907fc96ecea49db741689d80001e0d0b27e01af4cd47c854812729220bc13f148dad90602001611e0c565b60006120f082612de2565b90506003816102000151600781111561210b5761210b61497c565b146121295760405163f1147dc160e01b815260040160405180910390fd5b61018081015161213d906203f48090614bb2565b42101561215c5760405162ce54eb60e21b815260040160405180910390fd5b60008061216c8360000151613d65565b91509150600061217f8460000151612854565b905060008061219186600001516123a5565b905060005b8160200151518110156122a2576121ce826020015182815181106121bc576121bc614be2565b6020026020010151886000015161161c565b61229a5760006121ff836020015183815181106121ed576121ed614be2565b60200260200101518960000151612a69565b905080600960008560200151858151811061221c5761221c614be2565b60200260200101516001600160a01b03166001600160a01b0316815260200190815260200160002060008a60000151815260200190815260200160002060008282546122689190614dd7565b9091555061227890508185614bb2565b935061229888600001518460200151848151811061188657611886614be2565b505b600101612196565b506122ae600284614e00565b8511806122c457506122c1600284614e00565b84115b156122db5785516122d6908686613e3a565b612351565b85516000908152600e6020526040808220805460ff1916600117905581548151638166639b60e01b815291516001600160a01b0390911692638166639b9286926004808301939282900301818588803b15801561233757600080fd5b505af115801561234b573d6000803e3d6000fd5b50505050505b85516000818152600e602090815260409182902054915160ff909216151582527f663f6b5edf14fd8e9a1f2d638b2cf6c9ef1702b284a3548503631dab55273100910160405180910390a250505050505050565b604080518082018252606080825260208083018290526000858152600882528490208451815492830281018401865294850182815293949390928492849184018282801561241c57602002820191906000526020600020905b81546001600160a01b031681526001909101906020018083116123fe575b505050505081526020016001820180548060200260200160405190810160405280929190818152602001828054801561247e57602002820191906000526020600020905b81546001600160a01b03168152600190910190602001808311612460575b5050505050815250509050919050565b6040516342a13f7b60e01b815260040160405180910390fd5b6124b13383610dc8565b156124cf576040516306e9c79160e31b815260040160405180910390fd5b60008190036124f1576040516352ea2ee560e01b815260040160405180910390fd5b60006124fc836123a5565b905060008060005b83602001515181101561258c578360200151818151811061252757612527614be2565b60200260200101516001600160a01b0316336001600160a01b03160361254c57600192505b6125738460200151828151811061256557612565614be2565b602002602001015187610dc8565b156125845761258182614e14565b91505b600101612504565b50816125aa5760405162d7182160e81b815260040160405180910390fd5b336000818152600a60209081526040808320898452825291829020879055905186815287917f1f4e2aa7825ef02e85293e2de66cfbcb326af2632b558996e546bb1ef3e8764d910160405180910390a361260385612854565b61260e826001614bb2565b1061261c5761261c8561418e565b5050505050565b61262d8433612d15565b6126495760405162d7182160e81b815260040160405180910390fd5b600361265485612de2565b6102000151600781111561266a5761266a61497c565b1461268857604051638b7afab760e01b815260040160405180910390fd5b612692338561161c565b156126b05760405163039ef43f60e21b815260040160405180910390fd5b60008383836040516020016126c793929190614e2d565b6040516020818303038152906040528051906020012090506126e93386610dc8565b8114612708576040516320056f9560e01b815260040160405180910390fd5b336000818152600b602090815260408083208984528252808320805460ff199081168a151517909155848452600c83528184208a855283528184208054909116600117905592825260098152828220888352905290812080549182919061276f8380614dd7565b9091555050604051600090339083908381818185875af1925050503d80600081146127b6576040519150601f19603f3d011682016040523d82523d6000602084013e6127bb565b606091505b50509050806127dd5760405163062f129560e21b815260040160405180910390fd5b6040518615158152339088907f943b1e1e6ea36d3a013c9f482eb56e6fec8904129c7ed1869bcfe1f04727cd4c9060200160405180910390a360008061282289613d65565b9150915061282f89612854565b6128398284614bb2565b0361284957612849898383613e3a565b505050505050505050565b6000818152600760205260408120600d015460ff1661287557506003919050565b506005919050565b600061288883612de2565b9050600381610200015160078111156128a3576128a361497c565b146128c15760405163f1147dc160e01b815260040160405180910390fd5b80516000908152600f60205260409020546001600160a01b031633146128fa576040516357ddaf0360e01b815260040160405180910390fd5b60008061290a8360000151613d65565b909250905060018415151461292a5761292281614e14565b905080612937565b61293382614e14565b9150815b508251612945908383613e3a565b825160405185151581523391907fa5a9de73cf3f9d29d054f39da7accd87d436de283ca3c87c9741f45de110df859060200160405180910390a35050505050565b336000908152600d602052604090205460018110156129b85760405163699349c960e01b815260040160405180910390fd5b336000818152600d60205260408082208290555190919083908381818185875af1925050503d8060008114612a09576040519150601f19603f3d011682016040523d82523d6000602084013e612a0e565b606091505b5050905080612a305760405163062f129560e21b815260040160405180910390fd5b60405182815233907facd5f96b832959eb7c319fe5c6b73f994c12d0be1b278b2d99a5f1132bb72d5f9060200160405180910390a25050565b6001600160a01b03919091166000908152600960209081526040808320938352929052205490565b604051630935e01b60e21b81523360048201527f00000000000000000000000000000000000000000000000000000000000000006001600160a01b0316906324d7806c906024016020604051808303816000875af1158015612af7573d6000803e3d6000fd5b505050506040513d601f19601f82011682018060405250810190612b1b9190614bc5565b612b385760405163249d95ab60e21b815260040160405180910390fd5b6000612b4383612de2565b80516000908152600e602052604090205490915060ff16612b775760405163161c44b560e21b815260040160405180910390fd5b60038161020001516007811115612b9057612b9061497c565b14612bae5760405163f1147dc160e01b815260040160405180910390fd5b80608001516001600160a01b0316826001600160a01b03161480612be757508060a001516001600160a01b0316826001600160a01b0316145b15612c05576040516357ddaf0360e01b815260040160405180910390fd5b6000546040516366e305fd60e01b81526001600160a01b038481166004830152909116906366e305fd90602401602060405180830381865afa158015612c4f573d6000803e3d6000fd5b505050506040513d601f19601f82011682018060405250810190612c739190614bc5565b612c90576040516357ddaf0360e01b815260040160405180910390fd5b8051612c9c9083612d15565b15612cba576040516357ddaf0360e01b815260040160405180910390fd5b80516000908152600f602052604080822080546001600160a01b0319166001600160a01b0386169081179091558351915190927fe3a61425d5621880310412d6593b034f43dedb3aff8bfe44e10f779c8c99d39a91a3505050565b600080612d21846123a5565b905060005b816020015151811015612d7c5781602001518181518110612d4957612d49614be2565b60200260200101516001600160a01b0316846001600160a01b031603612d7457600192505050610db4565b600101612d26565b506000949350505050565b336001600160a01b037f00000000000000000000000000000000000000000000000000000000000000001614612dd057604051630fde994960e21b815260040160405180910390fd5b60008111612ddd57600080fd5b600155565b612dea6143a2565b600082815260076020818152604092839020835161024081018552815481526001820154928101929092526002810154938201939093526003830154606082015260048301546001600160a01b03908116608083015260058401541660a0820152600683015460c08201528282015460ff808216151560e084015261010091829004811615158284015260088501546101208401526009850154610140840152600a850154610160840152600b850154610180840152600c8501546101a0840152600d85015480821615156101c0850152918204811615156101e08401529193926102008501926201000090920490911690811115612eeb57612eeb61497c565b6007811115612efc57612efc61497c565b8152602001600e8201805480602002602001604051908101604052809291908181526020016000905b82821015612fd1578382906000526020600020018054612f4490614c8d565b80601f0160208091040260200160405190810160405280929190818152602001828054612f7090614c8d565b8015612fbd5780601f10612f9257610100808354040283529160200191612fbd565b820191906000526020600020905b815481529060010190602001808311612fa057829003601f168201915b505050505081526020019060010190612f25565b505050915250909392505050565b6000818152600860205260409020612ff682612854565b60018201541061301957604051638ee7667160e01b815260040160405180910390fd5b60005b60018201548110156130795781600101818154811061303d5761303d614be2565b6000918252602090912001546001600160a01b031633036130715760405163878b00e960e01b815260040160405180910390fd5b60010161301c565b5060015434101561309d5760405163f52fb72d60e01b815260040160405180910390fd5b600080546040516395fdd81560e01b81523360048201526001600160a01b03909116906395fdd81590602401602060405180830381865afa1580156130e6573d6000803e3d6000fd5b505050506040513d601f19601f8201168201806040525081019061310a9190614e4c565b600281111561311b5761311b61497c565b146131385760405162d7182160e81b815260040160405180910390fd5b6000805b82548110156131865782600001818154811061315a5761315a614be2565b6000918252602090912001546001600160a01b0316330361317e5760019150613186565b60010161313c565b50806131a557604051633e2b0b9b60e11b815260040160405180910390fd5b336000818152600960209081526040808320878452825280832034905560018681018054918201815584529282902090920180546001600160a01b03191684179055905191825284917fb9860328d5325ca7d8f3f5fc1040667291a244d3862e6b2810e6f59685a9568f910160405180910390a261322283612854565b60018301540361323557613235836141e4565b505050565b600082815260056020908152604080832054835260079091528120600981015490919015613266575060015b815460008181526008602052604081209160039061328390612854565b61328d9190614b9b565b905082156132b15760026132a48560000154612854565b6132ae9190614b9b565b90505b60008167ffffffffffffffff8111156132cc576132cc61467d565b6040519080825280602002602001820160405280156132f5578160200160208202803683370190505b50905060008060008060009054906101000a90046001600160a01b03166001600160a01b03166315270cf96040518163ffffffff1660e01b8152600401602060405180830381865afa15801561334f573d6000803e3d6000fd5b505050506040513d601f19601f820116820180604052508101906133739190614b6c565b90505b848210156136fc57600080548a516001600160a01b039091169063b3a34e959084908d9085906133a8576133a8614be2565b6020026020010151876040516020016133cb929190918252602082015260400190565b6040516020818303038152906040528051906020012060001c6133ee9190614e6d565b6040518263ffffffff1660e01b815260040161340c91815260200190565b602060405180830381865afa158015613429573d6000803e3d6000fd5b505050506040513d601f19601f8201168201806040525081019061344d9190614e81565b905060008060009054906101000a90046001600160a01b03166001600160a01b031663b3a34e95848d60018151811061348857613488614be2565b6020026020010151886040516020016134ab929190918252602082015260400190565b6040516020818303038152906040528051906020012060001c6134ce9190614e6d565b6040518263ffffffff1660e01b81526004016134ec91815260200190565b602060405180830381865afa158015613509573d6000803e3d6000fd5b505050506040513d601f19601f8201168201806040525081019061352d9190614e81565b9050600061355683838e60008151811061354957613549614be2565b602002602001015161423a565b600080546040516366e305fd60e01b81526001600160a01b038085166004830152939450919216906366e305fd90602401602060405180830381865afa1580156135a4573d6000803e3d6000fd5b505050506040513d601f19601f820116820180604052508101906135c89190614bc5565b6135d0575060015b60048c01546001600160a01b03838116911614806135fd575060058c01546001600160a01b038381169116145b15613606575060015b60005b885181101561365157826001600160a01b031689828151811061362e5761362e614be2565b60200260200101516001600160a01b03160361364957600191505b600101613609565b508a156136ac5760005b8a548110156136aa57826001600160a01b03168b600001828154811061368357613683614be2565b6000918252602090912001546001600160a01b0316036136a257600191505b60010161365b565b505b806136e857818887815181106136c4576136c4614be2565b6001600160a01b03909216602092830291909101909101526136e586614e14565b95505b6136f187614e14565b965050505050613376565b8661371f57426009890155835161371990879060208701906144ae565b50613788565b60005b8451811015613786578660000185828151811061374157613741614be2565b60209081029190910181015182546001808201855560009485529290932090920180546001600160a01b0319166001600160a01b039093169290921790915501613722565b505b875460405188151581527ff483d0d3dce8a67bd1138aeab775991e343c136aacc2e506098e348ed39d19359060200160405180910390a250505050505050505050565b600354600480546040516305d3b1d360e41b81529182019290925267ffffffffffffffff8216602482015261ffff600160401b830416604482015263ffffffff600160501b830481166064830152600160701b909204909116608482015260009081906001600160a01b037f00000000000000000000000000000000000000000000000000000000000000001690635d3b1d309060a4016020604051808303816000875af1158015613881573d6000803e3d6000fd5b505050506040513d601f19601f820116820180604052508101906138a59190614b6c565b6000818152600560205260409020939093555090919050565b6000818152600760205260408120600d8101805462ff0000191662040000179055906138eb600242614e6d565b600d83018054610100921592830261ff001990911617905542600c840155600683015460008581526002602052604081208054939450919261392e908490614dd7565b9091555050600d8201546040805161010090920460ff16151582526000602083015284917f4210d99ad245cdfd8b921a79ffd66547982bfbc01448696bcf3cb43a281e33aa910160405180910390a2505050565b6000828152600860205260408120905b6001820154811015613b6557826001600160a01b03168260010182815481106139bd576139bd614be2565b6000918252602090912001546001600160a01b031603613b5d576001828101546139e79190614dd7565b8103613a275781600101805480613a0057613a00614e9e565b600082815260209020810160001990810180546001600160a01b0319169055019055613b5d565b60018083018054600092613a3a91614dd7565b81548110613a4a57613a4a614be2565b6000918252602090912001546001840180546001600160a01b0390921692509083908110613a7a57613a7a614be2565b600091825260209091200154600184810180546001600160a01b03909316929091613aa491614dd7565b81548110613ab457613ab4614be2565b9060005260206000200160006101000a8154816001600160a01b0302191690836001600160a01b0316021790555080836001018381548110613af857613af8614be2565b9060005260206000200160006101000a8154816001600160a01b0302191690836001600160a01b0316021790555082600101805480613b3957613b39614e9e565b600082815260209020810160001990810180546001600160a01b0319169055019055505b600101613992565b5060005b8154811015613d2957826001600160a01b0316826000018281548110613b9157613b91614be2565b6000918252602090912001546001600160a01b031603613d21578154613bb990600190614dd7565b8103613bf7578154829080613bd057613bd0614e9e565b600082815260209020810160001990810180546001600160a01b0319169055019055613d21565b81546000908390613c0a90600190614dd7565b81548110613c1a57613c1a614be2565b60009182526020909120015483546001600160a01b039091169150839083908110613c4757613c47614be2565b60009182526020909120015483546001600160a01b03909116908490613c6f90600190614dd7565b81548110613c7f57613c7f614be2565b9060005260206000200160006101000a8154816001600160a01b0302191690836001600160a01b0316021790555080836000018381548110613cc357613cc3614be2565b600091825260209091200180546001600160a01b0319166001600160a01b03929092169190911790558254839080613cfd57613cfd614e9e565b600082815260209020810160001990810180546001600160a01b0319169055019055505b600101613b69565b506040516001600160a01b0383169084907f65a0cd347c3f9ebf319a28e59f3ae96d09c1f0d2d7192617a267b2f56911e12c90600090a3505050565b6000806000613d73846123a5565b905060008060005b836020015151811015613e2e57613daf84602001518281518110613da157613da1614be2565b60200260200101518861161c565b15613e2657600b600085602001518381518110613dce57613dce614be2565b6020908102919091018101516001600160a01b0316825281810192909252604090810160009081208a825290925290205460ff16613e1757613e0f82614e14565b915081613e24565b613e2083614e14565b9250825b505b600101613d7b565b50909590945092505050565b6000838152600760205260408120600d810180546101008587110262ffff0019909116176204000017905542600c82015590613e7585612854565b8260060154613e849190614e00565b60068301549091506000613e97876123a5565b905060005b81602001515181101561408257613ed082602001518281518110613ec257613ec2614be2565b60200260200101518961161c565b1561407a57600d850154610100900460ff168015613f3d5750600b600083602001518381518110613f0357613f03614be2565b6020908102919091018101516001600160a01b0316825281810192909252604090810160009081208b825290925290205460ff1615156001145b15613fab5783600d600084602001518481518110613f5d57613f5d614be2565b60200260200101516001600160a01b03166001600160a01b031681526020019081526020016000206000828254613f949190614bb2565b90915550613fa490508484614dd7565b925061407a565b600d850154610100900460ff161580156140105750600b600083602001518381518110613fda57613fda614be2565b6020908102919091018101516001600160a01b0316825281810192909252604090810160009081208b825290925290205460ff16155b1561407a5783600d60008460200151848151811061403057614030614be2565b60200260200101516001600160a01b03166001600160a01b0316815260200190815260200160002060008282546140679190614bb2565b9091555061407790508484614dd7565b92505b600101613e9c565b506006840154600088815260026020526040812080549091906140a6908490614dd7565b909155505081156141195760008054906101000a90046001600160a01b03166001600160a01b0316638166639b836040518263ffffffff1660e01b81526004016000604051808303818588803b1580156140ff57600080fd5b505af1158015614113573d6000803e3d6000fd5b50505050505b600d840154600090610100900460ff1661413557508480614139565b5085805b50600d8501546040805161010090920460ff16151582526020820183905289917f4210d99ad245cdfd8b921a79ffd66547982bfbc01448696bcf3cb43a281e33aa910160405180910390a25050505050505050565b600081815260076020526040808220600d8101805462ff000019166203000017905542600b8201559051909183917fbb317f735908ac3adfcb543a1ed1d371a2723bdc618eb60efa4c85e9288616dd9190a25050565b600081815260076020526040808220600d8101805462ff000019166202000017905542600a8201559051909183917f901306934aa5c62c3de0e22b3f7ddb888c060f82c4f4836e420a16a7156831969190a25050565b6000805460405163011bec8f60e61b81526001600160a01b038681166004830152839216906346fb23c090602401602060405180830381865afa158015614285573d6000803e3d6000fd5b505050506040513d601f19601f820116820180604052508101906142a99190614b6c565b6000805460405163011bec8f60e61b81526001600160a01b038881166004830152939450919216906346fb23c090602401602060405180830381865afa1580156142f7573d6000803e3d6000fd5b505050506040513d601f19601f8201168201806040525081019061431b9190614b6c565b9050858183111561435d576143308284614bb2565b61433b846064614b9b565b6143459190614e00565b614350606487614e6d565b106143585750845b614398565b828211156143985761436f8284614bb2565b61437a836064614b9b565b6143849190614e00565b61438f606487614e6d565b10156143985750845b9695505050505050565b6040518061024001604052806000815260200160008152602001600081526020016000815260200160006001600160a01b0316815260200160006001600160a01b031681526020016000815260200160001515815260200160001515815260200160008152602001600081526020016000815260200160008152602001600081526020016000151581526020016000151581526020016000600781111561444b5761444b61497c565b8152602001606081525090565b82805482825590600052602060002090810192821561449e579160200282015b8281111561449e578251829061448e9082614eb4565b5091602001919060010190614478565b506144aa92915061450f565b5090565b828054828255906000526020600020908101928215614503579160200282015b8281111561450357825182546001600160a01b0319166001600160a01b039091161782556020909201916001909101906144ce565b506144aa92915061452c565b808211156144aa5760006145238282614541565b5060010161450f565b5b808211156144aa576000815560010161452d565b50805461454d90614c8d565b6000825580601f1061455d575050565b601f01602090049060005260206000209081019061457b919061452c565b50565b6001600160a01b038116811461457b57600080fd5b600080600080600060a086880312156145ab57600080fd5b85359450602086013593506040860135925060608601356145cb8161457e565b915060808601356145db8161457e565b809150509295509295909350565b6000602082840312156145fb57600080fd5b5035919050565b801515811461457b57600080fd5b60006020828403121561462257600080fd5b813561462d81614602565b9392505050565b6000806040838503121561464757600080fd5b82356146528161457e565b946020939093013593505050565b60006020828403121561467257600080fd5b813561462d8161457e565b634e487b7160e01b600052604160045260246000fd5b600080604083850312156146a657600080fd5b8235915060208084013567ffffffffffffffff808211156146c657600080fd5b818601915086601f8301126146da57600080fd5b8135818111156146ec576146ec61467d565b8060051b604051601f19603f830116810181811085821117156147115761471161467d565b60405291825284820192508381018501918983111561472f57600080fd5b938501935b8285101561474d57843584529385019392850192614734565b8096505050505050509250929050565b60008083601f84011261476f57600080fd5b50813567ffffffffffffffff81111561478757600080fd5b6020830191508360208260051b85010111156147a257600080fd5b9250929050565b6000806000604084860312156147be57600080fd5b83359250602084013567ffffffffffffffff8111156147dc57600080fd5b6147e88682870161475d565b9497909650939450505050565b60008151808452602080850194506020840160005b8381101561482f5781516001600160a01b03168752958201959082019060010161480a565b509495945050505050565b60208152600082516040602084015261485660608401826147f5565b90506020840151601f1984830301604085015261487382826147f5565b95945050505050565b6000806040838503121561488f57600080fd5b50508035926020909101359150565b600080600080606085870312156148b457600080fd5b8435935060208501356148c681614602565b9250604085013567ffffffffffffffff808211156148e357600080fd5b818701915087601f8301126148f757600080fd5b81358181111561490657600080fd5b88602082850101111561491857600080fd5b95989497505060200194505050565b6000806040838503121561493a57600080fd5b82359150602083013561494c81614602565b809150509250929050565b6000806040838503121561496a57600080fd5b82359150602083013561494c8161457e565b634e487b7160e01b600052602160045260246000fd5b600881106149b057634e487b7160e01b600052602160045260246000fd5b9052565b600082825180855260208086019550808260051b8401018186016000805b85811015614a2e57601f1980888603018b5283518051808752845b81811015614a08578281018901518882018a015288016149ed565b5086810188018590529b87019b601f0190911690940185019350918401916001016149d2565b509198975050505050505050565b602081528151602082015260208201516040820152604082015160608201526060820151608082015260006080830151614a8160a08401826001600160a01b03169052565b5060a08301516001600160a01b03811660c08401525060c083015160e083015260e0830151610100614ab68185018315159052565b8401519050610120614acb8482018315159052565b8401516101408481019190915284015161016080850191909152840151610180808501919091528401516101a0808501919091528401516101c08085019190915284015190506101e0614b218185018315159052565b8401519050610200614b368482018315159052565b8401519050610220614b4a84820183614992565b840151610240848101529050614b646102608401826149b4565b949350505050565b600060208284031215614b7e57600080fd5b5051919050565b634e487b7160e01b600052601160045260246000fd5b8082028115828204841417610db457610db4614b85565b80820180821115610db457610db4614b85565b600060208284031215614bd757600080fd5b815161462d81614602565b634e487b7160e01b600052603260045260246000fd5b60208082528181018390526000908460408401835b86811015614c3b578235614c208161457e565b6001600160a01b031682529183019190830190600101614c0d565b509695505050505050565b6000808335601e19843603018112614c5d57600080fd5b83018035915067ffffffffffffffff821115614c7857600080fd5b6020019150368190038213156147a257600080fd5b600181811c90821680614ca157607f821691505b602082108103614cc157634e487b7160e01b600052602260045260246000fd5b50919050565b601f821115613235576000816000526020600020601f850160051c81016020861015614cf05750805b601f850160051c820191505b81811015614d0f57828155600101614cfc565b505050505050565b67ffffffffffffffff831115614d2f57614d2f61467d565b614d4383614d3d8354614c8d565b83614cc7565b6000601f841160018114614d775760008515614d5f5750838201355b600019600387901b1c1916600186901b17835561261c565b600083815260209020601f19861690835b82811015614da85786850135825560209485019460019092019101614d88565b5086821015614dc55760001960f88860031b161c19848701351681555b505060018560011b0183555050505050565b81810381811115610db457610db4614b85565b634e487b7160e01b600052601260045260246000fd5b600082614e0f57614e0f614dea565b500490565b600060018201614e2657614e26614b85565b5060010190565b83151560f81b8152818360018301376000910160010190815292915050565b600060208284031215614e5e57600080fd5b81516003811061462d57600080fd5b600082614e7c57614e7c614dea565b500690565b600060208284031215614e9357600080fd5b815161462d8161457e565b634e487b7160e01b600052603160045260246000fd5b815167ffffffffffffffff811115614ece57614ece61467d565b614ee281614edc8454614c8d565b84614cc7565b602080601f831160018114614f175760008415614eff5750858301515b600019600386901b1c1916600185901b178555614d0f565b600085815260208120601f198616915b82811015614f4657888601518255948401946001909101908401614f27565b5085821015614f645787850151600019600388901b60f8161c191681555b5050505050600190811b0190555056fea2646970667358221220c784a57f57c836739b03aae3cb95f615f8899b0ffdbdf12e0fc64afb4de834e964736f6c63430008170033","linkReferences":{}},"methodIdentifiers":{"DISCLOSURE_PERIOD()":"8a497cc6","GOVERNOR()":"6dc0ae22","MARKETPLACE()":"ffef3cf0","PANEL_DRAWING_MULTIPLIER_APPEAL()":"d11f8c08","PANEL_DRAWING_MULTIPLIER_NORMAL()":"4100f708","PANEL_SELECTION_PERIOD()":"f983657a","PANEL_SIZE_APPEAL()":"cc7b11b9","PANEL_SIZE_NORMAL()":"18991f6b","REVEAL_PERIOD()":"c3529f31","VOTING_PERIOD()":"b1610d7e","VRF_COORDINATOR()":"05f6a924","acceptCase(uint256)":"f8ef1382","appeal(uint256)":"7e69b7b0","arbiter(uint256)":"d40b7f77","assignAdditionalMediators(uint256,address[])":"33331883","assignArbiter(uint256,address)":"b348ba73","breakTie(uint256,bool)":"a949259b","calculateMediationFee(bool)":"0ba26139","callbackGasLimit()":"24f74697","claimMediatorFees()":"a9493930","commitVote(uint256,bytes32)":"9da69180","createDispute(uint256,uint256,uint256,address,address)":"0872ab98","dismissUnpaidCase(uint256)":"4dce966a","disputeIds()":"e026b7fb","drawAdditionalMediators(uint256)":"2ef048a3","getCommit(address,uint256)":"1065ebda","getDispute(uint256)":"e3a96cbd","getFeesHeld(uint256)":"d93bacd9","getMediatorFeesOwed(address)":"1895c651","getMediatorStakeHeld(address,uint256)":"ac98b972","getPanel(uint256)":"94f178df","getVote(address,uint256)":"6b0dd90f","hasRevealedVote(address,uint256)":"4dfe57e1","isConfirmedMediator(uint256,address)":"cf1aa615","keyHash()":"61728f39","mediatorFlatFee()":"f2f61724","mediatorPool()":"40b7a582","mediatorsNeeded(uint256)":"a0d58f93","numWords()":"7ccfd7fc","overdueCommit(uint256)":"74f785ee","overdueReveal(uint256)":"9119a62b","payMediationFee(uint256,string[])":"4b875b55","rawFulfillRandomWords(uint256,uint256[])":"1fe543e3","reclaimMediationFee(uint256)":"8f2897d5","requestConfirmations()":"b0fb162f","requestDefaultDecision(uint256)":"855244a0","revealVote(uint256,bool,string)":"a00724ff","setMediatorFlatFee(uint256)":"d8133456","settledExternally(uint256)":"0a118bec","submitAdditionalEvidence(uint256,string[])":"986106fb","subscriptionId()":"09c1ba2e","votesTied(uint256)":"0d3377c7","vrfRequestToDispute(uint256)":"98414368"},"id":38}