{"abi":[{"type":"constructor","inputs":[{"name":"_governor","type":"address","internalType":"address"},{"name":"_whitelist","type":"address","internalType":"address"},{"name":"_minimumStake","type":"uint256","internalType":"uint256"}],"stateMutability":"nonpayable"},{"type":"function","name":"GOVERNOR","inputs":[],"outputs":[{"name":"","type":"address","internalType":"address"}],"stateMutability":"view"},{"type":"function","name":"WHITELIST","inputs":[],"outputs":[{"name":"","type":"address","internalType":"contract IWhitelist"}],"stateMutability":"view"},{"type":"function","name":"fundMediationReserve","inputs":[],"outputs":[],"stateMutability":"payable"},{"type":"function","name":"getMediationReserve","inputs":[],"outputs":[{"name":"","type":"uint256","internalType":"uint256"}],"stateMutability":"view"},{"type":"function","name":"getMediator","inputs":[{"name":"_index","type":"uint256","internalType":"uint256"}],"outputs":[{"name":"","type":"address","internalType":"address"}],"stateMutability":"view"},{"type":"function","name":"getMediatorStake","inputs":[{"name":"_mediator","type":"address","internalType":"address"}],"outputs":[{"name":"","type":"uint256","internalType":"uint256"}],"stateMutability":"view"},{"type":"function","name":"getMediatorStatus","inputs":[{"name":"_mediator","type":"address","internalType":"address"}],"outputs":[{"name":"","type":"uint8","internalType":"enum MediatorPool.MediatorStatus"}],"stateMutability":"view"},{"type":"function","name":"isEligible","inputs":[{"name":"_mediator","type":"address","internalType":"address"}],"outputs":[{"name":"","type":"bool","internalType":"bool"}],"stateMutability":"view"},{"type":"function","name":"isMediator","inputs":[{"name":"","type":"address","internalType":"address"}],"outputs":[{"name":"","type":"bool","internalType":"bool"}],"stateMutability":"view"},{"type":"function","name":"mediatorPoolSize","inputs":[],"outputs":[{"name":"","type":"uint256","internalType":"uint256"}],"stateMutability":"view"},{"type":"function","name":"mediators","inputs":[{"name":"","type":"uint256","internalType":"uint256"}],"outputs":[{"name":"","type":"address","internalType":"address"}],"stateMutability":"view"},{"type":"function","name":"minimumStake","inputs":[],"outputs":[{"name":"","type":"uint256","internalType":"uint256"}],"stateMutability":"view"},{"type":"function","name":"pauseMediator","inputs":[],"outputs":[],"stateMutability":"nonpayable"},{"type":"function","name":"reactivateMediator","inputs":[],"outputs":[],"stateMutability":"nonpayable"},{"type":"function","name":"registerMediator","inputs":[{"name":"_mediator","type":"address","internalType":"address"}],"outputs":[],"stateMutability":"nonpayable"},{"type":"function","name":"reinstateMediator","inputs":[{"name":"_mediator","type":"address","internalType":"address"}],"outputs":[],"stateMutability":"nonpayable"},{"type":"function","name":"setMinimumStake","inputs":[{"name":"_minimumStake","type":"uint256","internalType":"uint256"}],"outputs":[],"stateMutability":"nonpayable"},{"type":"function","name":"stake","inputs":[],"outputs":[],"stateMutability":"payable"},{"type":"function","name":"suspendMediator","inputs":[{"name":"_mediator","type":"address","internalType":"address"}],"outputs":[],"stateMutability":"nonpayable"},{"type":"function","name":"withdrawMediationReserve","inputs":[{"name":"_recipient","type":"address","internalType":"address"},{"name":"_amount","type":"uint256","internalType":"uint256"}],"outputs":[],"stateMutability":"nonpayable"},{"type":"function","name":"withdrawStake","inputs":[{"name":"_withdrawAmount","type":"uint256","internalType":"uint256"}],"outputs":[],"stateMutability":"nonpayable"},{"type":"event","name":"MediationReserveFunded","inputs":[{"name":"amount","type":"uint256","indexed":false,"internalType":"uint256"},{"name":"from","type":"address","indexed":false,"internalType":"address"}],"anonymous":false},{"type":"event","name":"MediationReserveWithdrawn","inputs":[{"name":"recipient","type":"address","indexed":false,"internalType":"address"},{"name":"amount","type":"uint256","indexed":false,"internalType":"uint256"}],"anonymous":false},{"type":"event","name":"MediatorPaused","inputs":[{"name":"mediator","type":"address","indexed":true,"internalType":"address"}],"anonymous":false},{"type":"event","name":"MediatorReactivated","inputs":[{"name":"mediator","type":"address","indexed":true,"internalType":"address"}],"anonymous":false},{"type":"event","name":"MediatorRegistered","inputs":[{"name":"mediator","type":"address","indexed":true,"internalType":"address"}],"anonymous":false},{"type":"event","name":"MediatorReinstated","inputs":[{"name":"mediator","type":"address","indexed":true,"internalType":"address"}],"anonymous":false},{"type":"event","name":"MediatorSuspended","inputs":[{"name":"mediator","type":"address","indexed":true,"internalType":"address"}],"anonymous":false},{"type":"event","name":"MinimumStakeSet","inputs":[{"name":"minimumStake","type":"uint256","indexed":false,"internalType":"uint256"}],"anonymous":false},{"type":"event","name":"StakeWithdrawn","inputs":[{"name":"mediator","type":"address","indexed":true,"internalType":"address"},{"name":"withdrawAmount","type":"uint256","indexed":false,"internalType":"uint256"},{"name":"totalStake","type":"uint256","indexed":false,"internalType":"uint256"}],"anonymous":false},{"type":"event","name":"Staked","inputs":[{"name":"mediator","type":"address","indexed":true,"internalType":"address"},{"name":"stakeAmount","type":"uint256","indexed":false,"internalType":"uint256"},{"name":"totalStake","type":"uint256","indexed":false,"internalType":"uint256"}],"anonymous":false},{"type":"error","name":"MediatorPool__AlreadyRegistered","inputs":[]},{"type":"error","name":"MediatorPool__InsufficientReserve","inputs":[]},{"type":"error","name":"MediatorPool__InsufficientStake","inputs":[]},{"type":"error","name":"MediatorPool__MediatorAlreadyActive","inputs":[]},{"type":"error","name":"MediatorPool__MediatorAlreadySuspended","inputs":[]},{"type":"error","name":"MediatorPool__MediatorNotActive","inputs":[]},{"type":"error","name":"MediatorPool__MediatorNotSuspended","inputs":[]},{"type":"error","name":"MediatorPool__MediatorSuspended","inputs":[]},{"type":"error","name":"MediatorPool__MinimumStakeNotMet","inputs":[]},{"type":"error","name":"MediatorPool__NotRegistered","inputs":[]},{"type":"error","name":"MediatorPool__OnlyGovernor","inputs":[]},{"type":"error","name":"MediatorPool__OnlyWhitelisted","inputs":[]},{"type":"error","name":"MediatorPool__TransferFailed","inputs":[]}],"bytecode":{"object":"0x60c060405234801561001057600080fd5b5060405161110b38038061110b83398101604081905261002f91610066565b6001600160a01b03928316608052911660a0526001556100a2565b80516001600160a01b038116811461006157600080fd5b919050565b60008060006060848603121561007b57600080fd5b6100848461004a565b92506100926020850161004a565b9150604084015190509250925092565b60805160a0516110216100ea600039600061019d0152600081816102b60152818161044b0152818161075601528181610ac001528181610c8a0152610da501526110216000f3fe60806040526004361061012a5760003560e01c80636dc0ae22116100ab578063b3a34e951161006f578063b3a34e951461035b578063e6764f251461037b578063ec5ffac2146103ab578063ed80bcf3146103c1578063f64b1487146103e1578063f8d19417146103f657600080fd5b80636dc0ae22146102a45780637161f671146102d85780637c70fd81146102ed5780638166639b1461030d57806395fdd8151461031557600080fd5b8063287c4c14116100f2578063287c4c14146102015780632dd2041d146102165780633a4b66f11461023657806346fb23c01461023e57806366e305fd1461027457600080fd5b806309ebdc4f1461012f57806315270cf91461016c5780631bb7cc991461018b578063233e9903146101bf57806325d5971f146101e1575b600080fd5b34801561013b57600080fd5b5061014f61014a366004610eb2565b610416565b6040516001600160a01b0390911681526020015b60405180910390f35b34801561017857600080fd5b506002545b604051908152602001610163565b34801561019757600080fd5b5061014f7f000000000000000000000000000000000000000000000000000000000000000081565b3480156101cb57600080fd5b506101df6101da366004610eb2565b610440565b005b3480156101ed57600080fd5b506101df6101fc366004610eb2565b6104d1565b34801561020d57600080fd5b506101df61064c565b34801561022257600080fd5b506101df610231366004610ee7565b610741565b6101df6108d1565b34801561024a57600080fd5b5061017d610259366004610ee7565b6001600160a01b031660009081526020819052604090205490565b34801561028057600080fd5b5061029461028f366004610ee7565b61096d565b6040519015158152602001610163565b3480156102b057600080fd5b5061014f7f000000000000000000000000000000000000000000000000000000000000000081565b3480156102e457600080fd5b506101df610a01565b3480156102f957600080fd5b506101df610308366004610f09565b610ab5565b6101df610bfe565b34801561032157600080fd5b5061034e610330366004610ee7565b6001600160a01b031660009081526004602052604090205460ff1690565b6040516101639190610f49565b34801561036757600080fd5b5061014f610376366004610eb2565b610c4f565b34801561038757600080fd5b50610294610396366004610ee7565b60036020526000908152604090205460ff1681565b3480156103b757600080fd5b5061017d60015481565b3480156103cd57600080fd5b506101df6103dc366004610ee7565b610c7f565b3480156103ed57600080fd5b5060055461017d565b34801561040257600080fd5b506101df610411366004610ee7565b610d9a565b6002818154811061042657600080fd5b6000918252602090912001546001600160a01b0316905081565b336001600160a01b037f0000000000000000000000000000000000000000000000000000000000000000161461048957604051630e888d0760e11b815260040160405180910390fd5b6000811161049657600080fd5b60018190556040518181527fe933824a81d0b6aa53640e0e8df82b08c3f5297409b86d5beb73c41253518b299060200160405180910390a150565b3360009081526003602052604090205460ff1661050157604051631da6db6560e01b815260040160405180910390fd5b60023360009081526004602052604090205460ff16600281111561052757610527610f33565b0361054557604051631875f3e560e21b815260040160405180910390fd5b3360009081526020819052604090205481111561057557604051632cc6755160e01b815260040160405180910390fd5b3360009081526020819052604081208054839290610594908490610f87565b9091555050604051600090339083908381818185875af1925050503d80600081146105db576040519150601f19603f3d011682016040523d82523d6000602084013e6105e0565b606091505b505090508061060257604051639a0798bb60e01b815260040160405180910390fd5b3360008181526020818152604091829020548251868152918201527f933735aa8de6d7547d0126171b2f31b9c34dd00f3ecd4be85a0ba047db4fafef910160405180910390a25050565b3360009081526003602052604090205460ff1661067c57604051631da6db6560e01b815260040160405180910390fd5b3360009081526004602052604081205460ff1660028111156106a0576106a0610f33565b036106be5760405163f9d38f6960e01b815260040160405180910390fd5b60023360009081526004602052604090205460ff1660028111156106e4576106e4610f33565b0361070257604051631875f3e560e21b815260040160405180910390fd5b33600081815260046020526040808220805460ff19169055517f0468ca990075f847e0ae8683e892002e30b00ede4736bc8db11cdb766287696e9190a2565b604051630935e01b60e21b81523360048201527f00000000000000000000000000000000000000000000000000000000000000006001600160a01b0316906324d7806c906024016020604051808303816000875af11580156107a7573d6000803e3d6000fd5b505050506040513d601f19601f820116820180604052508101906107cb9190610fa0565b6108085760405162461bcd60e51b815260206004820152600a60248201526937b7363c9030b236b4b760b11b604482015260640160405180910390fd5b6001600160a01b03811660009081526003602052604090205460ff16156108425760405163161ba4bf60e31b815260040160405180910390fd5b6002805460018082019092557f405787fa12a823e0f2b7631cc41b3ba8828b3321ca811111fa75cd3aa3bb5ace0180546001600160a01b0319166001600160a01b038416908117909155600081815260036020526040808220805460ff1916909417909355915190917f7c7b218e49d461310f02c82acc7ef5739f2eb52df62c5658d8d740e94ffc294091a250565b3360009081526003602052604090205460ff1661090157604051631da6db6560e01b815260040160405180910390fd5b3360009081526020819052604081208054349290610920908490610fc2565b90915550503360008181526020818152604091829020548251348152918201527f1449c6dd7851abc30abf37f57715f492010519147cc2652fbc38202c18a6ee90910160405180910390a2565b6001600160a01b03811660009081526003602052604081205460ff1661099557506000919050565b6001600160a01b03821660009081526004602052604081205460ff1660028111156109c2576109c2610f33565b146109cf57506000919050565b6001546001600160a01b03831660009081526020819052604090205410156109f957506000919050565b506001919050565b3360009081526003602052604090205460ff16610a3157604051631da6db6560e01b815260040160405180910390fd5b3360009081526004602052604081205460ff166002811115610a5557610a55610f33565b14610a7357604051639594096f60e01b815260040160405180910390fd5b33600081815260046020526040808220805460ff19166001179055517f695afaeaa6275c8fb79ae846b83c4ea3eb9fc1a6d8d76c7edbabec1fef12ac4f9190a2565b336001600160a01b037f00000000000000000000000000000000000000000000000000000000000000001614610afe57604051630e888d0760e11b815260040160405180910390fd5b60008111610b0b57600080fd5b600554811115610b2e5760405163236bd76d60e11b815260040160405180910390fd5b8060056000828254610b409190610f87565b90915550506040516000906001600160a01b0384169083908381818185875af1925050503d8060008114610b90576040519150601f19603f3d011682016040523d82523d6000602084013e610b95565b606091505b5050905080610bb757604051639a0798bb60e01b815260040160405180910390fd5b604080516001600160a01b0385168152602081018490527f763b7906d6e70909e1e71297ae50309cdf79f5dfd817dcb6e72253a19d20a260910160405180910390a1505050565b3460056000828254610c109190610fc2565b9091555050604080513481523360208201527f424eee5d3803d33bb00df2c2150947c3e08e45176b270833d0216ced54fdf396910160405180910390a1565b600060028281548110610c6457610c64610fd5565b6000918252602090912001546001600160a01b031692915050565b336001600160a01b037f00000000000000000000000000000000000000000000000000000000000000001614610cc857604051630e888d0760e11b815260040160405180910390fd5b6001600160a01b03811660009081526003602052604090205460ff16610d0157604051631da6db6560e01b815260040160405180910390fd5b60026001600160a01b03821660009081526004602052604090205460ff166002811115610d3057610d30610f33565b03610d4e5760405163715e810d60e01b815260040160405180910390fd5b6001600160a01b038116600081815260046020526040808220805460ff19166002179055517f024632e00dbf9a5e2ff58ae958797a593f1d11eb4fa4575156ea1838ced5a2149190a250565b336001600160a01b037f00000000000000000000000000000000000000000000000000000000000000001614610de357604051630e888d0760e11b815260040160405180910390fd5b6001600160a01b03811660009081526003602052604090205460ff16610e1c57604051631da6db6560e01b815260040160405180910390fd5b60026001600160a01b03821660009081526004602052604090205460ff166002811115610e4b57610e4b610f33565b14610e6957604051636b2fcc4960e01b815260040160405180910390fd5b6001600160a01b038116600081815260046020526040808220805460ff19169055517f81c69f875279de1c6258458eb3fb2c7df8cb215d3c36e12e5a5d1d54d96b271f9190a250565b600060208284031215610ec457600080fd5b5035919050565b80356001600160a01b0381168114610ee257600080fd5b919050565b600060208284031215610ef957600080fd5b610f0282610ecb565b9392505050565b60008060408385031215610f1c57600080fd5b610f2583610ecb565b946020939093013593505050565b634e487b7160e01b600052602160045260246000fd5b6020810160038310610f6b57634e487b7160e01b600052602160045260246000fd5b91905290565b634e487b7160e01b600052601160045260246000fd5b81810381811115610f9a57610f9a610f71565b92915050565b600060208284031215610fb257600080fd5b81518015158114610f0257600080fd5b80820180821115610f9a57610f9a610f71565b634e487b7160e01b600052603260045260246000fdfea26469706673582212204515d13a7bed3be9b19462d4b6ccdb9b4f8d5b9a54bbd5844ce6b1b8c7b554a364736f6c63430008170033","linkReferences":{}},"methodIdentifiers":{"GOVERNOR()":"6dc0ae22","WHITELIST()":"1bb7cc99","fundMediationReserve()":"8166639b","getMediationReserve()":"f64b1487","getMediator(uint256)":"b3a34e95","getMediatorStake(address)":"46fb23c0","getMediatorStatus(address)":"95fdd815","isEligible(address)":"66e305fd","isMediator(address)":"e6764f25","mediatorPoolSize()":"15270cf9","mediators(uint256)":"09ebdc4f","minimumStake()":"ec5ffac2","pauseMediator()":"7161f671","reactivateMediator()":"287c4c14","registerMediator(address)":"2dd2041d","reinstateMediator(address)":"f8d19417","setMinimumStake(uint256)":"233e9903","stake()":"3a4b66f1","suspendMediator(address)":"ed80bcf3","withdrawMediationReserve(address,uint256)":"7c70fd81","withdrawStake(uint256)":"25d5971f"},"id":43}