{"abi":[{"type":"constructor","inputs":[{"name":"_governor","type":"address","internalType":"address"}],"stateMutability":"nonpayable"},{"type":"function","name":"GOVERNOR","inputs":[],"outputs":[{"name":"","type":"address","internalType":"address"}],"stateMutability":"view"},{"type":"function","name":"approveAddress","inputs":[{"name":"_address","type":"address","internalType":"address"}],"outputs":[],"stateMutability":"nonpayable"},{"type":"function","name":"isApproved","inputs":[{"name":"_address","type":"address","internalType":"address"}],"outputs":[{"name":"","type":"bool","internalType":"bool"}],"stateMutability":"view"},{"type":"function","name":"revokeApproval","inputs":[{"name":"_address","type":"address","internalType":"address"}],"outputs":[],"stateMutability":"nonpayable"},{"type":"event","name":"ApprovalRevoked","inputs":[{"name":"user","type":"address","indexed":true,"internalType":"address"}],"anonymous":false},{"type":"event","name":"Whitelisted","inputs":[{"name":"user","type":"address","indexed":true,"internalType":"address"}],"anonymous":false},{"type":"error","name":"Whitelist__AlreadyApproved","inputs":[]},{"type":"error","name":"Whitelist__NotApproved","inputs":[]},{"type":"error","name":"Whitelist__OnlyAdmin","inputs":[]},{"type":"error","name":"Whitelist__OnlyGovernor","inputs":[]}],"bytecode":{"object":"0x60a060405234801561001057600080fd5b5060405161046f38038061046f83398101604081905261002f91610040565b6001600160a01b0316608052610070565b60006020828403121561005257600080fd5b81516001600160a01b038116811461006957600080fd5b9392505050565b6080516103d76100986000396000818160ac0152818161010e015261023701526103d76000f3fe608060405234801561001057600080fd5b506004361061004c5760003560e01c8063484685b014610051578063673448dd146100665780636dc0ae22146100a7578063fabf657a146100e6575b600080fd5b61006461005f36600461034f565b6100f9565b005b61009261007436600461034f565b6001600160a01b031660009081526020819052604090205460ff1690565b60405190151581526020015b60405180910390f35b6100ce7f000000000000000000000000000000000000000000000000000000000000000081565b6040516001600160a01b03909116815260200161009e565b6100646100f436600461034f565b610222565b604051630935e01b60e21b81523360048201527f00000000000000000000000000000000000000000000000000000000000000006001600160a01b0316906324d7806c906024016020604051808303816000875af115801561015f573d6000803e3d6000fd5b505050506040513d601f19601f82011682018060405250810190610183919061037f565b6101a0576040516311cfbab960e21b815260040160405180910390fd5b6001600160a01b03811660009081526020819052604090205460ff166101d957604051636ff6271b60e11b815260040160405180910390fd5b6001600160a01b038116600081815260208190526040808220805460ff19169055517fb9d372ca98fcaccd93b1d0e8a23b184901314fb7f610fb82ba911d094c4c2e769190a250565b604051630935e01b60e21b81523360048201527f00000000000000000000000000000000000000000000000000000000000000006001600160a01b0316906324d7806c906024016020604051808303816000875af1158015610288573d6000803e3d6000fd5b505050506040513d601f19601f820116820180604052508101906102ac919061037f565b6102c9576040516311cfbab960e21b815260040160405180910390fd5b6001600160a01b03811660009081526020819052604090205460ff161561030357604051632c6f34ef60e21b815260040160405180910390fd5b6001600160a01b038116600081815260208190526040808220805460ff19166001179055517faab7954e9d246b167ef88aeddad35209ca2489d95a8aeb59e288d9b19fae5a549190a250565b60006020828403121561036157600080fd5b81356001600160a01b038116811461037857600080fd5b9392505050565b60006020828403121561039157600080fd5b8151801515811461037857600080fdfea26469706673582212201ac53aaa516714d3d16efa534cd311cbe81bfdb11d5f86768cefd7633416ff5264736f6c63430008170033","linkReferences":{}},"methodIdentifiers":{"GOVERNOR()":"6dc0ae22","approveAddress(address)":"fabf657a","isApproved(address)":"673448dd","revokeApproval(address)":"484685b0"},"id":45}